{
  "contractName": "Profile",
  "abi": [
    {
      "anonymous": false,
      "inputs": [
        {
          "indexed": false,
          "internalType": "uint256",
          "name": "number",
          "type": "uint256"
        }
      ],
      "name": "RandomNumber",
      "type": "event"
    },
    {
      "inputs": [],
      "name": "addEther",
      "outputs": [],
      "stateMutability": "payable",
      "type": "function",
      "payable": true
    },
    {
      "inputs": [
        {
          "internalType": "uint8",
          "name": "number",
          "type": "uint8"
        },
        {
          "internalType": "uint8",
          "name": "betType",
          "type": "uint8"
        }
      ],
      "name": "bet",
      "outputs": [],
      "stateMutability": "payable",
      "type": "function",
      "payable": true
    },
    {
      "inputs": [
        {
          "internalType": "uint256",
          "name": "",
          "type": "uint256"
        }
      ],
      "name": "bets",
      "outputs": [
        {
          "internalType": "address",
          "name": "player",
          "type": "address"
        },
        {
          "internalType": "uint8",
          "name": "betType",
          "type": "uint8"
        },
        {
          "internalType": "uint8",
          "name": "number",
          "type": "uint8"
        }
      ],
      "stateMutability": "view",
      "type": "function",
      "constant": true
    },
    {
      "inputs": [],
      "name": "getStatus",
      "outputs": [
        {
          "internalType": "uint256",
          "name": "",
          "type": "uint256"
        },
        {
          "internalType": "uint256",
          "name": "",
          "type": "uint256"
        },
        {
          "internalType": "uint256",
          "name": "",
          "type": "uint256"
        },
        {
          "internalType": "uint256",
          "name": "",
          "type": "uint256"
        },
        {
          "internalType": "uint256",
          "name": "",
          "type": "uint256"
        }
      ],
      "stateMutability": "view",
      "type": "function",
      "constant": true
    },
    {
      "inputs": [],
      "name": "spinWheel",
      "outputs": [],
      "stateMutability": "payable",
      "type": "function",
      "payable": true
    },
    {
      "inputs": [],
      "name": "someEther",
      "outputs": [
        {
          "internalType": "bool",
          "name": "",
          "type": "bool"
        }
      ],
      "stateMutability": "payable",
      "type": "function",
      "payable": true
    },
    {
      "inputs": [],
      "name": "getStato",
      "outputs": [
        {
          "internalType": "uint256",
          "name": "",
          "type": "uint256"
        },
        {
          "internalType": "uint256",
          "name": "",
          "type": "uint256"
        }
      ],
      "stateMutability": "view",
      "type": "function",
      "constant": true
    },
    {
      "inputs": [],
      "name": "cashOut",
      "outputs": [],
      "stateMutability": "nonpayable",
      "type": "function"
    }
  ],
  "bytecode": "0x6080604052670de0b6b3a764000060095530600a60006101000a81548173ffffffffffffffffffffffffffffffffffffffff021916908373ffffffffffffffffffffffffffffffffffffffff1602179055503480156200005e57600080fd5b5033600360006101000a81548173ffffffffffffffffffffffffffffffffffffffff021916908373ffffffffffffffffffffffffffffffffffffffff1602179055506000600181905550426002819055506040518060c00160405280600260ff168152602001600360ff168152602001600360ff168152602001600260ff168152602001600260ff168152602001602460ff1681525060069060066200010692919062000182565b506040518060c00160405280600160ff168152602001600260ff168152602001600260ff168152602001600160ff168152602001600160ff168152602001602460ff1681525060079060066200015e92919062000182565b50662386f26fc10000600081905550671bc16d674ec800006004819055506200024f565b82805482825590600052602060002090601f016020900481019282156200021d5791602002820160005b83821115620001ec57835183826101000a81548160ff021916908360ff1602179055509260200192600101602081600001049283019260010302620001ac565b80156200021b5782816101000a81549060ff0219169055600101602081600001049283019260010302620001ec565b505b5090506200022c919062000230565b5090565b5b808211156200024b57600081600090555060010162000231565b5090565b6111be806200025f6000396000f3fe60806040526004361061007b5760003560e01c8063793cd71e1161004e578063793cd71e146101165780638894dd2b1461012d578063d773f46e14610137578063f3bd38fa146101535761007b565b806315ecef921461008057806322af00fa1461008a5780634e69d560146100c957806371413d38146100f8575b600080fd5b61008861017f565b005b34801561009657600080fd5b506100b160048036038101906100ac9190610bc1565b61075a565b6040516100c093929190610c4b565b60405180910390f35b3480156100d557600080fd5b506100de6107ca565b6040516100ef959493929190610c91565b60405180910390f35b610100610840565b60405161010d9190610cff565b60405180910390f35b34801561012257600080fd5b5061012b61088d565b005b6101356108e4565b005b610151600480360381019061014c9190610d46565b6108e6565b005b34801561015f57600080fd5b50610168610add565b604051610176929190610d86565b60405180910390f35b60006008805490501161019157600080fd5b662386f26fc1000034116101a457600080fd5b60025442116101b257600080fd5b42600281905550600044905060006001436101cd9190610dde565b4090506000600860016008805490506101e69190610dde565b815481106101f7576101f6610e12565b5b906000526020600020016040518060600160405290816000820160009054906101000a900473ffffffffffffffffffffffffffffffffffffffff1673ffffffffffffffffffffffffffffffffffffffff1673ffffffffffffffffffffffffffffffffffffffff1681526020016000820160149054906101000a900460ff1660ff1660ff1681526020016000820160159054906101000a900460ff1660ff1660ff16815250509050600060254285858560200151866000015187604001516040516020016102c996959493929190610f0b565b6040516020818303038152906040528051906020012060001c6102ec9190610faa565b905060005b600880549050811015610706576000806008838154811061031557610314610e12565b5b906000526020600020016040518060600160405290816000820160009054906101000a900473ffffffffffffffffffffffffffffffffffffffff1673ffffffffffffffffffffffffffffffffffffffff1673ffffffffffffffffffffffffffffffffffffffff1681526020016000820160149054906101000a900460ff1660ff1660ff1681526020016000820160159054906101000a900460ff1660ff1660ff16815250509050600084036103e9576005816020015160ff161480156103e257506000816040015160ff16145b9150610646565b6005816020015160ff16036104095783816040015160ff16149150610645565b6004816020015160ff1603610461576000816040015160ff160361043a5760006002856104369190610faa565b1491505b6001816040015160ff160361045c5760016002856104589190610faa565b1491505b610644565b6003816020015160ff16036104a3576000816040015160ff160361048757601284111591505b6001816040015160ff160361049e57601384101591505b610643565b6002816020015160ff1603610507576000816040015160ff16036104c957600c84111591505b6001816040015160ff16036104ec57600c841180156104e9575060188411155b91505b6002816040015160ff1603610502576018841191505b610642565b6001816020015160ff1603610581576000816040015160ff16036105385760016003856105349190610faa565b1491505b6001816040015160ff160361055a5760026003856105569190610faa565b1491505b6002816040015160ff160361057c5760006003856105789190610faa565b1491505b610641565b6000816020015160ff1603610640576000816040015160ff16036105f157600a841115806105bd5750601484101580156105bc5750601c8411155b5b156105d95760006002856105d19190610faa565b1491506105ec565b60016002856105e89190610faa565b1491505b61063f565b600a8411158061060f57506014841015801561060e5750601c8411155b5b1561062b5760016002856106239190610faa565b14915061063e565b600060028561063a9190610faa565b1491505b5b5b5b5b5b5b5b5b81156106f1576006816020015160ff168154811061066757610666610e12565b5b90600052602060002090602091828204019190069054906101000a900460ff1660ff166000546106979190610fdb565b60056000836000015173ffffffffffffffffffffffffffffffffffffffff1673ffffffffffffffffffffffffffffffffffffffff16815260200190815260200160002060008282546106e9919061101d565b925050819055505b505080806106fe90611051565b9150506102f1565b50600860006107159190610aff565b60006001819055507fec6cdc8e735e4069f6e89062582f3e5532a8e71373e7ef2962fa916cf2af21f28160405161074c9190611099565b60405180910390a150505050565b6008818154811061076a57600080fd5b906000526020600020016000915090508060000160009054906101000a900473ffffffffffffffffffffffffffffffffffffffff16908060000160149054906101000a900460ff16908060000160159054906101000a900460ff16905083565b60008060008060006008805490506000546008805490506107eb9190610fdb565b60025447600560003373ffffffffffffffffffffffffffffffffffffffff1673ffffffffffffffffffffffffffffffffffffffff16815260200190815260200160002054945094509450945094509091929394565b60006009543414610886576040517f08c379a000000000000000000000000000000000000000000000000000000000815260040161087d90611137565b60405180910390fd5b6001905090565b60003390508073ffffffffffffffffffffffffffffffffffffffff166108fc670de0b6b3a76400009081150290604051600060405180830381858888f193505050501580156108e0573d6000803e3d6000fd5b5050565b565b60005434146108f457600080fd5b60008160ff161015801561090c575060058160ff1611155b61091557600080fd5b60008260ff1610158015610965575060078160ff168154811061093b5761093a610e12565b5b90600052602060002090602091828204019190069054906101000a900460ff1660ff168260ff1611155b61096e57600080fd5b60003460068360ff168154811061098857610987610e12565b5b90600052602060002090602091828204019190069054906101000a900460ff1660ff166109b59190610fdb565b90506000816001546109c7919061101d565b90504781106109d557600080fd5b81600160008282546109e7919061101d565b92505081905550600860405180606001604052803373ffffffffffffffffffffffffffffffffffffffff1681526020018560ff1681526020018660ff168152509080600181540180825580915050600190039060005260206000200160009091909190915060008201518160000160006101000a81548173ffffffffffffffffffffffffffffffffffffffff021916908373ffffffffffffffffffffffffffffffffffffffff16021790555060208201518160000160146101000a81548160ff021916908360ff16021790555060408201518160000160156101000a81548160ff021916908360ff160217905550505050505050565b600080670de0b6b3a764000047610af49190611157565b600954915091509091565b5080546000825590600052602060002090810190610b1d9190610b20565b50565b5b80821115610b8257600080820160006101000a81549073ffffffffffffffffffffffffffffffffffffffff02191690556000820160146101000a81549060ff02191690556000820160156101000a81549060ff021916905550600101610b21565b5090565b600080fd5b6000819050919050565b610b9e81610b8b565b8114610ba957600080fd5b50565b600081359050610bbb81610b95565b92915050565b600060208284031215610bd757610bd6610b86565b5b6000610be584828501610bac565b91505092915050565b600073ffffffffffffffffffffffffffffffffffffffff82169050919050565b6000610c1982610bee565b9050919050565b610c2981610c0e565b82525050565b600060ff82169050919050565b610c4581610c2f565b82525050565b6000606082019050610c606000830186610c20565b610c6d6020830185610c3c565b610c7a6040830184610c3c565b949350505050565b610c8b81610b8b565b82525050565b600060a082019050610ca66000830188610c82565b610cb36020830187610c82565b610cc06040830186610c82565b610ccd6060830185610c82565b610cda6080830184610c82565b9695505050505050565b60008115159050919050565b610cf981610ce4565b82525050565b6000602082019050610d146000830184610cf0565b92915050565b610d2381610c2f565b8114610d2e57600080fd5b50565b600081359050610d4081610d1a565b92915050565b60008060408385031215610d5d57610d5c610b86565b5b6000610d6b85828601610d31565b9250506020610d7c85828601610d31565b9150509250929050565b6000604082019050610d9b6000830185610c82565b610da86020830184610c82565b9392505050565b7f4e487b7100000000000000000000000000000000000000000000000000000000600052601160045260246000fd5b6000610de982610b8b565b9150610df483610b8b565b9250828203905081811115610e0c57610e0b610daf565b5b92915050565b7f4e487b7100000000000000000000000000000000000000000000000000000000600052603260045260246000fd5b6000819050919050565b610e5c610e5782610b8b565b610e41565b82525050565b6000819050919050565b6000819050919050565b610e87610e8282610e62565b610e6c565b82525050565b60008160f81b9050919050565b6000610ea582610e8d565b9050919050565b610ebd610eb882610c2f565b610e9a565b82525050565b60008160601b9050919050565b6000610edb82610ec3565b9050919050565b6000610eed82610ed0565b9050919050565b610f05610f0082610c0e565b610ee2565b82525050565b6000610f178289610e4b565b602082019150610f278288610e4b565b602082019150610f378287610e76565b602082019150610f478286610eac565b600182019150610f578285610ef4565b601482019150610f678284610eac565b600182019150819050979650505050505050565b7f4e487b7100000000000000000000000000000000000000000000000000000000600052601260045260246000fd5b6000610fb582610b8b565b9150610fc083610b8b565b925082610fd057610fcf610f7b565b5b828206905092915050565b6000610fe682610b8b565b9150610ff183610b8b565b9250828202610fff81610b8b565b9150828204841483151761101657611015610daf565b5b5092915050565b600061102882610b8b565b915061103383610b8b565b925082820190508082111561104b5761104a610daf565b5b92915050565b600061105c82610b8b565b91507fffffffffffffffffffffffffffffffffffffffffffffffffffffffffffffffff820361108e5761108d610daf565b5b600182019050919050565b60006020820190506110ae6000830184610c82565b92915050565b600082825260208201905092915050565b7f6e6f6e20736f6e6f207374617469207665727361746920616262617374616e7a60008201527f6120666f6e646900000000000000000000000000000000000000000000000000602082015250565b60006111216027836110b4565b915061112c826110c5565b604082019050919050565b6000602082019050818103600083015261115081611114565b9050919050565b600061116282610b8b565b915061116d83610b8b565b92508261117d5761117c610f7b565b5b82820490509291505056fea26469706673582212204e7b84fa9bf0ee7326b8a28be6edad29e40a220d177c6a9c809e9c674f5152a164736f6c63430008130033",
  "immutableReferences": {},
  "source": "// SPDX-License-Identifier: MIT\r\nimport \"./Roulette.sol\";\r\n\r\ncontract Profile is Roulette{\r\n\r\n    uint256 price = 1 * (1 ether);\r\n    address myContract = address(this);\r\n\r\n    function someEther() public payable returns(bool){\r\n        require(msg.value == price, \"non sono stati versati abbastanza fondi\");\r\n\r\n        \r\n        return true;\r\n    }\r\n\r\n\r\n    function getStato() public view returns(uint, uint ){\r\n        \r\n        return (address(this).balance / 1 ether, price);\r\n\r\n    }\r\n\r\n    function cashOut() public {\r\n    address payable player = payable(msg.sender); \r\n\r\n    //Array di giocatori vincenti\r\n    //uint256 amount = winnings[player];\r\n    //require(amount > 0);\r\n    //require(amount <= address(this).balance);\r\n    //winnings[player] = 0;\r\n    player.transfer(1 ether);\r\n  }\r\n\r\n\r\n}",
  "sourcePath": "C:\\Users\\ddefs\\Desktop\\Universit\\ETHRoulette\\ETHRoulette\\contracts\\Profile.sol",
  "compiler": {
    "name": "solc",
    "version": "0.8.19+commit.7dd6d404.Emscripten.clang"
  },
  "schemaVersion": "3.4.16",
  "updatedAt": "2024-01-25T14:21:45.371Z",
  "networkType": "ethereum",
  "devdoc": {
    "kind": "dev",
    "methods": {},
    "version": 1
  },
  "userdoc": {
    "kind": "user",
    "methods": {},
    "version": 1
  }
}