{
  "contractName": "Profile",
  "abi": [
    {
      "inputs": [],
      "stateMutability": "payable",
      "type": "constructor",
      "payable": true
    },
    {
      "anonymous": false,
      "inputs": [
        {
          "indexed": false,
          "internalType": "string",
          "name": "",
          "type": "string"
        },
        {
          "indexed": false,
          "internalType": "address",
          "name": "",
          "type": "address"
        }
      ],
      "name": "existingPlayer",
      "type": "event"
    },
    {
      "anonymous": false,
      "inputs": [
        {
          "indexed": false,
          "internalType": "string",
          "name": "",
          "type": "string"
        },
        {
          "indexed": false,
          "internalType": "address",
          "name": "",
          "type": "address"
        },
        {
          "indexed": false,
          "internalType": "uint256",
          "name": "",
          "type": "uint256"
        }
      ],
      "name": "newPlayer",
      "type": "event"
    },
    {
      "inputs": [
        {
          "internalType": "address",
          "name": "",
          "type": "address"
        }
      ],
      "name": "addToPlayer",
      "outputs": [
        {
          "internalType": "string",
          "name": "username",
          "type": "string"
        },
        {
          "internalType": "uint256",
          "name": "game",
          "type": "uint256"
        },
        {
          "internalType": "uint256",
          "name": "maxWin",
          "type": "uint256"
        },
        {
          "internalType": "uint256",
          "name": "totalCashFlow",
          "type": "uint256"
        },
        {
          "internalType": "uint256",
          "name": "cashInBank",
          "type": "uint256"
        },
        {
          "internalType": "address",
          "name": "addPlayer",
          "type": "address"
        },
        {
          "internalType": "bool",
          "name": "exist",
          "type": "bool"
        }
      ],
      "stateMutability": "view",
      "type": "function",
      "constant": true
    },
    {
      "inputs": [
        {
          "internalType": "address",
          "name": "",
          "type": "address"
        }
      ],
      "name": "indirizzoEsiste",
      "outputs": [
        {
          "internalType": "bool",
          "name": "",
          "type": "bool"
        }
      ],
      "stateMutability": "view",
      "type": "function",
      "constant": true
    },
    {
      "inputs": [],
      "name": "addEther",
      "outputs": [
        {
          "internalType": "bool",
          "name": "",
          "type": "bool"
        }
      ],
      "stateMutability": "payable",
      "type": "function",
      "payable": true
    },
    {
      "inputs": [],
      "name": "getStato",
      "outputs": [
        {
          "internalType": "uint256",
          "name": "",
          "type": "uint256"
        },
        {
          "internalType": "uint256",
          "name": "",
          "type": "uint256"
        }
      ],
      "stateMutability": "view",
      "type": "function",
      "constant": true
    },
    {
      "inputs": [],
      "name": "cashOut",
      "outputs": [],
      "stateMutability": "nonpayable",
      "type": "function"
    },
    {
      "inputs": [
        {
          "internalType": "string",
          "name": "_username",
          "type": "string"
        }
      ],
      "name": "setUsername",
      "outputs": [
        {
          "internalType": "string",
          "name": "",
          "type": "string"
        }
      ],
      "stateMutability": "nonpayable",
      "type": "function"
    },
    {
      "inputs": [],
      "name": "getStatoUtente",
      "outputs": [
        {
          "internalType": "string",
          "name": "",
          "type": "string"
        },
        {
          "internalType": "uint256",
          "name": "",
          "type": "uint256"
        },
        {
          "internalType": "uint256",
          "name": "",
          "type": "uint256"
        },
        {
          "internalType": "uint256",
          "name": "",
          "type": "uint256"
        },
        {
          "internalType": "uint256",
          "name": "",
          "type": "uint256"
        },
        {
          "internalType": "address",
          "name": "",
          "type": "address"
        }
      ],
      "stateMutability": "view",
      "type": "function",
      "constant": true
    },
    {
      "inputs": [
        {
          "internalType": "string",
          "name": "_name",
          "type": "string"
        }
      ],
      "name": "addPlayer",
      "outputs": [
        {
          "internalType": "bool",
          "name": "",
          "type": "bool"
        }
      ],
      "stateMutability": "nonpayable",
      "type": "function"
    }
  ],
  "bytecode": "0x6080604052670de0b6b3a764000060015530600260006101000a81548173ffffffffffffffffffffffffffffffffffffffff021916908373ffffffffffffffffffffffffffffffffffffffff160217905550336000806101000a81548173ffffffffffffffffffffffffffffffffffffffff021916908373ffffffffffffffffffffffffffffffffffffffff160217905550611787806100a06000396000f3fe60806040526004361061007b5760003560e01c8063ed59313a1161004e578063ed59313a14610135578063f3bd38fa14610172578063f77e8b831461019e578063fbb83ddb146101db5761007b565b806347478d5214610080578063793cd71e146100c35780638894dd2b146100da578063cf108a6b146100f8575b600080fd5b34801561008c57600080fd5b506100a760048036038101906100a29190610c6d565b61020b565b6040516100ba9796959493929190610d6d565b60405180910390f35b3480156100cf57600080fd5b506100d8610302565b005b6100e26104b0565b6040516100ef9190610de3565b60405180910390f35b34801561010457600080fd5b5061011f600480360381019061011a9190610c6d565b6104fb565b60405161012c9190610de3565b60405180910390f35b34801561014157600080fd5b5061015c60048036038101906101579190610f33565b61051b565b6040516101699190610f7c565b60405180910390f35b34801561017e57600080fd5b5061018761064b565b604051610195929190610f9e565b60405180910390f35b3480156101aa57600080fd5b506101c560048036038101906101c09190610f33565b61066d565b6040516101d29190610de3565b60405180910390f35b3480156101e757600080fd5b506101f06108d0565b60405161020296959493929190610fc7565b60405180910390f35b600360205280600052604060002060009150905080600001805461022e9061105e565b80601f016020809104026020016040519081016040528092919081815260200182805461025a9061105e565b80156102a75780601f1061027c576101008083540402835291602001916102a7565b820191906000526020600020905b81548152906001019060200180831161028a57829003601f168201915b5050505050908060010154908060020154908060030154908060040154908060050160009054906101000a900473ffffffffffffffffffffffffffffffffffffffff16908060050160149054906101000a900460ff16905087565b6000600360003373ffffffffffffffffffffffffffffffffffffffff1673ffffffffffffffffffffffffffffffffffffffff1681526020019081526020016000206004015411610387576040517f08c379a000000000000000000000000000000000000000000000000000000000815260040161037e906110db565b60405180910390fd5b47600360003373ffffffffffffffffffffffffffffffffffffffff1673ffffffffffffffffffffffffffffffffffffffff16815260200190815260200160002060040154111561040c576040517f08c379a00000000000000000000000000000000000000000000000000000000081526004016104039061116d565b60405180910390fd5b60003390508073ffffffffffffffffffffffffffffffffffffffff166108fc670de0b6b3a7640000600360003373ffffffffffffffffffffffffffffffffffffffff1673ffffffffffffffffffffffffffffffffffffffff1681526020019081526020016000206004015461048191906111bc565b9081150290604051600060405180830381858888f193505050501580156104ac573d6000803e3d6000fd5b5050565b60008034116104f4576040517f08c379a00000000000000000000000000000000000000000000000000000000081526004016104eb90611270565b60405180910390fd5b6001905090565b60046020528060005260406000206000915054906101000a900460ff1681565b60603373ffffffffffffffffffffffffffffffffffffffff16600360003373ffffffffffffffffffffffffffffffffffffffff1673ffffffffffffffffffffffffffffffffffffffff16815260200190815260200160002060050160009054906101000a900473ffffffffffffffffffffffffffffffffffffffff1673ffffffffffffffffffffffffffffffffffffffff16146105ed576040517f08c379a00000000000000000000000000000000000000000000000000000000081526004016105e490611302565b60405180910390fd5b600082905080600360003373ffffffffffffffffffffffffffffffffffffffff1673ffffffffffffffffffffffffffffffffffffffff168152602001908152602001600020600001908161064191906114ce565b5080915050919050565b600080670de0b6b3a76400004761066291906115cf565b600154915091509091565b6000801515600360003373ffffffffffffffffffffffffffffffffffffffff1673ffffffffffffffffffffffffffffffffffffffff16815260200190815260200160002060050160149054906101000a900460ff16151514610704576040517f08c379a00000000000000000000000000000000000000000000000000000000081526004016106fb9061164c565b60405180910390fd5b6000825111610748576040517f08c379a000000000000000000000000000000000000000000000000000000000815260040161073f906116b8565b60405180910390fd5b600033905060006040518060e00160405280858152602001600081526020016000815260200160008152602001600081526020018373ffffffffffffffffffffffffffffffffffffffff16815260200160011515815250905080600360008473ffffffffffffffffffffffffffffffffffffffff1673ffffffffffffffffffffffffffffffffffffffff16815260200190815260200160002060008201518160000190816107f691906114ce565b506020820151816001015560408201518160020155606082015181600301556080820151816004015560a08201518160050160006101000a81548173ffffffffffffffffffffffffffffffffffffffff021916908373ffffffffffffffffffffffffffffffffffffffff16021790555060c08201518160050160146101000a81548160ff0219169083151502179055509050507f05a7620959db0b35c22d0875ba544f7330a46562081bb2e33509281902568657848360006040516108bd93929190611713565b60405180910390a1600192505050919050565b606060008060008060003373ffffffffffffffffffffffffffffffffffffffff16600360003373ffffffffffffffffffffffffffffffffffffffff1673ffffffffffffffffffffffffffffffffffffffff16815260200190815260200160002060050160009054906101000a900473ffffffffffffffffffffffffffffffffffffffff1673ffffffffffffffffffffffffffffffffffffffff16146109aa576040517f08c379a00000000000000000000000000000000000000000000000000000000081526004016109a190611302565b60405180910390fd5b600360003373ffffffffffffffffffffffffffffffffffffffff1673ffffffffffffffffffffffffffffffffffffffff168152602001908152602001600020600001600360003373ffffffffffffffffffffffffffffffffffffffff1673ffffffffffffffffffffffffffffffffffffffff16815260200190815260200160002060010154600360003373ffffffffffffffffffffffffffffffffffffffff1673ffffffffffffffffffffffffffffffffffffffff16815260200190815260200160002060020154600360003373ffffffffffffffffffffffffffffffffffffffff1673ffffffffffffffffffffffffffffffffffffffff16815260200190815260200160002060030154600360003373ffffffffffffffffffffffffffffffffffffffff1673ffffffffffffffffffffffffffffffffffffffff16815260200190815260200160002060040154600360003373ffffffffffffffffffffffffffffffffffffffff1673ffffffffffffffffffffffffffffffffffffffff16815260200190815260200160002060050160009054906101000a900473ffffffffffffffffffffffffffffffffffffffff16858054610b679061105e565b80601f0160208091040260200160405190810160405280929190818152602001828054610b939061105e565b8015610be05780601f10610bb557610100808354040283529160200191610be0565b820191906000526020600020905b815481529060010190602001808311610bc357829003601f168201915b50505050509550955095509550955095509550909192939495565b6000604051905090565b600080fd5b600080fd5b600073ffffffffffffffffffffffffffffffffffffffff82169050919050565b6000610c3a82610c0f565b9050919050565b610c4a81610c2f565b8114610c5557600080fd5b50565b600081359050610c6781610c41565b92915050565b600060208284031215610c8357610c82610c05565b5b6000610c9184828501610c58565b91505092915050565b600081519050919050565b600082825260208201905092915050565b60005b83811015610cd4578082015181840152602081019050610cb9565b60008484015250505050565b6000601f19601f8301169050919050565b6000610cfc82610c9a565b610d068185610ca5565b9350610d16818560208601610cb6565b610d1f81610ce0565b840191505092915050565b6000819050919050565b610d3d81610d2a565b82525050565b610d4c81610c2f565b82525050565b60008115159050919050565b610d6781610d52565b82525050565b600060e0820190508181036000830152610d87818a610cf1565b9050610d966020830189610d34565b610da36040830188610d34565b610db06060830187610d34565b610dbd6080830186610d34565b610dca60a0830185610d43565b610dd760c0830184610d5e565b98975050505050505050565b6000602082019050610df86000830184610d5e565b92915050565b600080fd5b600080fd5b7f4e487b7100000000000000000000000000000000000000000000000000000000600052604160045260246000fd5b610e4082610ce0565b810181811067ffffffffffffffff82111715610e5f57610e5e610e08565b5b80604052505050565b6000610e72610bfb565b9050610e7e8282610e37565b919050565b600067ffffffffffffffff821115610e9e57610e9d610e08565b5b610ea782610ce0565b9050602081019050919050565b82818337600083830152505050565b6000610ed6610ed184610e83565b610e68565b905082815260208101848484011115610ef257610ef1610e03565b5b610efd848285610eb4565b509392505050565b600082601f830112610f1a57610f19610dfe565b5b8135610f2a848260208601610ec3565b91505092915050565b600060208284031215610f4957610f48610c05565b5b600082013567ffffffffffffffff811115610f6757610f66610c0a565b5b610f7384828501610f05565b91505092915050565b60006020820190508181036000830152610f968184610cf1565b905092915050565b6000604082019050610fb36000830185610d34565b610fc06020830184610d34565b9392505050565b600060c0820190508181036000830152610fe18189610cf1565b9050610ff06020830188610d34565b610ffd6040830187610d34565b61100a6060830186610d34565b6110176080830185610d34565b61102460a0830184610d43565b979650505050505050565b7f4e487b7100000000000000000000000000000000000000000000000000000000600052602260045260246000fd5b6000600282049050600182168061107657607f821691505b6020821081036110895761108861102f565b5b50919050565b7f6e6f6e2068616920736f6c6469206461207072656c6576617265000000000000600082015250565b60006110c5601a83610ca5565b91506110d08261108f565b602082019050919050565b600060208201905081810360008301526110f4816110b8565b9050919050565b7f6e6f6e20736920736f6e6f20616262617374616e7a6120666f6e7369206e656c60008201527f20636f6e74726174746f20706572207061676172746900000000000000000000602082015250565b6000611157603683610ca5565b9150611162826110fb565b604082019050919050565b600060208201905081810360008301526111868161114a565b9050919050565b7f4e487b7100000000000000000000000000000000000000000000000000000000600052601160045260246000fd5b60006111c782610d2a565b91506111d283610d2a565b92508282026111e081610d2a565b915082820484148315176111f7576111f661118d565b5b5092915050565b7f6e6f6e2070756f69207472617366657269726520756e61207175616e7469746160008201527f2070617269206120300000000000000000000000000000000000000000000000602082015250565b600061125a602983610ca5565b9150611265826111fe565b604082019050919050565b600060208201905081810360008301526112898161124d565b9050919050565b7f4c27696e646972697a7a6f206e6f6e20657369737465206e656c206d6170706960008201527f6e67206f206e6f6e20636f6d62616369616e6f00000000000000000000000000602082015250565b60006112ec603383610ca5565b91506112f782611290565b604082019050919050565b6000602082019050818103600083015261131b816112df565b9050919050565b60008190508160005260206000209050919050565b60006020601f8301049050919050565b600082821b905092915050565b6000600883026113847fffffffffffffffffffffffffffffffffffffffffffffffffffffffffffffffff82611347565b61138e8683611347565b95508019841693508086168417925050509392505050565b6000819050919050565b60006113cb6113c66113c184610d2a565b6113a6565b610d2a565b9050919050565b6000819050919050565b6113e5836113b0565b6113f96113f1826113d2565b848454611354565b825550505050565b600090565b61140e611401565b6114198184846113dc565b505050565b5b8181101561143d57611432600082611406565b60018101905061141f565b5050565b601f8211156114825761145381611322565b61145c84611337565b8101602085101561146b578190505b61147f61147785611337565b83018261141e565b50505b505050565b600082821c905092915050565b60006114a560001984600802611487565b1980831691505092915050565b60006114be8383611494565b9150826002028217905092915050565b6114d782610c9a565b67ffffffffffffffff8111156114f0576114ef610e08565b5b6114fa825461105e565b611505828285611441565b600060209050601f8311600181146115385760008415611526578287015190505b61153085826114b2565b865550611598565b601f19841661154686611322565b60005b8281101561156e57848901518255600182019150602085019450602081019050611549565b8683101561158b5784890151611587601f891682611494565b8355505b6001600288020188555050505b505050505050565b7f4e487b7100000000000000000000000000000000000000000000000000000000600052601260045260246000fd5b60006115da82610d2a565b91506115e583610d2a565b9250826115f5576115f46115a0565b5b828204905092915050565b7f47696f6361746f726520676961207265676973747261746f0000000000000000600082015250565b6000611636601883610ca5565b915061164182611600565b602082019050919050565b6000602082019050818103600083015261166581611629565b9050919050565b7f4e6f6d6520696e73657269746f206e6f6e2076616c69646f0000000000000000600082015250565b60006116a2601883610ca5565b91506116ad8261166c565b602082019050919050565b600060208201905081810360008301526116d181611695565b9050919050565b6000819050919050565b60006116fd6116f86116f3846116d8565b6113a6565b610d2a565b9050919050565b61170d816116e2565b82525050565b6000606082019050818103600083015261172d8186610cf1565b905061173c6020830185610d43565b6117496040830184611704565b94935050505056fea2646970667358221220b232bf7ab46ff0b0aaf5c2ca3c0065f3b662af73aa8635c48449118f03f12ed164736f6c63430008130033",
  "immutableReferences": {},
  "source": "// SPDX-License-Identifier: MIT\npragma solidity ^0.8.19;\n\ncontract Profile {\n\n    address payable creator;\n    uint256 deposito = 1 * (1 ether);\n    address myContract = address(this);\n\n    \n    //creazione del giocatore\n    struct Player {\n        string username;\n        uint game; //totali partite giocate \n        uint maxWin; //massima vincita\n        uint totalCashFlow; //totali dei soldi giocati\n        uint cashInBank; //soldi depositati nel contratto\n        address addPlayer;\n        bool exist;\n    }\n\n    \n    //struttura che tiene traccia delle info dei giocatori\n    mapping (address => Player) public addToPlayer;\n    //struttura che tiene traccia dell'esistenza dei giocatori\n     mapping (address => bool) public indirizzoEsiste;\n\n    constructor () payable{\n        creator =payable(msg.sender);\n    }\n\n    event newPlayer(string, address, uint);\n    event existingPlayer(string, address);\n\n\n    //Serve a depositare del denaro\n    function addEther() public payable returns(bool){\n        require(msg.value > 0, \"non puoi trasferire una quantita pari a 0\");\n        return true;\n    }\n\n\n    //restituisce lo stato generale del contratto\n    function getStato() public view returns(uint, uint){\n        return (address(this).balance / 1 ether, deposito);\n    }\n\n    function cashOut() public {\n    //controllo che il giocartore abbia delle finanze \n    require(addToPlayer[msg.sender].cashInBank > 0, \"non hai soldi da prelevare\");\n    \n    //Controllo se ci sono abbastanza fondi per pagare \n    require(addToPlayer[msg.sender].cashInBank <= address(this).balance , \"non si sono abbastanza fonsi nel contratto per pagarti\");\n    \n    address payable player = payable(msg.sender); \n\n    player.transfer(addToPlayer[msg.sender].cashInBank * 1 ether);\n    }\n\n\n    function setUsername (string memory _username) public returns(string memory){\n        require(addToPlayer[msg.sender].addPlayer == msg.sender, \"L'indirizzo non esiste nel mapping o non combaciano\");\n        string memory nome = _username;\n        addToPlayer[msg.sender].username = nome;\n        return nome;\n    }\n\n    function getStatoUtente() public view returns(string memory, uint, uint, uint, uint, address ){\n       \n       //verifichiamo che il chiamante sia il diretto interessato. \n        require(addToPlayer[msg.sender].addPlayer == msg.sender, \"L'indirizzo non esiste nel mapping o non combaciano\");\n\n        return (addToPlayer[msg.sender].username, \n        addToPlayer[msg.sender].game, \n        addToPlayer[msg.sender].maxWin,\n        addToPlayer[msg.sender].totalCashFlow, \n        addToPlayer[msg.sender].cashInBank, \n        addToPlayer[msg.sender].addPlayer);\n    }\n\n\n    //restituisce  false se il giocatore gi esiste \n    //restituisce true se il giocatore  stato creato correttamente\n    function addPlayer(string memory _name) public returns(bool){\n        \n        //verifico che il giocatore non sia gi un utente registrato\n        require(addToPlayer[msg.sender].exist == false, \"Giocatore gia registrato\");\n        \n        //verifico che il nome non sia nullo\n        require(bytes(_name).length > 0, \"Nome inserito non valido\");\n\n        address p = msg.sender;\n\n        Player memory giocatore = Player(_name, 0, 0, 0, 0, p, true);\n\n        addToPlayer[p]=giocatore;\n\n        emit newPlayer(_name, p , 0);\n        return true;\n        \n\n    }\n\n\n}",
  "sourcePath": "/Users/mac_marco/ETHRoulette/contracts/Profile.sol",
  "compiler": {
    "name": "solc",
    "version": "0.8.19+commit.7dd6d404.Emscripten.clang"
  },
  "schemaVersion": "3.4.16",
  "updatedAt": "2024-02-01T10:44:00.834Z",
  "networkType": "ethereum",
  "devdoc": {
    "kind": "dev",
    "methods": {},
    "version": 1
  },
  "userdoc": {
    "kind": "user",
    "methods": {},
    "version": 1
  }
}