{
  "contractName": "Profile",
  "abi": [
    {
      "inputs": [],
      "stateMutability": "payable",
      "type": "constructor",
      "payable": true
    },
    {
      "inputs": [],
      "name": "someEther",
      "outputs": [
        {
          "internalType": "bool",
          "name": "",
          "type": "bool"
        }
      ],
      "stateMutability": "payable",
      "type": "function",
      "payable": true
    },
    {
      "inputs": [],
      "name": "getStato",
      "outputs": [
        {
          "internalType": "uint256",
          "name": "",
          "type": "uint256"
        },
        {
          "internalType": "uint256",
          "name": "",
          "type": "uint256"
        }
      ],
      "stateMutability": "view",
      "type": "function",
      "constant": true
    },
    {
      "inputs": [],
      "name": "cashOut",
      "outputs": [],
      "stateMutability": "nonpayable",
      "type": "function"
    }
  ],
  "bytecode": "0x6080604052670de0b6b3a764000060005530600160006101000a81548173ffffffffffffffffffffffffffffffffffffffff021916908373ffffffffffffffffffffffffffffffffffffffff16021790555033600260006101000a81548173ffffffffffffffffffffffffffffffffffffffff021916908373ffffffffffffffffffffffffffffffffffffffff160217905550610310806100a16000396000f3fe6080604052600436106100345760003560e01c806371413d3814610039578063793cd71e14610057578063f3bd38fa1461006e575b600080fd5b61004161009a565b60405161004e919061017a565b60405180910390f35b34801561006357600080fd5b5061006c6100e6565b005b34801561007a57600080fd5b5061008361013d565b6040516100919291906101ae565b60405180910390f35b6000805434146100df576040517f08c379a00000000000000000000000000000000000000000000000000000000081526004016100d69061025a565b60405180910390fd5b6001905090565b60003390508073ffffffffffffffffffffffffffffffffffffffff166108fc670de0b6b3a76400009081150290604051600060405180830381858888f19350505050158015610139573d6000803e3d6000fd5b5050565b600080670de0b6b3a76400004761015491906102a9565b600054915091509091565b60008115159050919050565b6101748161015f565b82525050565b600060208201905061018f600083018461016b565b92915050565b6000819050919050565b6101a881610195565b82525050565b60006040820190506101c3600083018561019f565b6101d0602083018461019f565b9392505050565b600082825260208201905092915050565b7f6e6f6e20736f6e6f207374617469207665727361746920616262617374616e7a60008201527f6120666f6e646900000000000000000000000000000000000000000000000000602082015250565b60006102446027836101d7565b915061024f826101e8565b604082019050919050565b6000602082019050818103600083015261027381610237565b9050919050565b7f4e487b7100000000000000000000000000000000000000000000000000000000600052601260045260246000fd5b60006102b482610195565b91506102bf83610195565b9250826102cf576102ce61027a565b5b82820490509291505056fea2646970667358221220dcae8eacca22e003e911772b3387ea420216e0aea2c255dc41d995bfb4797d9064736f6c63430008130033",
  "immutableReferences": {},
  "source": "// SPDX-License-Identifier: MIT\r\npragma solidity ^0.8.19;\r\n\r\n\r\ncontract Profile {\r\n\r\n    uint256 deposito = 1 * (1 ether);\r\n    address myContract = address(this);\r\n    address payable creator;\r\n\r\n\r\n    constructor () payable{\r\n        creator =payable(msg.sender);\r\n\r\n\r\n    }\r\n\r\n    function someEther() public payable returns(bool){\r\n        require(msg.value == deposito, \"non sono stati versati abbastanza fondi\");\r\n\r\n        \r\n        return true;\r\n    }\r\n\r\n\r\n    function getStato() public view returns(uint, uint ){\r\n        \r\n        return (address(this).balance / 1 ether, deposito);\r\n\r\n    }\r\n\r\n    function cashOut() public {\r\n    address payable player = payable(msg.sender); \r\n\r\n    //Array di giocatori vincenti\r\n    //uint256 amount = winnings[player];\r\n    //require(amount > 0);\r\n    //require(amount <= address(this).balance);\r\n    //winnings[player] = 0;\r\n    player.transfer(1 ether);\r\n  }\r\n\r\n\r\n}",
  "sourcePath": "C:\\Users\\ddefs\\Desktop\\Universit\\ETHRoulette\\ETHRoulette\\contracts\\Profile.sol",
  "compiler": {
    "name": "solc",
    "version": "0.8.19+commit.7dd6d404.Emscripten.clang"
  },
  "schemaVersion": "3.4.16",
  "updatedAt": "2024-01-28T15:51:25.230Z",
  "networkType": "ethereum",
  "devdoc": {
    "kind": "dev",
    "methods": {},
    "version": 1
  },
  "userdoc": {
    "kind": "user",
    "methods": {},
    "version": 1
  }
}