{
  "contractName": "Roulette",
  "abi": [
    {
      "inputs": [],
      "stateMutability": "payable",
      "type": "constructor",
      "payable": true
    },
    {
      "anonymous": false,
      "inputs": [
        {
          "indexed": false,
          "internalType": "uint256",
          "name": "number",
          "type": "uint256"
        }
      ],
      "name": "RandomNumber",
      "type": "event"
    },
    {
      "anonymous": false,
      "inputs": [
        {
          "indexed": false,
          "internalType": "string",
          "name": "",
          "type": "string"
        },
        {
          "indexed": false,
          "internalType": "address",
          "name": "",
          "type": "address"
        }
      ],
      "name": "existingPlayer",
      "type": "event"
    },
    {
      "anonymous": false,
      "inputs": [
        {
          "indexed": false,
          "internalType": "string",
          "name": "",
          "type": "string"
        },
        {
          "indexed": false,
          "internalType": "address",
          "name": "",
          "type": "address"
        },
        {
          "indexed": false,
          "internalType": "uint256",
          "name": "",
          "type": "uint256"
        }
      ],
      "name": "newPlayer",
      "type": "event"
    },
    {
      "inputs": [],
      "name": "addEther",
      "outputs": [
        {
          "internalType": "bool",
          "name": "",
          "type": "bool"
        }
      ],
      "stateMutability": "payable",
      "type": "function",
      "payable": true
    },
    {
      "inputs": [
        {
          "internalType": "string",
          "name": "_name",
          "type": "string"
        }
      ],
      "name": "addPlayer",
      "outputs": [
        {
          "internalType": "bool",
          "name": "",
          "type": "bool"
        }
      ],
      "stateMutability": "nonpayable",
      "type": "function"
    },
    {
      "inputs": [
        {
          "internalType": "address",
          "name": "",
          "type": "address"
        }
      ],
      "name": "addToPlayer",
      "outputs": [
        {
          "internalType": "string",
          "name": "username",
          "type": "string"
        },
        {
          "internalType": "uint256",
          "name": "game",
          "type": "uint256"
        },
        {
          "internalType": "uint256",
          "name": "maxWin",
          "type": "uint256"
        },
        {
          "internalType": "uint256",
          "name": "totalCashFlow",
          "type": "uint256"
        },
        {
          "internalType": "uint256",
          "name": "cashInBank",
          "type": "uint256"
        },
        {
          "internalType": "address",
          "name": "addPlayer",
          "type": "address"
        },
        {
          "internalType": "bool",
          "name": "exist",
          "type": "bool"
        }
      ],
      "stateMutability": "view",
      "type": "function",
      "constant": true
    },
    {
      "inputs": [
        {
          "internalType": "uint256",
          "name": "",
          "type": "uint256"
        }
      ],
      "name": "bets",
      "outputs": [
        {
          "internalType": "address",
          "name": "player",
          "type": "address"
        },
        {
          "internalType": "uint8",
          "name": "betType",
          "type": "uint8"
        },
        {
          "internalType": "uint8",
          "name": "number",
          "type": "uint8"
        },
        {
          "internalType": "uint256",
          "name": "amount",
          "type": "uint256"
        }
      ],
      "stateMutability": "view",
      "type": "function",
      "constant": true
    },
    {
      "inputs": [],
      "name": "cashOut",
      "outputs": [],
      "stateMutability": "nonpayable",
      "type": "function"
    },
    {
      "inputs": [],
      "name": "getStato",
      "outputs": [
        {
          "internalType": "uint256",
          "name": "",
          "type": "uint256"
        },
        {
          "internalType": "uint256",
          "name": "",
          "type": "uint256"
        }
      ],
      "stateMutability": "view",
      "type": "function",
      "constant": true
    },
    {
      "inputs": [],
      "name": "getStatoUtente",
      "outputs": [
        {
          "internalType": "string",
          "name": "",
          "type": "string"
        },
        {
          "internalType": "uint256",
          "name": "",
          "type": "uint256"
        },
        {
          "internalType": "uint256",
          "name": "",
          "type": "uint256"
        },
        {
          "internalType": "uint256",
          "name": "",
          "type": "uint256"
        },
        {
          "internalType": "uint256",
          "name": "",
          "type": "uint256"
        },
        {
          "internalType": "address",
          "name": "",
          "type": "address"
        }
      ],
      "stateMutability": "view",
      "type": "function",
      "constant": true
    },
    {
      "inputs": [
        {
          "internalType": "address",
          "name": "",
          "type": "address"
        }
      ],
      "name": "indirizzoEsiste",
      "outputs": [
        {
          "internalType": "bool",
          "name": "",
          "type": "bool"
        }
      ],
      "stateMutability": "view",
      "type": "function",
      "constant": true
    },
    {
      "inputs": [
        {
          "internalType": "string",
          "name": "_username",
          "type": "string"
        }
      ],
      "name": "setUsername",
      "outputs": [
        {
          "internalType": "string",
          "name": "",
          "type": "string"
        }
      ],
      "stateMutability": "nonpayable",
      "type": "function"
    },
    {
      "inputs": [],
      "name": "getStatus",
      "outputs": [
        {
          "internalType": "uint256",
          "name": "",
          "type": "uint256"
        },
        {
          "internalType": "uint256",
          "name": "",
          "type": "uint256"
        },
        {
          "internalType": "uint256",
          "name": "",
          "type": "uint256"
        },
        {
          "internalType": "uint256",
          "name": "",
          "type": "uint256"
        }
      ],
      "stateMutability": "view",
      "type": "function",
      "constant": true
    },
    {
      "inputs": [
        {
          "internalType": "uint8",
          "name": "number",
          "type": "uint8"
        },
        {
          "internalType": "uint8",
          "name": "betType",
          "type": "uint8"
        }
      ],
      "name": "bet",
      "outputs": [],
      "stateMutability": "payable",
      "type": "function",
      "payable": true
    },
    {
      "inputs": [],
      "name": "getBet",
      "outputs": [
        {
          "internalType": "uint256",
          "name": "",
          "type": "uint256"
        },
        {
          "internalType": "uint8",
          "name": "",
          "type": "uint8"
        },
        {
          "internalType": "uint8",
          "name": "",
          "type": "uint8"
        },
        {
          "internalType": "uint256",
          "name": "",
          "type": "uint256"
        }
      ],
      "stateMutability": "view",
      "type": "function",
      "constant": true
    },
    {
      "inputs": [],
      "name": "spinWheel",
      "outputs": [],
      "stateMutability": "payable",
      "type": "function",
      "payable": true
    }
  ],
  "bytecode": "0x6080604052670de0b6b3a764000060015530600260006101000a81548173ffffffffffffffffffffffffffffffffffffffff021916908373ffffffffffffffffffffffffffffffffffffffff160217905550336000806101000a81548173ffffffffffffffffffffffffffffffffffffffff021916908373ffffffffffffffffffffffffffffffffffffffff1602179055506000600681905550426007819055506040518060c00160405280600260ff168152602001600360ff168152602001600360ff168152602001600260ff168152602001600260ff168152602001602460ff16815250600a906006620000f792919062000173565b506040518060c00160405280600160ff168152602001600260ff168152602001600260ff168152602001600160ff168152602001600160ff168152602001602460ff16815250600b9060066200014f92919062000173565b50662386f26fc10000600581905550671bc16d674ec8000060088190555062000240565b82805482825590600052602060002090601f016020900481019282156200020e5791602002820160005b83821115620001dd57835183826101000a81548160ff021916908360ff16021790555092602001926001016020816000010492830192600103026200019d565b80156200020c5782816101000a81549060ff0219169055600101602081600001049283019260010302620001dd565b505b5090506200021d919062000221565b5090565b5b808211156200023c57600081600090555060010162000222565b5090565b612ae980620002506000396000f3fe6080604052600436106100c25760003560e01c80638894dd2b1161007f578063ed59313a11610059578063ed59313a1461023e578063f3bd38fa1461027b578063f77e8b83146102a7578063fbb83ddb146102e4576100c2565b80638894dd2b146101c7578063cf108a6b146101e5578063d773f46e14610222576100c2565b806315ecef92146100c757806320835e8c146100d157806322af00fa146100ff57806347478d521461013f5780634e69d56014610182578063793cd71e146101b0575b600080fd5b6100cf610314565b005b3480156100dd57600080fd5b506100e6610acc565b6040516100f6949392919061195b565b60405180910390f35b34801561010b57600080fd5b50610126600480360381019061012191906119e0565b610bd3565b6040516101369493929190611a4e565b60405180910390f35b34801561014b57600080fd5b5061016660048036038101906101619190611abf565b610c4d565b6040516101799796959493929190611b97565b60405180910390f35b34801561018e57600080fd5b50610197610d44565b6040516101a79493929190611c0d565b60405180910390f35b3480156101bc57600080fd5b506101c5610db4565b005b6101cf610f62565b6040516101dc9190611c52565b60405180910390f35b3480156101f157600080fd5b5061020c60048036038101906102079190611abf565b610fad565b6040516102199190611c52565b60405180910390f35b61023c60048036038101906102379190611c99565b610fcd565b005b34801561024a57600080fd5b5061026560048036038101906102609190611e0e565b6111b4565b6040516102729190611e57565b60405180910390f35b34801561028757600080fd5b506102906112e4565b60405161029e929190611e79565b60405180910390f35b3480156102b357600080fd5b506102ce60048036038101906102c99190611e0e565b611306565b6040516102db9190611c52565b60405180910390f35b3480156102f057600080fd5b506102f9611569565b60405161030b96959493929190611ea2565b60405180910390f35b6000600c805490501161035c576040517f08c379a000000000000000000000000000000000000000000000000000000000815260040161035390611f56565b60405180910390fd5b60075442116103a0576040517f08c379a000000000000000000000000000000000000000000000000000000000815260040161039790611fe8565b60405180910390fd5b42600781905550600044905060006001436103bb9190612037565b4090506000600c6001600c805490506103d49190612037565b815481106103e5576103e461206b565b5b90600052602060002090600202016040518060800160405290816000820160009054906101000a900473ffffffffffffffffffffffffffffffffffffffff1673ffffffffffffffffffffffffffffffffffffffff1673ffffffffffffffffffffffffffffffffffffffff1681526020016000820160149054906101000a900460ff1660ff1660ff1681526020016000820160159054906101000a900460ff1660ff1660ff1681526020016001820154815250509050600060254285858560200151866000015187604001516040516020016104c596959493929190612164565b6040516020818303038152906040528051906020012060001c6104e89190612203565b905060005b600c80549050811015610a7857600080600c83815481106105115761051061206b565b5b90600052602060002090600202016040518060800160405290816000820160009054906101000a900473ffffffffffffffffffffffffffffffffffffffff1673ffffffffffffffffffffffffffffffffffffffff1673ffffffffffffffffffffffffffffffffffffffff1681526020016000820160149054906101000a900460ff1660ff1660ff1681526020016000820160159054906101000a900460ff1660ff1660ff1681526020016001820154815250509050600084036105f3576005816020015160ff161480156105ec57506000816040015160ff16145b9150610850565b6005816020015160ff16036106135783816040015160ff1614915061084f565b6004816020015160ff160361066b576000816040015160ff16036106445760006002856106409190612203565b1491505b6001816040015160ff16036106665760016002856106629190612203565b1491505b61084e565b6003816020015160ff16036106ad576000816040015160ff160361069157601284111591505b6001816040015160ff16036106a857601384101591505b61084d565b6002816020015160ff1603610711576000816040015160ff16036106d357600c84111591505b6001816040015160ff16036106f657600c841180156106f3575060188411155b91505b6002816040015160ff160361070c576018841191505b61084c565b6001816020015160ff160361078b576000816040015160ff160361074257600160038561073e9190612203565b1491505b6001816040015160ff16036107645760026003856107609190612203565b1491505b6002816040015160ff16036107865760006003856107829190612203565b1491505b61084b565b6000816020015160ff160361084a576000816040015160ff16036107fb57600a841115806107c75750601484101580156107c65750601c8411155b5b156107e35760006002856107db9190612203565b1491506107f6565b60016002856107f29190612203565b1491505b610849565b600a841115806108195750601484101580156108185750601c8411155b5b1561083557600160028561082d9190612203565b149150610848565b60006002856108449190612203565b1491505b5b5b5b5b5b5b5b5b8115610a0457600a816020015160ff16815481106108715761087061206b565b5b90600052602060002090602091828204019190069054906101000a900460ff1660ff166005546108a19190612234565b60096000836000015173ffffffffffffffffffffffffffffffffffffffff1673ffffffffffffffffffffffffffffffffffffffff16815260200190815260200160002060008282546108f39190612276565b92505081905550600160036000836000015173ffffffffffffffffffffffffffffffffffffffff1673ffffffffffffffffffffffffffffffffffffffff16815260200190815260200160002060010160008282546109519190612276565b92505081905550600a816020015160ff16815481106109735761097261206b565b5b90600052602060002090602091828204019190069054906101000a900460ff1660ff166005546109a39190612234565b60036000836000015173ffffffffffffffffffffffffffffffffffffffff1673ffffffffffffffffffffffffffffffffffffffff16815260200190815260200160002060040160008282546109f89190612276565b92505081905550610a63565b600160036000836000015173ffffffffffffffffffffffffffffffffffffffff1673ffffffffffffffffffffffffffffffffffffffff1681526020019081526020016000206001016000828254610a5b9190612276565b925050819055505b50508080610a70906122aa565b9150506104ed565b50600c6000610a879190611894565b60006006819055507fec6cdc8e735e4069f6e89062582f3e5532a8e71373e7ef2962fa916cf2af21f281604051610abe91906122f2565b60405180910390a150505050565b6000806000806000600c8054905090506000600c600183610aed9190612037565b81548110610afe57610afd61206b565b5b90600052602060002090600202016040518060800160405290816000820160009054906101000a900473ffffffffffffffffffffffffffffffffffffffff1673ffffffffffffffffffffffffffffffffffffffff1673ffffffffffffffffffffffffffffffffffffffff1681526020016000820160149054906101000a900460ff1660ff1660ff1681526020016000820160159054906101000a900460ff1660ff1660ff1681526020016001820154815250509050806060015181602001518260400151849550955095509550505090919293565b600c8181548110610be357600080fd5b90600052602060002090600202016000915090508060000160009054906101000a900473ffffffffffffffffffffffffffffffffffffffff16908060000160149054906101000a900460ff16908060000160159054906101000a900460ff16908060010154905084565b6003602052806000526040600020600091509050806000018054610c709061233c565b80601f0160208091040260200160405190810160405280929190818152602001828054610c9c9061233c565b8015610ce95780601f10610cbe57610100808354040283529160200191610ce9565b820191906000526020600020905b815481529060010190602001808311610ccc57829003601f168201915b5050505050908060010154908060020154908060030154908060040154908060050160009054906101000a900473ffffffffffffffffffffffffffffffffffffffff16908060050160149054906101000a900460ff16905087565b600080600080600c80549050600554600c80549050610d639190612234565b600754600960003373ffffffffffffffffffffffffffffffffffffffff1673ffffffffffffffffffffffffffffffffffffffff16815260200190815260200160002054935093509350935090919293565b6000600360003373ffffffffffffffffffffffffffffffffffffffff1673ffffffffffffffffffffffffffffffffffffffff1681526020019081526020016000206004015411610e39576040517f08c379a0000000000000000000000000000000000000000000000000000000008152600401610e30906123b9565b60405180910390fd5b47600360003373ffffffffffffffffffffffffffffffffffffffff1673ffffffffffffffffffffffffffffffffffffffff168152602001908152602001600020600401541115610ebe576040517f08c379a0000000000000000000000000000000000000000000000000000000008152600401610eb59061244b565b60405180910390fd5b60003390508073ffffffffffffffffffffffffffffffffffffffff166108fc670de0b6b3a7640000600360003373ffffffffffffffffffffffffffffffffffffffff1673ffffffffffffffffffffffffffffffffffffffff16815260200190815260200160002060040154610f339190612234565b9081150290604051600060405180830381858888f19350505050158015610f5e573d6000803e3d6000fd5b5050565b6000803411610fa6576040517f08c379a0000000000000000000000000000000000000000000000000000000008152600401610f9d906124dd565b60405180910390fd5b6001905090565b60046020528060005260406000206000915054906101000a900460ff1681565b60008160ff1610158015610fe5575060058160ff1611155b611024576040517f08c379a000000000000000000000000000000000000000000000000000000000815260040161101b9061256f565b60405180910390fd5b60008260ff16101580156110745750600b8160ff168154811061104a5761104961206b565b5b90600052602060002090602091828204019190069054906101000a900460ff1660ff168260ff1611155b6110b3576040517f08c379a00000000000000000000000000000000000000000000000000000000081526004016110aa90612601565b60405180910390fd5b600c60405180608001604052803373ffffffffffffffffffffffffffffffffffffffff1681526020018360ff1681526020018460ff16815260200134815250908060018154018082558091505060019003906000526020600020906002020160009091909190915060008201518160000160006101000a81548173ffffffffffffffffffffffffffffffffffffffff021916908373ffffffffffffffffffffffffffffffffffffffff16021790555060208201518160000160146101000a81548160ff021916908360ff16021790555060408201518160000160156101000a81548160ff021916908360ff1602179055506060820151816001015550505050565b60603373ffffffffffffffffffffffffffffffffffffffff16600360003373ffffffffffffffffffffffffffffffffffffffff1673ffffffffffffffffffffffffffffffffffffffff16815260200190815260200160002060050160009054906101000a900473ffffffffffffffffffffffffffffffffffffffff1673ffffffffffffffffffffffffffffffffffffffff1614611286576040517f08c379a000000000000000000000000000000000000000000000000000000000815260040161127d90612693565b60405180910390fd5b600082905080600360003373ffffffffffffffffffffffffffffffffffffffff1673ffffffffffffffffffffffffffffffffffffffff16815260200190815260200160002060000190816112da919061285f565b5080915050919050565b600080670de0b6b3a7640000476112fb9190612931565b600154915091509091565b6000801515600360003373ffffffffffffffffffffffffffffffffffffffff1673ffffffffffffffffffffffffffffffffffffffff16815260200190815260200160002060050160149054906101000a900460ff1615151461139d576040517f08c379a0000000000000000000000000000000000000000000000000000000008152600401611394906129ae565b60405180910390fd5b60008251116113e1576040517f08c379a00000000000000000000000000000000000000000000000000000000081526004016113d890612a1a565b60405180910390fd5b600033905060006040518060e00160405280858152602001600081526020016000815260200160008152602001600081526020018373ffffffffffffffffffffffffffffffffffffffff16815260200160011515815250905080600360008473ffffffffffffffffffffffffffffffffffffffff1673ffffffffffffffffffffffffffffffffffffffff168152602001908152602001600020600082015181600001908161148f919061285f565b506020820151816001015560408201518160020155606082015181600301556080820151816004015560a08201518160050160006101000a81548173ffffffffffffffffffffffffffffffffffffffff021916908373ffffffffffffffffffffffffffffffffffffffff16021790555060c08201518160050160146101000a81548160ff0219169083151502179055509050507f05a7620959db0b35c22d0875ba544f7330a46562081bb2e335092819025686578483600060405161155693929190612a75565b60405180910390a1600192505050919050565b606060008060008060003373ffffffffffffffffffffffffffffffffffffffff16600360003373ffffffffffffffffffffffffffffffffffffffff1673ffffffffffffffffffffffffffffffffffffffff16815260200190815260200160002060050160009054906101000a900473ffffffffffffffffffffffffffffffffffffffff1673ffffffffffffffffffffffffffffffffffffffff1614611643576040517f08c379a000000000000000000000000000000000000000000000000000000000815260040161163a90612693565b60405180910390fd5b600360003373ffffffffffffffffffffffffffffffffffffffff1673ffffffffffffffffffffffffffffffffffffffff168152602001908152602001600020600001600360003373ffffffffffffffffffffffffffffffffffffffff1673ffffffffffffffffffffffffffffffffffffffff16815260200190815260200160002060010154600360003373ffffffffffffffffffffffffffffffffffffffff1673ffffffffffffffffffffffffffffffffffffffff16815260200190815260200160002060020154600360003373ffffffffffffffffffffffffffffffffffffffff1673ffffffffffffffffffffffffffffffffffffffff16815260200190815260200160002060030154600360003373ffffffffffffffffffffffffffffffffffffffff1673ffffffffffffffffffffffffffffffffffffffff16815260200190815260200160002060040154600360003373ffffffffffffffffffffffffffffffffffffffff1673ffffffffffffffffffffffffffffffffffffffff16815260200190815260200160002060050160009054906101000a900473ffffffffffffffffffffffffffffffffffffffff168580546118009061233c565b80601f016020809104026020016040519081016040528092919081815260200182805461182c9061233c565b80156118795780601f1061184e57610100808354040283529160200191611879565b820191906000526020600020905b81548152906001019060200180831161185c57829003601f168201915b50505050509550955095509550955095509550909192939495565b50805460008255600202906000526020600020908101906118b591906118b8565b50565b5b8082111561192257600080820160006101000a81549073ffffffffffffffffffffffffffffffffffffffff02191690556000820160146101000a81549060ff02191690556000820160156101000a81549060ff02191690556001820160009055506002016118b9565b5090565b6000819050919050565b61193981611926565b82525050565b600060ff82169050919050565b6119558161193f565b82525050565b60006080820190506119706000830187611930565b61197d602083018661194c565b61198a604083018561194c565b6119976060830184611930565b95945050505050565b6000604051905090565b600080fd5b600080fd5b6119bd81611926565b81146119c857600080fd5b50565b6000813590506119da816119b4565b92915050565b6000602082840312156119f6576119f56119aa565b5b6000611a04848285016119cb565b91505092915050565b600073ffffffffffffffffffffffffffffffffffffffff82169050919050565b6000611a3882611a0d565b9050919050565b611a4881611a2d565b82525050565b6000608082019050611a636000830187611a3f565b611a70602083018661194c565b611a7d604083018561194c565b611a8a6060830184611930565b95945050505050565b611a9c81611a2d565b8114611aa757600080fd5b50565b600081359050611ab981611a93565b92915050565b600060208284031215611ad557611ad46119aa565b5b6000611ae384828501611aaa565b91505092915050565b600081519050919050565b600082825260208201905092915050565b60005b83811015611b26578082015181840152602081019050611b0b565b60008484015250505050565b6000601f19601f8301169050919050565b6000611b4e82611aec565b611b588185611af7565b9350611b68818560208601611b08565b611b7181611b32565b840191505092915050565b60008115159050919050565b611b9181611b7c565b82525050565b600060e0820190508181036000830152611bb1818a611b43565b9050611bc06020830189611930565b611bcd6040830188611930565b611bda6060830187611930565b611be76080830186611930565b611bf460a0830185611a3f565b611c0160c0830184611b88565b98975050505050505050565b6000608082019050611c226000830187611930565b611c2f6020830186611930565b611c3c6040830185611930565b611c496060830184611930565b95945050505050565b6000602082019050611c676000830184611b88565b92915050565b611c768161193f565b8114611c8157600080fd5b50565b600081359050611c9381611c6d565b92915050565b60008060408385031215611cb057611caf6119aa565b5b6000611cbe85828601611c84565b9250506020611ccf85828601611c84565b9150509250929050565b600080fd5b600080fd5b7f4e487b7100000000000000000000000000000000000000000000000000000000600052604160045260246000fd5b611d1b82611b32565b810181811067ffffffffffffffff82111715611d3a57611d39611ce3565b5b80604052505050565b6000611d4d6119a0565b9050611d598282611d12565b919050565b600067ffffffffffffffff821115611d7957611d78611ce3565b5b611d8282611b32565b9050602081019050919050565b82818337600083830152505050565b6000611db1611dac84611d5e565b611d43565b905082815260208101848484011115611dcd57611dcc611cde565b5b611dd8848285611d8f565b509392505050565b600082601f830112611df557611df4611cd9565b5b8135611e05848260208601611d9e565b91505092915050565b600060208284031215611e2457611e236119aa565b5b600082013567ffffffffffffffff811115611e4257611e416119af565b5b611e4e84828501611de0565b91505092915050565b60006020820190508181036000830152611e718184611b43565b905092915050565b6000604082019050611e8e6000830185611930565b611e9b6020830184611930565b9392505050565b600060c0820190508181036000830152611ebc8189611b43565b9050611ecb6020830188611930565b611ed86040830187611930565b611ee56060830186611930565b611ef26080830185611930565b611eff60a0830184611a3f565b979650505050505050565b7f6e6f6e20636920736f6e6f2067696f6361746500000000000000000000000000600082015250565b6000611f40601383611af7565b9150611f4b82611f0a565b602082019050919050565b60006020820190508181036000830152611f6f81611f33565b9050919050565b7f6e6f6e2065207061737361746f20616262617374616e7a612074656d706f207060008201527f657220706f74657220726967696f636172650000000000000000000000000000602082015250565b6000611fd2603283611af7565b9150611fdd82611f76565b604082019050919050565b6000602082019050818103600083015261200181611fc5565b9050919050565b7f4e487b7100000000000000000000000000000000000000000000000000000000600052601160045260246000fd5b600061204282611926565b915061204d83611926565b925082820390508181111561206557612064612008565b5b92915050565b7f4e487b7100000000000000000000000000000000000000000000000000000000600052603260045260246000fd5b6000819050919050565b6120b56120b082611926565b61209a565b82525050565b6000819050919050565b6000819050919050565b6120e06120db826120bb565b6120c5565b82525050565b60008160f81b9050919050565b60006120fe826120e6565b9050919050565b6121166121118261193f565b6120f3565b82525050565b60008160601b9050919050565b60006121348261211c565b9050919050565b600061214682612129565b9050919050565b61215e61215982611a2d565b61213b565b82525050565b600061217082896120a4565b60208201915061218082886120a4565b60208201915061219082876120cf565b6020820191506121a08286612105565b6001820191506121b0828561214d565b6014820191506121c08284612105565b600182019150819050979650505050505050565b7f4e487b7100000000000000000000000000000000000000000000000000000000600052601260045260246000fd5b600061220e82611926565b915061221983611926565b925082612229576122286121d4565b5b828206905092915050565b600061223f82611926565b915061224a83611926565b925082820261225881611926565b9150828204841483151761226f5761226e612008565b5b5092915050565b600061228182611926565b915061228c83611926565b92508282019050808211156122a4576122a3612008565b5b92915050565b60006122b582611926565b91507fffffffffffffffffffffffffffffffffffffffffffffffffffffffffffffffff82036122e7576122e6612008565b5b600182019050919050565b60006020820190506123076000830184611930565b92915050565b7f4e487b7100000000000000000000000000000000000000000000000000000000600052602260045260246000fd5b6000600282049050600182168061235457607f821691505b6020821081036123675761236661230d565b5b50919050565b7f6e6f6e2068616920736f6c6469206461207072656c6576617265000000000000600082015250565b60006123a3601a83611af7565b91506123ae8261236d565b602082019050919050565b600060208201905081810360008301526123d281612396565b9050919050565b7f6e6f6e20736920736f6e6f20616262617374616e7a6120666f6e7369206e656c60008201527f20636f6e74726174746f20706572207061676172746900000000000000000000602082015250565b6000612435603683611af7565b9150612440826123d9565b604082019050919050565b6000602082019050818103600083015261246481612428565b9050919050565b7f6e6f6e2070756f69207472617366657269726520756e61207175616e7469746160008201527f2070617269206120300000000000000000000000000000000000000000000000602082015250565b60006124c7602983611af7565b91506124d28261246b565b604082019050919050565b600060208201905081810360008301526124f6816124ba565b9050919050565b7f6e6f6e2068616920696e73657269746f206c61206769757374612067696f636160008201527f7461000000000000000000000000000000000000000000000000000000000000602082015250565b6000612559602283611af7565b9150612564826124fd565b604082019050919050565b600060208201905081810360008301526125888161254c565b9050919050565b7f636865206e756d65726f2064692067696f63617461206861692073656c657a6960008201527f6f6e61746f3f0000000000000000000000000000000000000000000000000000602082015250565b60006125eb602683611af7565b91506125f68261258f565b604082019050919050565b6000602082019050818103600083015261261a816125de565b9050919050565b7f4c27696e646972697a7a6f206e6f6e20657369737465206e656c206d6170706960008201527f6e67206f206e6f6e20636f6d62616369616e6f00000000000000000000000000602082015250565b600061267d603383611af7565b915061268882612621565b604082019050919050565b600060208201905081810360008301526126ac81612670565b9050919050565b60008190508160005260206000209050919050565b60006020601f8301049050919050565b600082821b905092915050565b6000600883026127157fffffffffffffffffffffffffffffffffffffffffffffffffffffffffffffffff826126d8565b61271f86836126d8565b95508019841693508086168417925050509392505050565b6000819050919050565b600061275c61275761275284611926565b612737565b611926565b9050919050565b6000819050919050565b61277683612741565b61278a61278282612763565b8484546126e5565b825550505050565b600090565b61279f612792565b6127aa81848461276d565b505050565b5b818110156127ce576127c3600082612797565b6001810190506127b0565b5050565b601f821115612813576127e4816126b3565b6127ed846126c8565b810160208510156127fc578190505b612810612808856126c8565b8301826127af565b50505b505050565b600082821c905092915050565b600061283660001984600802612818565b1980831691505092915050565b600061284f8383612825565b9150826002028217905092915050565b61286882611aec565b67ffffffffffffffff81111561288157612880611ce3565b5b61288b825461233c565b6128968282856127d2565b600060209050601f8311600181146128c957600084156128b7578287015190505b6128c18582612843565b865550612929565b601f1984166128d7866126b3565b60005b828110156128ff578489015182556001820191506020850194506020810190506128da565b8683101561291c5784890151612918601f891682612825565b8355505b6001600288020188555050505b505050505050565b600061293c82611926565b915061294783611926565b925082612957576129566121d4565b5b828204905092915050565b7f47696f6361746f726520676961207265676973747261746f0000000000000000600082015250565b6000612998601883611af7565b91506129a382612962565b602082019050919050565b600060208201905081810360008301526129c78161298b565b9050919050565b7f4e6f6d6520696e73657269746f206e6f6e2076616c69646f0000000000000000600082015250565b6000612a04601883611af7565b9150612a0f826129ce565b602082019050919050565b60006020820190508181036000830152612a33816129f7565b9050919050565b6000819050919050565b6000612a5f612a5a612a5584612a3a565b612737565b611926565b9050919050565b612a6f81612a44565b82525050565b60006060820190508181036000830152612a8f8186611b43565b9050612a9e6020830185611a3f565b612aab6040830184612a66565b94935050505056fea2646970667358221220b98caf062f6042619839f9bb84d696b8535dee008253472f49fe3c7a07c1571b64736f6c63430008130033",
  "immutableReferences": {},
  "source": "// SPDX-License-Identifier: MIT\r\nimport \"./Profile.sol\";\r\npragma solidity ^0.8.19;\r\n\r\n\r\ncontract Roulette is Profile{\r\n  \r\n  uint betAmount;\r\n  uint necessaryBalance;\r\n  uint nextRoundTimestamp;\r\n  uint256 maxAmountAllowedInTheBank;\r\n  mapping (address => uint256) winnings;\r\n  uint8[] payouts;\r\n  uint8[] numberRange;\r\n  \r\n  /*\r\n    BetTypes are as follow:\r\n      0: color\r\n      1: column\r\n      2: dozen\r\n      3: eighteen\r\n      4: modulus\r\n      5: number\r\n      \r\n    Depending on the BetType, number will be:\r\n      color: 0 for black, 1 for red\r\n      column: 0 for left, 1 for middle, 2 for right\r\n      dozen: 0 for first, 1 for second, 2 for third\r\n      eighteen: 0 for low, 1 for high\r\n      modulus: 0 for even, 1 for odd\r\n      number: number\r\n  */\r\n  \r\n  struct Bet {\r\n    address player;\r\n    uint8 betType;\r\n    uint8 number;\r\n    uint amount;\r\n  }\r\n  Bet[] public bets;\r\n  \r\n  constructor() payable {\r\n    necessaryBalance = 0;\r\n    nextRoundTimestamp = block.timestamp;\r\n    payouts = [2,3,3,2,2,36];\r\n    numberRange = [1,2,2,1,1,36];\r\n    betAmount = 10000000000000000; /* 0.01 ether */\r\n    maxAmountAllowedInTheBank = 2000000000000000000; /* 2 ether */\r\n  }\r\n\r\n  event RandomNumber(uint256 number);\r\n  \r\n  function getStatus() public view returns(uint, uint, uint, uint) {\r\n    return (\r\n      bets.length,             // number of active bets\r\n      bets.length * betAmount, // value of active bets\r\n      nextRoundTimestamp,      // when can we play again\r\n      winnings[msg.sender]     // winnings of player\r\n    ); \r\n  }\r\n\r\n\r\n  function bet(uint8 number, uint8 betType) payable public{\r\n    /* \r\n       A bet is valid when:\r\n       1 - the value of the bet is correct (=betAmount)\r\n       2 - betType is known (between 0 and 5)\r\n       3 - the option betted is valid (don't bet on 37!)\r\n       4 - the bank has sufficient funds to pay the bet\r\n    */\r\n    //require(msg.value == betAmount, \"non hai versato abbastanza fondi\");                               // 1\r\n   // require(amount>=10000000000000000,\"per ogni puntata almeno 0.01eth\");\r\n    require(betType >= 0 && betType <= 5, \"non hai inserito la giusta giocata\");                         // 2\r\n    require(number >= 0 && number <= numberRange[betType], \"che numero di giocata hai selezionato?\");        // 3\r\n   \r\n   // uint payoutForThisBet = payouts[betType] * msg.value; \r\n  //  uint provisionalBalance = necessaryBalance + payoutForThisBet;\r\n  // require(provisionalBalance < address(this).balance, \"la banca non ha abbastanza fondi da darti se vincessi\");           // 4\r\n    /* we are good to go */\r\n    //necessaryBalance += payoutForThisBet;\r\n\r\n\r\n    bets.push(Bet({\r\n      amount: msg.value,\r\n      betType: betType,\r\n      player: msg.sender,\r\n      number: number\r\n    }));\r\n\r\n  }\r\n\r\n\r\n//prova per valutare la corretta esecuzione della funzione bet\r\n function getBet() public view returns(uint,uint8,uint8,uint){\r\n  uint lung= bets.length;\r\n  Bet memory b= bets[lung-1];\r\n       return (\r\n        b.amount,\r\n        b.betType,\r\n        b.number,\r\n        lung\r\n       );\r\n    \r\n  }\r\n\r\n  function spinWheel() public payable{\r\n    /* are there any bets? */\r\n    require(bets.length > 0, \"non ci sono giocate\");\r\n    //require(msg.value > 10000000000000000 wei, \"non sono stati versati abbastanza fondi \");  \r\n    /* are we allowed to spin the wheel? */\r\n    require(block.timestamp > nextRoundTimestamp, \"non e passato abbastanza tempo per poter rigiocare\");\r\n    /* next time we are allowed to spin the wheel again */\r\n    nextRoundTimestamp = block.timestamp;\r\n    /* calculate 'random' number */\r\n    uint diff = block.difficulty;\r\n    bytes32 hash = blockhash(block.number-1);\r\n    Bet memory lb = bets[bets.length-1];\r\n    uint number = uint(keccak256(abi.encodePacked(block.timestamp, diff, hash, lb.betType, lb.player, lb.number))) % 37;\r\n    /* check every bet for this number */\r\n    for (uint i = 0; i < bets.length; i++) {\r\n      bool won = false;\r\n      Bet memory b = bets[i];\r\n      if (number == 0) {\r\n        won = (b.betType == 5 && b.number == 0);                   /* bet on 0 */\r\n      } else {\r\n        if (b.betType == 5) { \r\n          won = (b.number == number);                              /* bet on number */\r\n        } else if (b.betType == 4) {\r\n          if (b.number == 0) won = (number % 2 == 0);              /* bet on even */\r\n          if (b.number == 1) won = (number % 2 == 1);              /* bet on odd */\r\n        } else if (b.betType == 3) {            \r\n          if (b.number == 0) won = (number <= 18);                 /* bet on low 18s */\r\n          if (b.number == 1) won = (number >= 19);                 /* bet on high 18s */\r\n        } else if (b.betType == 2) {                               \r\n          if (b.number == 0) won = (number <= 12);                 /* bet on 1st dozen */\r\n          if (b.number == 1) won = (number > 12 && number <= 24);  /* bet on 2nd dozen */\r\n          if (b.number == 2) won = (number > 24);                  /* bet on 3rd dozen */\r\n        } else if (b.betType == 1) {               \r\n          if (b.number == 0) won = (number % 3 == 1);              /* bet on left column */\r\n          if (b.number == 1) won = (number % 3 == 2);              /* bet on middle column */\r\n          if (b.number == 2) won = (number % 3 == 0);              /* bet on right column */\r\n        } else if (b.betType == 0) {\r\n          if (b.number == 0) {                                     /* bet on black */\r\n            if (number <= 10 || (number >= 20 && number <= 28)) {\r\n              won = (number % 2 == 0);\r\n            } else {\r\n              won = (number % 2 == 1);\r\n            }\r\n          } else {                                                 /* bet on red */\r\n            if (number <= 10 || (number >= 20 && number <= 28)) {\r\n              won = (number % 2 == 1);\r\n            } else {\r\n              won = (number % 2 == 0);\r\n            }\r\n          }\r\n        }\r\n      }\r\n      /* if winning bet, add to player winnings balance */\r\n      if (won) {\r\n        winnings[b.player] += betAmount * payouts[b.betType];\r\n        //aggiorniamo le giocate del giocatore;\r\n        addToPlayer[b.player].game +=1;\r\n        addToPlayer[b.player].cashInBank += betAmount * payouts[b.betType];\r\n      }else{\r\n        addToPlayer[b.player].game +=1;\r\n      }\r\n    }\r\n    /* delete all bets */\r\n    //bets.length = 0;\r\n    delete bets;\r\n\r\n    /* reset necessaryBalance */\r\n    necessaryBalance = 0;\r\n\r\n    /* returns 'random' number to UI */\r\n    emit RandomNumber(number);\r\n  }\r\n\r\n  /*\r\n\r\n  function cashOut() public {\r\n    address payable player = payable(msg.sender);\r\n    uint256 amount = winnings[player];\r\n    require(amount > 0);\r\n    require(amount <= address(this).balance);\r\n    winnings[player] = 0;\r\n    player.transfer(amount);\r\n  }\r\n  \r\n  function takeProfits() internal {\r\n    uint amount = address(this).balance - maxAmountAllowedInTheBank;\r\n    if (amount > 0) creator.transfer(amount);\r\n  }\r\n  \r\n  function creatorKill() public {\r\n    require(msg.sender == creator);\r\n    \r\n    creator.transfer(address(this).balance);\r\n    //selfdestruct(creator);\r\n  }\r\n  */\r\n \r\n}",
  "sourcePath": "/Users/mac_marco/ETHRoulette/contracts/Roulette.sol",
  "compiler": {
    "name": "solc",
    "version": "0.8.19+commit.7dd6d404.Emscripten.clang"
  },
  "schemaVersion": "3.4.16",
  "updatedAt": "2024-02-01T10:44:00.825Z",
  "networkType": "ethereum",
  "devdoc": {
    "kind": "dev",
    "methods": {},
    "version": 1
  },
  "userdoc": {
    "kind": "user",
    "methods": {},
    "version": 1
  }
}