{
  "contractName": "Roulette",
  "abi": [
    {
      "inputs": [],
      "stateMutability": "payable",
      "type": "constructor",
      "payable": true
    },
    {
      "inputs": [
        {
          "internalType": "uint256",
          "name": "",
          "type": "uint256"
        }
      ],
      "name": "bets",
      "outputs": [
        {
          "internalType": "address",
          "name": "player",
          "type": "address"
        },
        {
          "internalType": "uint8",
          "name": "betType",
          "type": "uint8"
        },
        {
          "internalType": "uint8",
          "name": "number",
          "type": "uint8"
        }
      ],
      "stateMutability": "view",
      "type": "function",
      "constant": true
    },
    {
      "inputs": [],
      "name": "getStatus",
      "outputs": [
        {
          "internalType": "uint256",
          "name": "",
          "type": "uint256"
        }
      ],
      "stateMutability": "view",
      "type": "function",
      "constant": true
    },
    {
      "inputs": [
        {
          "internalType": "uint8",
          "name": "number",
          "type": "uint8"
        },
        {
          "internalType": "uint8",
          "name": "betType",
          "type": "uint8"
        }
      ],
      "name": "bet",
      "outputs": [],
      "stateMutability": "payable",
      "type": "function",
      "payable": true
    }
  ],
  "bytecode": "0x608060405233600260006101000a81548173ffffffffffffffffffffffffffffffffffffffff021916908373ffffffffffffffffffffffffffffffffffffffff16021790555060006001819055506040518060c00160405280600260ff168152602001600360ff168152602001600360ff168152602001600260ff168152602001600260ff168152602001602460ff1681525060049060066100a292919061010d565b506040518060c00160405280600160ff168152602001600260ff168152602001600260ff168152602001600160ff168152602001600160ff168152602001602460ff1681525060059060066100f892919061010d565b50670de0b6b3a76400006000819055506101d1565b82805482825590600052602060002090601f016020900481019282156101a35791602002820160005b8382111561017457835183826101000a81548160ff021916908360ff1602179055509260200192600101602081600001049283019260010302610136565b80156101a15782816101000a81549060ff0219169055600101602081600001049283019260010302610174565b505b5090506101b091906101b4565b5090565b5b808211156101cd5760008160009055506001016101b5565b5090565b6104a4806101e06000396000f3fe6080604052600436106100345760003560e01c806322af00fa146100395780634e69d56014610078578063d773f46e146100a3575b600080fd5b34801561004557600080fd5b50610060600480360381019061005b91906102e8565b6100bf565b60405161006f93929190610372565b60405180910390f35b34801561008457600080fd5b5061008d61012f565b60405161009a91906103b8565b60405180910390f35b6100bd60048036038101906100b891906103ff565b610137565b005b600681815481106100cf57600080fd5b906000526020600020016000915090508060000160009054906101000a900473ffffffffffffffffffffffffffffffffffffffff16908060000160149054906101000a900460ff16908060000160159054906101000a900460ff16905083565b600047905090565b60005434101561014657600080fd5b60008160ff161015801561015e575060058160ff1611155b61016757600080fd5b60008260ff16101580156101b7575060058160ff168154811061018d5761018c61043f565b5b90600052602060002090602091828204019190069054906101000a900460ff1660ff168260ff1611155b6101c057600080fd5b600660405180606001604052803373ffffffffffffffffffffffffffffffffffffffff1681526020018360ff1681526020018460ff168152509080600181540180825580915050600190039060005260206000200160009091909190915060008201518160000160006101000a81548173ffffffffffffffffffffffffffffffffffffffff021916908373ffffffffffffffffffffffffffffffffffffffff16021790555060208201518160000160146101000a81548160ff021916908360ff16021790555060408201518160000160156101000a81548160ff021916908360ff16021790555050505050565b600080fd5b6000819050919050565b6102c5816102b2565b81146102d057600080fd5b50565b6000813590506102e2816102bc565b92915050565b6000602082840312156102fe576102fd6102ad565b5b600061030c848285016102d3565b91505092915050565b600073ffffffffffffffffffffffffffffffffffffffff82169050919050565b600061034082610315565b9050919050565b61035081610335565b82525050565b600060ff82169050919050565b61036c81610356565b82525050565b60006060820190506103876000830186610347565b6103946020830185610363565b6103a16040830184610363565b949350505050565b6103b2816102b2565b82525050565b60006020820190506103cd60008301846103a9565b92915050565b6103dc81610356565b81146103e757600080fd5b50565b6000813590506103f9816103d3565b92915050565b60008060408385031215610416576104156102ad565b5b6000610424858286016103ea565b9250506020610435858286016103ea565b9150509250929050565b7f4e487b7100000000000000000000000000000000000000000000000000000000600052603260045260246000fdfea26469706673582212209d2da2ac10db5119ad25f79bc197a2a05c68b58af014912ae9fef289cab19b9a64736f6c63430008130033",
  "immutableReferences": {},
  "source": "// SPDX-License-Identifier: MIT\r\npragma solidity ^0.8.19;\r\n\r\ncontract Roulette {\r\n    uint betAmount;\r\n    uint necessaryBalance;\r\n    address payable owner;\r\n    mapping(address => uint256) winnings;\r\n    uint8[] payouts;\r\n    uint8[] numberRange;\r\n\r\n    struct Bet {\r\n        address player;\r\n        uint8 betType;\r\n        uint8 number;\r\n    }\r\n    Bet[] public bets;\r\n\r\n    constructor() payable {\r\n        owner = payable(msg.sender);\r\n        necessaryBalance = 0;\r\n        payouts = [2, 3, 3, 2, 2, 36];\r\n        numberRange = [1, 2, 2, 1, 1, 36];\r\n        betAmount = 1 ether;\r\n    }\r\n\r\n    function getStatus() public view returns (uint) {\r\n        return\r\n            address(this).balance// roulette balance\r\n        ;\r\n    }\r\n\r\n   // function addEther() public payable {}\r\n   //cazz\r\n\r\n    function bet(uint8 number, uint8 betType) public payable {\r\n        require(msg.value >= betAmount);\r\n        require(betType >= 0 && betType <= 5); // 2\r\n        require(number >= 0 && number <= numberRange[betType]);\r\n        bets.push(Bet({betType: betType, player: msg.sender, number: number}));\r\n        \r\n    }\r\n}",
  "sourcePath": "C:\\Users\\ddefs\\Desktop\\Universit\\ETHRoulette\\ETHRoulette\\contracts\\Roulette.sol",
  "compiler": {
    "name": "solc",
    "version": "0.8.19+commit.7dd6d404.Emscripten.clang"
  },
  "schemaVersion": "3.4.16",
  "updatedAt": "2024-01-17T17:20:04.353Z",
  "networkType": "ethereum",
  "devdoc": {
    "kind": "dev",
    "methods": {},
    "version": 1
  },
  "userdoc": {
    "kind": "user",
    "methods": {},
    "version": 1
  }
}