{
  "contractName": "Roulette",
  "abi": [
    {
      "inputs": [],
      "stateMutability": "payable",
      "type": "constructor",
      "payable": true
    },
    {
      "anonymous": false,
      "inputs": [
        {
          "indexed": false,
          "internalType": "uint256",
          "name": "number",
          "type": "uint256"
        }
      ],
      "name": "RandomNumber",
      "type": "event"
    },
    {
      "anonymous": false,
      "inputs": [
        {
          "indexed": false,
          "internalType": "string",
          "name": "",
          "type": "string"
        },
        {
          "indexed": false,
          "internalType": "address",
          "name": "",
          "type": "address"
        }
      ],
      "name": "existingPlayer",
      "type": "event"
    },
    {
      "anonymous": false,
      "inputs": [
        {
          "indexed": false,
          "internalType": "string",
          "name": "",
          "type": "string"
        },
        {
          "indexed": false,
          "internalType": "address",
          "name": "",
          "type": "address"
        },
        {
          "indexed": false,
          "internalType": "uint256",
          "name": "",
          "type": "uint256"
        }
      ],
      "name": "newPlayer",
      "type": "event"
    },
    {
      "inputs": [],
      "name": "addEther",
      "outputs": [
        {
          "internalType": "bool",
          "name": "",
          "type": "bool"
        }
      ],
      "stateMutability": "payable",
      "type": "function",
      "payable": true
    },
    {
      "inputs": [
        {
          "internalType": "string",
          "name": "_name",
          "type": "string"
        }
      ],
      "name": "addPlayer",
      "outputs": [
        {
          "internalType": "bool",
          "name": "",
          "type": "bool"
        }
      ],
      "stateMutability": "nonpayable",
      "type": "function"
    },
    {
      "inputs": [
        {
          "internalType": "address",
          "name": "",
          "type": "address"
        }
      ],
      "name": "addToPlayer",
      "outputs": [
        {
          "internalType": "string",
          "name": "username",
          "type": "string"
        },
        {
          "internalType": "uint256",
          "name": "game",
          "type": "uint256"
        },
        {
          "internalType": "uint256",
          "name": "maxWin",
          "type": "uint256"
        },
        {
          "internalType": "uint256",
          "name": "totalCashFlow",
          "type": "uint256"
        },
        {
          "internalType": "uint256",
          "name": "cashInBank",
          "type": "uint256"
        },
        {
          "internalType": "address",
          "name": "addPlayer",
          "type": "address"
        },
        {
          "internalType": "bool",
          "name": "exist",
          "type": "bool"
        }
      ],
      "stateMutability": "view",
      "type": "function",
      "constant": true
    },
    {
      "inputs": [
        {
          "internalType": "uint256",
          "name": "",
          "type": "uint256"
        }
      ],
      "name": "bets",
      "outputs": [
        {
          "internalType": "address",
          "name": "player",
          "type": "address"
        },
        {
          "internalType": "uint8",
          "name": "betType",
          "type": "uint8"
        },
        {
          "internalType": "uint8",
          "name": "number",
          "type": "uint8"
        },
        {
          "internalType": "uint256",
          "name": "amount",
          "type": "uint256"
        }
      ],
      "stateMutability": "view",
      "type": "function",
      "constant": true
    },
    {
      "inputs": [],
      "name": "cashOut",
      "outputs": [],
      "stateMutability": "nonpayable",
      "type": "function"
    },
    {
      "inputs": [],
      "name": "getStato",
      "outputs": [
        {
          "internalType": "uint256",
          "name": "",
          "type": "uint256"
        },
        {
          "internalType": "uint256",
          "name": "",
          "type": "uint256"
        }
      ],
      "stateMutability": "view",
      "type": "function",
      "constant": true
    },
    {
      "inputs": [],
      "name": "getStatoUtente",
      "outputs": [
        {
          "internalType": "string",
          "name": "",
          "type": "string"
        },
        {
          "internalType": "uint256",
          "name": "",
          "type": "uint256"
        },
        {
          "internalType": "uint256",
          "name": "",
          "type": "uint256"
        },
        {
          "internalType": "uint256",
          "name": "",
          "type": "uint256"
        },
        {
          "internalType": "uint256",
          "name": "",
          "type": "uint256"
        },
        {
          "internalType": "address",
          "name": "",
          "type": "address"
        }
      ],
      "stateMutability": "view",
      "type": "function",
      "constant": true
    },
    {
      "inputs": [
        {
          "internalType": "address",
          "name": "",
          "type": "address"
        }
      ],
      "name": "indirizzoEsiste",
      "outputs": [
        {
          "internalType": "bool",
          "name": "",
          "type": "bool"
        }
      ],
      "stateMutability": "view",
      "type": "function",
      "constant": true
    },
    {
      "inputs": [
        {
          "internalType": "string",
          "name": "_username",
          "type": "string"
        }
      ],
      "name": "setUsername",
      "outputs": [
        {
          "internalType": "string",
          "name": "",
          "type": "string"
        }
      ],
      "stateMutability": "nonpayable",
      "type": "function"
    },
    {
      "inputs": [],
      "name": "getStatus",
      "outputs": [
        {
          "internalType": "uint256",
          "name": "",
          "type": "uint256"
        },
        {
          "internalType": "uint256",
          "name": "",
          "type": "uint256"
        },
        {
          "internalType": "uint256",
          "name": "",
          "type": "uint256"
        },
        {
          "internalType": "uint256",
          "name": "",
          "type": "uint256"
        }
      ],
      "stateMutability": "view",
      "type": "function",
      "constant": true
    },
    {
      "inputs": [
        {
          "internalType": "uint8",
          "name": "number",
          "type": "uint8"
        },
        {
          "internalType": "uint8",
          "name": "betType",
          "type": "uint8"
        }
      ],
      "name": "bet",
      "outputs": [],
      "stateMutability": "payable",
      "type": "function",
      "payable": true
    },
    {
      "inputs": [],
      "name": "getBet",
      "outputs": [
        {
          "internalType": "uint256",
          "name": "",
          "type": "uint256"
        },
        {
          "internalType": "uint8",
          "name": "",
          "type": "uint8"
        },
        {
          "internalType": "uint8",
          "name": "",
          "type": "uint8"
        },
        {
          "internalType": "uint256",
          "name": "",
          "type": "uint256"
        },
        {
          "internalType": "uint256",
          "name": "",
          "type": "uint256"
        }
      ],
      "stateMutability": "view",
      "type": "function",
      "constant": true
    },
    {
      "inputs": [],
      "name": "getNumber",
      "outputs": [
        {
          "internalType": "uint256",
          "name": "",
          "type": "uint256"
        }
      ],
      "stateMutability": "view",
      "type": "function",
      "constant": true
    },
    {
      "inputs": [],
      "name": "spinWheel",
      "outputs": [
        {
          "internalType": "uint256",
          "name": "",
          "type": "uint256"
        }
      ],
      "stateMutability": "nonpayable",
      "type": "function"
    }
  ],
  "bytecode": "0x6080604052670de0b6b3a764000060015530600260006101000a81548173ffffffffffffffffffffffffffffffffffffffff021916908373ffffffffffffffffffffffffffffffffffffffff160217905550336000806101000a81548173ffffffffffffffffffffffffffffffffffffffff021916908373ffffffffffffffffffffffffffffffffffffffff1602179055506000600681905550426007819055506040518060c00160405280600260ff168152602001600360ff168152602001600360ff168152602001600260ff168152602001600260ff168152602001602460ff16815250600a906006620000f792919062000173565b506040518060c00160405280600160ff168152602001600260ff168152602001600260ff168152602001600160ff168152602001600160ff168152602001602460ff16815250600b9060066200014f92919062000173565b50662386f26fc10000600581905550671bc16d674ec8000060088190555062000240565b82805482825590600052602060002090601f016020900481019282156200020e5791602002820160005b83821115620001dd57835183826101000a81548160ff021916908360ff16021790555092602001926001016020816000010492830192600103026200019d565b80156200020c5782816101000a81549060ff0219169055600101602081600001049283019260010302620001dd565b505b5090506200021d919062000221565b5090565b5b808211156200023c57600081600090555060010162000222565b5090565b612b7380620002506000396000f3fe6080604052600436106100dd5760003560e01c8063cf108a6b1161007f578063f2c9ecd811610059578063f2c9ecd8146102b8578063f3bd38fa146102e3578063f77e8b831461030f578063fbb83ddb1461034c576100dd565b8063cf108a6b14610222578063d773f46e1461025f578063ed59313a1461027b576100dd565b806347478d52116100bb57806347478d521461017c5780634e69d560146101bf578063793cd71e146101ed5780638894dd2b14610204576100dd565b806315ecef92146100e257806320835e8c1461010d57806322af00fa1461013c575b600080fd5b3480156100ee57600080fd5b506100f761037c565b60405161010491906119bb565b60405180910390f35b34801561011957600080fd5b50610122610b39565b6040516101339594939291906119f2565b60405180910390f35b34801561014857600080fd5b50610163600480360381019061015e9190611a85565b610c45565b6040516101739493929190611af3565b60405180910390f35b34801561018857600080fd5b506101a3600480360381019061019e9190611b64565b610cbf565b6040516101b69796959493929190611c3c565b60405180910390f35b3480156101cb57600080fd5b506101d4610db6565b6040516101e49493929190611cb2565b60405180910390f35b3480156101f957600080fd5b50610202610e26565b005b61020c610fd4565b6040516102199190611cf7565b60405180910390f35b34801561022e57600080fd5b5061024960048036038101906102449190611b64565b61101f565b6040516102569190611cf7565b60405180910390f35b61027960048036038101906102749190611d3e565b61103f565b005b34801561028757600080fd5b506102a2600480360381019061029d9190611eb3565b611226565b6040516102af9190611efc565b60405180910390f35b3480156102c457600080fd5b506102cd611356565b6040516102da91906119bb565b60405180910390f35b3480156102ef57600080fd5b506102f8611360565b604051610306929190611f1e565b60405180910390f35b34801561031b57600080fd5b5061033660048036038101906103319190611eb3565b611382565b6040516103439190611cf7565b60405180910390f35b34801561035857600080fd5b506103616115e5565b60405161037396959493929190611f47565b60405180910390f35b600080600d80549050116103c5576040517f08c379a00000000000000000000000000000000000000000000000000000000081526004016103bc90611ffb565b60405180910390fd5b6007544211610409576040517f08c379a00000000000000000000000000000000000000000000000000000000081526004016104009061208d565b60405180910390fd5b426007819055506000449050600060014361042491906120dc565b4090506000600d6001600d8054905061043d91906120dc565b8154811061044e5761044d612110565b5b90600052602060002090600202016040518060800160405290816000820160009054906101000a900473ffffffffffffffffffffffffffffffffffffffff1673ffffffffffffffffffffffffffffffffffffffff1673ffffffffffffffffffffffffffffffffffffffff1681526020016000820160149054906101000a900460ff1660ff1660ff1681526020016000820160159054906101000a900460ff1660ff1660ff16815260200160018201548152505090506000602542858585602001518660000151876040015160405160200161052e96959493929190612209565b6040516020818303038152906040528051906020012060001c61055191906122a8565b905060005b600d80549050811015610ae157600080600d838154811061057a57610579612110565b5b90600052602060002090600202016040518060800160405290816000820160009054906101000a900473ffffffffffffffffffffffffffffffffffffffff1673ffffffffffffffffffffffffffffffffffffffff1673ffffffffffffffffffffffffffffffffffffffff1681526020016000820160149054906101000a900460ff1660ff1660ff1681526020016000820160159054906101000a900460ff1660ff1660ff16815260200160018201548152505090506000840361065c576005816020015160ff1614801561065557506000816040015160ff16145b91506108b9565b6005816020015160ff160361067c5783816040015160ff161491506108b8565b6004816020015160ff16036106d4576000816040015160ff16036106ad5760006002856106a991906122a8565b1491505b6001816040015160ff16036106cf5760016002856106cb91906122a8565b1491505b6108b7565b6003816020015160ff1603610716576000816040015160ff16036106fa57601284111591505b6001816040015160ff160361071157601384101591505b6108b6565b6002816020015160ff160361077a576000816040015160ff160361073c57600c84111591505b6001816040015160ff160361075f57600c8411801561075c575060188411155b91505b6002816040015160ff1603610775576018841191505b6108b5565b6001816020015160ff16036107f4576000816040015160ff16036107ab5760016003856107a791906122a8565b1491505b6001816040015160ff16036107cd5760026003856107c991906122a8565b1491505b6002816040015160ff16036107ef5760006003856107eb91906122a8565b1491505b6108b4565b6000816020015160ff16036108b3576000816040015160ff160361086457600a8411158061083057506014841015801561082f5750601c8411155b5b1561084c57600060028561084491906122a8565b14915061085f565b600160028561085b91906122a8565b1491505b6108b2565b600a841115806108825750601484101580156108815750601c8411155b5b1561089e57600160028561089691906122a8565b1491506108b1565b60006002856108ad91906122a8565b1491505b5b5b5b5b5b5b5b5b8115610a6d57600a816020015160ff16815481106108da576108d9612110565b5b90600052602060002090602091828204019190069054906101000a900460ff1660ff1660055461090a91906122d9565b60096000836000015173ffffffffffffffffffffffffffffffffffffffff1673ffffffffffffffffffffffffffffffffffffffff168152602001908152602001600020600082825461095c919061231b565b92505081905550600160036000836000015173ffffffffffffffffffffffffffffffffffffffff1673ffffffffffffffffffffffffffffffffffffffff16815260200190815260200160002060010160008282546109ba919061231b565b92505081905550600a816020015160ff16815481106109dc576109db612110565b5b90600052602060002090602091828204019190069054906101000a900460ff1660ff16600554610a0c91906122d9565b60036000836000015173ffffffffffffffffffffffffffffffffffffffff1673ffffffffffffffffffffffffffffffffffffffff1681526020019081526020016000206004016000828254610a61919061231b565b92505081905550610acc565b600160036000836000015173ffffffffffffffffffffffffffffffffffffffff1673ffffffffffffffffffffffffffffffffffffffff1681526020019081526020016000206001016000828254610ac4919061231b565b925050819055505b50508080610ad99061234f565b915050610556565b50600d6000610af09190611910565b60006006819055507fec6cdc8e735e4069f6e89062582f3e5532a8e71373e7ef2962fa916cf2af21f281604051610b2791906119bb565b60405180910390a18094505050505090565b600080600080600080600d8054905090506000600d600183610b5b91906120dc565b81548110610b6c57610b6b612110565b5b90600052602060002090600202016040518060800160405290816000820160009054906101000a900473ffffffffffffffffffffffffffffffffffffffff1673ffffffffffffffffffffffffffffffffffffffff1673ffffffffffffffffffffffffffffffffffffffff1681526020016000820160149054906101000a900460ff1660ff1660ff1681526020016000820160159054906101000a900460ff1660ff1660ff168152602001600182015481525050905080606001518160200151826040015184479650965096509650965050509091929394565b600d8181548110610c5557600080fd5b90600052602060002090600202016000915090508060000160009054906101000a900473ffffffffffffffffffffffffffffffffffffffff16908060000160149054906101000a900460ff16908060000160159054906101000a900460ff16908060010154905084565b6003602052806000526040600020600091509050806000018054610ce2906123c6565b80601f0160208091040260200160405190810160405280929190818152602001828054610d0e906123c6565b8015610d5b5780601f10610d3057610100808354040283529160200191610d5b565b820191906000526020600020905b815481529060010190602001808311610d3e57829003601f168201915b5050505050908060010154908060020154908060030154908060040154908060050160009054906101000a900473ffffffffffffffffffffffffffffffffffffffff16908060050160149054906101000a900460ff16905087565b600080600080600d80549050600554600d80549050610dd591906122d9565b600754600960003373ffffffffffffffffffffffffffffffffffffffff1673ffffffffffffffffffffffffffffffffffffffff16815260200190815260200160002054935093509350935090919293565b6000600360003373ffffffffffffffffffffffffffffffffffffffff1673ffffffffffffffffffffffffffffffffffffffff1681526020019081526020016000206004015411610eab576040517f08c379a0000000000000000000000000000000000000000000000000000000008152600401610ea290612443565b60405180910390fd5b47600360003373ffffffffffffffffffffffffffffffffffffffff1673ffffffffffffffffffffffffffffffffffffffff168152602001908152602001600020600401541115610f30576040517f08c379a0000000000000000000000000000000000000000000000000000000008152600401610f27906124d5565b60405180910390fd5b60003390508073ffffffffffffffffffffffffffffffffffffffff166108fc670de0b6b3a7640000600360003373ffffffffffffffffffffffffffffffffffffffff1673ffffffffffffffffffffffffffffffffffffffff16815260200190815260200160002060040154610fa591906122d9565b9081150290604051600060405180830381858888f19350505050158015610fd0573d6000803e3d6000fd5b5050565b6000803411611018576040517f08c379a000000000000000000000000000000000000000000000000000000000815260040161100f90612567565b60405180910390fd5b6001905090565b60046020528060005260406000206000915054906101000a900460ff1681565b60008160ff1610158015611057575060058160ff1611155b611096576040517f08c379a000000000000000000000000000000000000000000000000000000000815260040161108d906125f9565b60405180910390fd5b60008260ff16101580156110e65750600b8160ff16815481106110bc576110bb612110565b5b90600052602060002090602091828204019190069054906101000a900460ff1660ff168260ff1611155b611125576040517f08c379a000000000000000000000000000000000000000000000000000000000815260040161111c9061268b565b60405180910390fd5b600d60405180608001604052803373ffffffffffffffffffffffffffffffffffffffff1681526020018360ff1681526020018460ff16815260200134815250908060018154018082558091505060019003906000526020600020906002020160009091909190915060008201518160000160006101000a81548173ffffffffffffffffffffffffffffffffffffffff021916908373ffffffffffffffffffffffffffffffffffffffff16021790555060208201518160000160146101000a81548160ff021916908360ff16021790555060408201518160000160156101000a81548160ff021916908360ff1602179055506060820151816001015550505050565b60603373ffffffffffffffffffffffffffffffffffffffff16600360003373ffffffffffffffffffffffffffffffffffffffff1673ffffffffffffffffffffffffffffffffffffffff16815260200190815260200160002060050160009054906101000a900473ffffffffffffffffffffffffffffffffffffffff1673ffffffffffffffffffffffffffffffffffffffff16146112f8576040517f08c379a00000000000000000000000000000000000000000000000000000000081526004016112ef9061271d565b60405180910390fd5b600082905080600360003373ffffffffffffffffffffffffffffffffffffffff1673ffffffffffffffffffffffffffffffffffffffff168152602001908152602001600020600001908161134c91906128e9565b5080915050919050565b6000600c54905090565b600080670de0b6b3a76400004761137791906129bb565b600154915091509091565b6000801515600360003373ffffffffffffffffffffffffffffffffffffffff1673ffffffffffffffffffffffffffffffffffffffff16815260200190815260200160002060050160149054906101000a900460ff16151514611419576040517f08c379a000000000000000000000000000000000000000000000000000000000815260040161141090612a38565b60405180910390fd5b600082511161145d576040517f08c379a000000000000000000000000000000000000000000000000000000000815260040161145490612aa4565b60405180910390fd5b600033905060006040518060e00160405280858152602001600081526020016000815260200160008152602001600081526020018373ffffffffffffffffffffffffffffffffffffffff16815260200160011515815250905080600360008473ffffffffffffffffffffffffffffffffffffffff1673ffffffffffffffffffffffffffffffffffffffff168152602001908152602001600020600082015181600001908161150b91906128e9565b506020820151816001015560408201518160020155606082015181600301556080820151816004015560a08201518160050160006101000a81548173ffffffffffffffffffffffffffffffffffffffff021916908373ffffffffffffffffffffffffffffffffffffffff16021790555060c08201518160050160146101000a81548160ff0219169083151502179055509050507f05a7620959db0b35c22d0875ba544f7330a46562081bb2e33509281902568657848360006040516115d293929190612aff565b60405180910390a1600192505050919050565b606060008060008060003373ffffffffffffffffffffffffffffffffffffffff16600360003373ffffffffffffffffffffffffffffffffffffffff1673ffffffffffffffffffffffffffffffffffffffff16815260200190815260200160002060050160009054906101000a900473ffffffffffffffffffffffffffffffffffffffff1673ffffffffffffffffffffffffffffffffffffffff16146116bf576040517f08c379a00000000000000000000000000000000000000000000000000000000081526004016116b69061271d565b60405180910390fd5b600360003373ffffffffffffffffffffffffffffffffffffffff1673ffffffffffffffffffffffffffffffffffffffff168152602001908152602001600020600001600360003373ffffffffffffffffffffffffffffffffffffffff1673ffffffffffffffffffffffffffffffffffffffff16815260200190815260200160002060010154600360003373ffffffffffffffffffffffffffffffffffffffff1673ffffffffffffffffffffffffffffffffffffffff16815260200190815260200160002060020154600360003373ffffffffffffffffffffffffffffffffffffffff1673ffffffffffffffffffffffffffffffffffffffff16815260200190815260200160002060030154600360003373ffffffffffffffffffffffffffffffffffffffff1673ffffffffffffffffffffffffffffffffffffffff16815260200190815260200160002060040154600360003373ffffffffffffffffffffffffffffffffffffffff1673ffffffffffffffffffffffffffffffffffffffff16815260200190815260200160002060050160009054906101000a900473ffffffffffffffffffffffffffffffffffffffff1685805461187c906123c6565b80601f01602080910402602001604051908101604052809291908181526020018280546118a8906123c6565b80156118f55780601f106118ca576101008083540402835291602001916118f5565b820191906000526020600020905b8154815290600101906020018083116118d857829003601f168201915b50505050509550955095509550955095509550909192939495565b50805460008255600202906000526020600020908101906119319190611934565b50565b5b8082111561199e57600080820160006101000a81549073ffffffffffffffffffffffffffffffffffffffff02191690556000820160146101000a81549060ff02191690556000820160156101000a81549060ff0219169055600182016000905550600201611935565b5090565b6000819050919050565b6119b5816119a2565b82525050565b60006020820190506119d060008301846119ac565b92915050565b600060ff82169050919050565b6119ec816119d6565b82525050565b600060a082019050611a0760008301886119ac565b611a1460208301876119e3565b611a2160408301866119e3565b611a2e60608301856119ac565b611a3b60808301846119ac565b9695505050505050565b6000604051905090565b600080fd5b600080fd5b611a62816119a2565b8114611a6d57600080fd5b50565b600081359050611a7f81611a59565b92915050565b600060208284031215611a9b57611a9a611a4f565b5b6000611aa984828501611a70565b91505092915050565b600073ffffffffffffffffffffffffffffffffffffffff82169050919050565b6000611add82611ab2565b9050919050565b611aed81611ad2565b82525050565b6000608082019050611b086000830187611ae4565b611b1560208301866119e3565b611b2260408301856119e3565b611b2f60608301846119ac565b95945050505050565b611b4181611ad2565b8114611b4c57600080fd5b50565b600081359050611b5e81611b38565b92915050565b600060208284031215611b7a57611b79611a4f565b5b6000611b8884828501611b4f565b91505092915050565b600081519050919050565b600082825260208201905092915050565b60005b83811015611bcb578082015181840152602081019050611bb0565b60008484015250505050565b6000601f19601f8301169050919050565b6000611bf382611b91565b611bfd8185611b9c565b9350611c0d818560208601611bad565b611c1681611bd7565b840191505092915050565b60008115159050919050565b611c3681611c21565b82525050565b600060e0820190508181036000830152611c56818a611be8565b9050611c6560208301896119ac565b611c7260408301886119ac565b611c7f60608301876119ac565b611c8c60808301866119ac565b611c9960a0830185611ae4565b611ca660c0830184611c2d565b98975050505050505050565b6000608082019050611cc760008301876119ac565b611cd460208301866119ac565b611ce160408301856119ac565b611cee60608301846119ac565b95945050505050565b6000602082019050611d0c6000830184611c2d565b92915050565b611d1b816119d6565b8114611d2657600080fd5b50565b600081359050611d3881611d12565b92915050565b60008060408385031215611d5557611d54611a4f565b5b6000611d6385828601611d29565b9250506020611d7485828601611d29565b9150509250929050565b600080fd5b600080fd5b7f4e487b7100000000000000000000000000000000000000000000000000000000600052604160045260246000fd5b611dc082611bd7565b810181811067ffffffffffffffff82111715611ddf57611dde611d88565b5b80604052505050565b6000611df2611a45565b9050611dfe8282611db7565b919050565b600067ffffffffffffffff821115611e1e57611e1d611d88565b5b611e2782611bd7565b9050602081019050919050565b82818337600083830152505050565b6000611e56611e5184611e03565b611de8565b905082815260208101848484011115611e7257611e71611d83565b5b611e7d848285611e34565b509392505050565b600082601f830112611e9a57611e99611d7e565b5b8135611eaa848260208601611e43565b91505092915050565b600060208284031215611ec957611ec8611a4f565b5b600082013567ffffffffffffffff811115611ee757611ee6611a54565b5b611ef384828501611e85565b91505092915050565b60006020820190508181036000830152611f168184611be8565b905092915050565b6000604082019050611f3360008301856119ac565b611f4060208301846119ac565b9392505050565b600060c0820190508181036000830152611f618189611be8565b9050611f7060208301886119ac565b611f7d60408301876119ac565b611f8a60608301866119ac565b611f9760808301856119ac565b611fa460a0830184611ae4565b979650505050505050565b7f6e6f6e20636920736f6e6f2067696f6361746500000000000000000000000000600082015250565b6000611fe5601383611b9c565b9150611ff082611faf565b602082019050919050565b6000602082019050818103600083015261201481611fd8565b9050919050565b7f6e6f6e2065207061737361746f20616262617374616e7a612074656d706f207060008201527f657220706f74657220726967696f636172650000000000000000000000000000602082015250565b6000612077603283611b9c565b91506120828261201b565b604082019050919050565b600060208201905081810360008301526120a68161206a565b9050919050565b7f4e487b7100000000000000000000000000000000000000000000000000000000600052601160045260246000fd5b60006120e7826119a2565b91506120f2836119a2565b925082820390508181111561210a576121096120ad565b5b92915050565b7f4e487b7100000000000000000000000000000000000000000000000000000000600052603260045260246000fd5b6000819050919050565b61215a612155826119a2565b61213f565b82525050565b6000819050919050565b6000819050919050565b61218561218082612160565b61216a565b82525050565b60008160f81b9050919050565b60006121a38261218b565b9050919050565b6121bb6121b6826119d6565b612198565b82525050565b60008160601b9050919050565b60006121d9826121c1565b9050919050565b60006121eb826121ce565b9050919050565b6122036121fe82611ad2565b6121e0565b82525050565b60006122158289612149565b6020820191506122258288612149565b6020820191506122358287612174565b60208201915061224582866121aa565b60018201915061225582856121f2565b60148201915061226582846121aa565b600182019150819050979650505050505050565b7f4e487b7100000000000000000000000000000000000000000000000000000000600052601260045260246000fd5b60006122b3826119a2565b91506122be836119a2565b9250826122ce576122cd612279565b5b828206905092915050565b60006122e4826119a2565b91506122ef836119a2565b92508282026122fd816119a2565b91508282048414831517612314576123136120ad565b5b5092915050565b6000612326826119a2565b9150612331836119a2565b9250828201905080821115612349576123486120ad565b5b92915050565b600061235a826119a2565b91507fffffffffffffffffffffffffffffffffffffffffffffffffffffffffffffffff820361238c5761238b6120ad565b5b600182019050919050565b7f4e487b7100000000000000000000000000000000000000000000000000000000600052602260045260246000fd5b600060028204905060018216806123de57607f821691505b6020821081036123f1576123f0612397565b5b50919050565b7f6e6f6e2068616920736f6c6469206461207072656c6576617265000000000000600082015250565b600061242d601a83611b9c565b9150612438826123f7565b602082019050919050565b6000602082019050818103600083015261245c81612420565b9050919050565b7f6e6f6e20736920736f6e6f20616262617374616e7a6120666f6e7369206e656c60008201527f20636f6e74726174746f20706572207061676172746900000000000000000000602082015250565b60006124bf603683611b9c565b91506124ca82612463565b604082019050919050565b600060208201905081810360008301526124ee816124b2565b9050919050565b7f6e6f6e2070756f69207472617366657269726520756e61207175616e7469746160008201527f2070617269206120300000000000000000000000000000000000000000000000602082015250565b6000612551602983611b9c565b915061255c826124f5565b604082019050919050565b6000602082019050818103600083015261258081612544565b9050919050565b7f6e6f6e2068616920696e73657269746f206c61206769757374612067696f636160008201527f7461000000000000000000000000000000000000000000000000000000000000602082015250565b60006125e3602283611b9c565b91506125ee82612587565b604082019050919050565b60006020820190508181036000830152612612816125d6565b9050919050565b7f636865206e756d65726f2064692067696f63617461206861692073656c657a6960008201527f6f6e61746f3f0000000000000000000000000000000000000000000000000000602082015250565b6000612675602683611b9c565b915061268082612619565b604082019050919050565b600060208201905081810360008301526126a481612668565b9050919050565b7f4c27696e646972697a7a6f206e6f6e20657369737465206e656c206d6170706960008201527f6e67206f206e6f6e20636f6d62616369616e6f00000000000000000000000000602082015250565b6000612707603383611b9c565b9150612712826126ab565b604082019050919050565b60006020820190508181036000830152612736816126fa565b9050919050565b60008190508160005260206000209050919050565b60006020601f8301049050919050565b600082821b905092915050565b60006008830261279f7fffffffffffffffffffffffffffffffffffffffffffffffffffffffffffffffff82612762565b6127a98683612762565b95508019841693508086168417925050509392505050565b6000819050919050565b60006127e66127e16127dc846119a2565b6127c1565b6119a2565b9050919050565b6000819050919050565b612800836127cb565b61281461280c826127ed565b84845461276f565b825550505050565b600090565b61282961281c565b6128348184846127f7565b505050565b5b818110156128585761284d600082612821565b60018101905061283a565b5050565b601f82111561289d5761286e8161273d565b61287784612752565b81016020851015612886578190505b61289a61289285612752565b830182612839565b50505b505050565b600082821c905092915050565b60006128c0600019846008026128a2565b1980831691505092915050565b60006128d983836128af565b9150826002028217905092915050565b6128f282611b91565b67ffffffffffffffff81111561290b5761290a611d88565b5b61291582546123c6565b61292082828561285c565b600060209050601f8311600181146129535760008415612941578287015190505b61294b85826128cd565b8655506129b3565b601f1984166129618661273d565b60005b8281101561298957848901518255600182019150602085019450602081019050612964565b868310156129a657848901516129a2601f8916826128af565b8355505b6001600288020188555050505b505050505050565b60006129c6826119a2565b91506129d1836119a2565b9250826129e1576129e0612279565b5b828204905092915050565b7f47696f6361746f726520676961207265676973747261746f0000000000000000600082015250565b6000612a22601883611b9c565b9150612a2d826129ec565b602082019050919050565b60006020820190508181036000830152612a5181612a15565b9050919050565b7f4e6f6d6520696e73657269746f206e6f6e2076616c69646f0000000000000000600082015250565b6000612a8e601883611b9c565b9150612a9982612a58565b602082019050919050565b60006020820190508181036000830152612abd81612a81565b9050919050565b6000819050919050565b6000612ae9612ae4612adf84612ac4565b6127c1565b6119a2565b9050919050565b612af981612ace565b82525050565b60006060820190508181036000830152612b198186611be8565b9050612b286020830185611ae4565b612b356040830184612af0565b94935050505056fea2646970667358221220030c736bff8d3d285b5eb4a1410dc697d35c996af709ed8a7abea14d241df31664736f6c63430008130033",
  "immutableReferences": {},
  "source": "// SPDX-License-Identifier: MIT\r\nimport \"./Profile.sol\";\r\npragma solidity ^0.8.19;\r\n\r\n\r\ncontract Roulette is Profile{\r\n  \r\n  uint betAmount;\r\n  uint necessaryBalance;\r\n  uint nextRoundTimestamp;\r\n  uint256 maxAmountAllowedInTheBank;\r\n  mapping (address => uint256) winnings;\r\n  uint8[] payouts;\r\n  uint8[] numberRange;\r\n  uint estratto;\r\n  \r\n  /*\r\n    BetTypes are as follow:\r\n      0: color\r\n      1: column\r\n      2: dozen\r\n      3: eighteen\r\n      4: modulus\r\n      5: number\r\n      \r\n    Depending on the BetType, number will be:\r\n      color: 0 for black, 1 for red\r\n      column: 0 for left, 1 for middle, 2 for right\r\n      dozen: 0 for first, 1 for second, 2 for third\r\n      eighteen: 0 for low, 1 for high\r\n      modulus: 0 for even, 1 for odd\r\n      number: number\r\n  */\r\n  \r\n  struct Bet {\r\n    address player;\r\n    uint8 betType;\r\n    uint8 number;\r\n    uint amount;\r\n  }\r\n  Bet[] public bets;\r\n  \r\n  constructor() payable {\r\n    necessaryBalance = 0;\r\n    nextRoundTimestamp = block.timestamp;\r\n    payouts = [2,3,3,2,2,36];\r\n    numberRange = [1,2,2,1,1,36];\r\n    betAmount = 10000000000000000; /* 0.01 ether */\r\n    maxAmountAllowedInTheBank = 2000000000000000000; /* 2 ether */\r\n  }\r\n\r\n  event RandomNumber(uint256 number);\r\n  \r\n  function getStatus() public view returns(uint, uint, uint, uint) {\r\n    return (\r\n      bets.length,             // number of active bets\r\n      bets.length * betAmount, // value of active bets\r\n      nextRoundTimestamp,      // when can we play again\r\n      winnings[msg.sender]     // winnings of player\r\n    ); \r\n  }\r\n\r\n\r\n  function bet(uint8 number, uint8 betType) payable public{\r\n    /* \r\n       A bet is valid when:\r\n       1 - the value of the bet is correct (=betAmount)\r\n       2 - betType is known (between 0 and 5)\r\n       3 - the option betted is valid (don't bet on 37!)\r\n       4 - the bank has sufficient funds to pay the bet\r\n    */\r\n    //require(msg.value == betAmount, \"non hai versato abbastanza fondi\");                               // 1\r\n   // require(amount>=10000000000000000,\"per ogni puntata almeno 0.01eth\");\r\n    require(betType >= 0 && betType <= 5, \"non hai inserito la giusta giocata\");                         // 2\r\n    require(number >= 0 && number <= numberRange[betType], \"che numero di giocata hai selezionato?\");        // 3\r\n   \r\n   // uint payoutForThisBet = payouts[betType] * msg.value; \r\n  //  uint provisionalBalance = necessaryBalance + payoutForThisBet;\r\n  // require(provisionalBalance < address(this).balance, \"la banca non ha abbastanza fondi da darti se vincessi\");           // 4\r\n    /* we are good to go */\r\n    //necessaryBalance += payoutForThisBet;\r\n\r\n\r\n    bets.push(Bet({\r\n      amount: msg.value,\r\n      betType: betType,\r\n      player: msg.sender,\r\n      number: number\r\n    }));\r\n\r\n  }\r\n\r\n\r\n//prova per valutare la corretta esecuzione della funzione bet\r\n function getBet() public view returns(uint,uint8,uint8,uint,uint){\r\n  uint lung= bets.length;\r\n  Bet memory b= bets[lung-1];\r\n       return (\r\n        b.amount,\r\n        b.betType,\r\n        b.number,\r\n        lung,\r\n        address(this).balance\r\n       );\r\n    \r\n  }\r\n\r\n  function getNumber() public view returns(uint){\r\n       return estratto;\r\n  }\r\n\r\n\r\n   function spinWheel() public returns (uint){\r\n    /* are there any bets? */\r\n    require(bets.length > 0, \"non ci sono giocate\");\r\n    //require(msg.value > 10000000000000000 wei, \"non sono stati versati abbastanza fondi \");  \r\n    /* are we allowed to spin the wheel? */\r\n    require(block.timestamp > nextRoundTimestamp, \"non e passato abbastanza tempo per poter rigiocare\");\r\n    /* next time we are allowed to spin the wheel again */\r\n    nextRoundTimestamp = block.timestamp;\r\n    /* calculate 'random' number */\r\n    uint diff = block.difficulty;\r\n    bytes32 hash = blockhash(block.number-1);\r\n    Bet memory lb = bets[bets.length-1];\r\n    uint number = uint(keccak256(abi.encodePacked(block.timestamp, diff, hash, lb.betType, lb.player, lb.number))) % 37;\r\n    /* check every bet for this number */ \r\n    for (uint i = 0; i < bets.length; i++) {\r\n      bool won = false;\r\n      Bet memory b = bets[i];\r\n      if (number == 0) {\r\n        won = (b.betType == 5 && b.number == 0);                   /* bet on 0 */\r\n      } else {\r\n        if (b.betType == 5) { \r\n          won = (b.number == number);                              /* bet on number */\r\n        } else if (b.betType == 4) {\r\n          if (b.number == 0) won = (number % 2 == 0);              /* bet on even */\r\n          if (b.number == 1) won = (number % 2 == 1);              /* bet on odd */\r\n        } else if (b.betType == 3) {            \r\n          if (b.number == 0) won = (number <= 18);                 /* bet on low 18s */\r\n          if (b.number == 1) won = (number >= 19);                 /* bet on high 18s */\r\n        } else if (b.betType == 2) {                               \r\n          if (b.number == 0) won = (number <= 12);                 /* bet on 1st dozen */\r\n          if (b.number == 1) won = (number > 12 && number <= 24);  /* bet on 2nd dozen */\r\n          if (b.number == 2) won = (number > 24);                  /* bet on 3rd dozen */\r\n        } else if (b.betType == 1) {               \r\n          if (b.number == 0) won = (number % 3 == 1);              /* bet on left column */\r\n          if (b.number == 1) won = (number % 3 == 2);              /* bet on middle column */\r\n          if (b.number == 2) won = (number % 3 == 0);              /* bet on right column */\r\n        } else if (b.betType == 0) {\r\n          if (b.number == 0) {                                     /* bet on black */\r\n            if (number <= 10 || (number >= 20 && number <= 28)) {\r\n              won = (number % 2 == 0);\r\n            } else {\r\n              won = (number % 2 == 1);\r\n            }\r\n          } else {                                                 /* bet on red */\r\n            if (number <= 10 || (number >= 20 && number <= 28)) {\r\n              won = (number % 2 == 1);\r\n            } else {\r\n              won = (number % 2 == 0);\r\n            }\r\n          }\r\n        }\r\n      }\r\n      /* if winning bet, add to player winnings balance */\r\n      if (won) {\r\n        winnings[b.player] += betAmount * payouts[b.betType];\r\n        //aggiorniamo le giocate del giocatore;\r\n        addToPlayer[b.player].game +=1;\r\n        addToPlayer[b.player].cashInBank += betAmount * payouts[b.betType];\r\n      }else{\r\n        addToPlayer[b.player].game +=1;\r\n      }\r\n    }\r\n    /* delete all bets */\r\n    //bets.length = 0;\r\n    delete bets;\r\n\r\n    /* reset necessaryBalance */\r\n    necessaryBalance = 0;\r\n\r\n    /* returns 'random' number to UI */\r\n    emit RandomNumber(number);\r\n    return number;\r\n  }\r\n\r\n\r\n  /*\r\n\r\n  function cashOut() public {\r\n    address payable player = payable(msg.sender);\r\n    uint256 amount = winnings[player];\r\n    require(amount > 0);\r\n    require(amount <= address(this).balance);\r\n    winnings[player] = 0;\r\n    player.transfer(amount);\r\n  }\r\n  \r\n  function takeProfits() internal {\r\n    uint amount = address(this).balance - maxAmountAllowedInTheBank;\r\n    if (amount > 0) creator.transfer(amount);\r\n  }\r\n  \r\n  function creatorKill() public {\r\n    require(msg.sender == creator);\r\n    \r\n    creator.transfer(address(this).balance);\r\n    //selfdestruct(creator);\r\n  }\r\n  */\r\n \r\n}",
  "sourcePath": "/Users/mac_marco/ETHRoulette/contracts/Roulette.sol",
  "compiler": {
    "name": "solc",
    "version": "0.8.19+commit.7dd6d404.Emscripten.clang"
  },
  "schemaVersion": "3.4.16",
  "updatedAt": "2024-02-01T16:29:31.599Z",
  "networkType": "ethereum",
  "devdoc": {
    "kind": "dev",
    "methods": {},
    "version": 1
  },
  "userdoc": {
    "kind": "user",
    "methods": {},
    "version": 1
  }
}