{
  "contractName": "Roulette",
  "abi": [
    {
      "inputs": [],
      "stateMutability": "payable",
      "type": "constructor",
      "payable": true
    },
    {
      "inputs": [
        {
          "internalType": "uint256",
          "name": "",
          "type": "uint256"
        }
      ],
      "name": "bets",
      "outputs": [
        {
          "internalType": "address",
          "name": "player",
          "type": "address"
        },
        {
          "internalType": "uint8",
          "name": "betType",
          "type": "uint8"
        },
        {
          "internalType": "uint8",
          "name": "number",
          "type": "uint8"
        }
      ],
      "stateMutability": "view",
      "type": "function",
      "constant": true
    },
    {
      "inputs": [],
      "name": "getStatus",
      "outputs": [
        {
          "internalType": "uint256",
          "name": "",
          "type": "uint256"
        },
        {
          "internalType": "uint256",
          "name": "",
          "type": "uint256"
        },
        {
          "internalType": "uint256",
          "name": "",
          "type": "uint256"
        }
      ],
      "stateMutability": "view",
      "type": "function",
      "constant": true
    },
    {
      "inputs": [],
      "name": "addEther",
      "outputs": [],
      "stateMutability": "payable",
      "type": "function",
      "payable": true
    },
    {
      "inputs": [
        {
          "internalType": "uint8",
          "name": "number",
          "type": "uint8"
        },
        {
          "internalType": "uint8",
          "name": "betType",
          "type": "uint8"
        }
      ],
      "name": "bet",
      "outputs": [],
      "stateMutability": "payable",
      "type": "function",
      "payable": true
    }
  ],
  "bytecode": "0x608060405233600260006101000a81548173ffffffffffffffffffffffffffffffffffffffff021916908373ffffffffffffffffffffffffffffffffffffffff16021790555060006001819055506040518060c00160405280600260ff168152602001600360ff168152602001600360ff168152602001600260ff168152602001600260ff168152602001602460ff1681525060049060066100a292919061010d565b506040518060c00160405280600160ff168152602001600260ff168152602001600260ff168152602001600160ff168152602001600160ff168152602001602460ff1681525060059060066100f892919061010d565b50670de0b6b3a76400006000819055506101d1565b82805482825590600052602060002090601f016020900481019282156101a35791602002820160005b8382111561017457835183826101000a81548160ff021916908360ff1602179055509260200192600101602081600001049283019260010302610136565b80156101a15782816101000a81549060ff0219169055600101602081600001049283019260010302610174565b505b5090506101b091906101b4565b5090565b5b808211156101cd5760008160009055506001016101b5565b5090565b610528806101e06000396000f3fe60806040526004361061003f5760003560e01c806322af00fa146100445780634e69d560146100835780638894dd2b146100b0578063d773f46e146100ba575b600080fd5b34801561005057600080fd5b5061006b60048036038101906100669190610350565b6100d6565b60405161007a939291906103da565b60405180910390f35b34801561008f57600080fd5b50610098610146565b6040516100a793929190610420565b60405180910390f35b6100b861019d565b005b6100d460048036038101906100cf9190610483565b61019f565b005b600681815481106100e657600080fd5b906000526020600020016000915090508060000160009054906101000a900473ffffffffffffffffffffffffffffffffffffffff16908060000160149054906101000a900460ff16908060000160159054906101000a900460ff16905083565b600080600060068054905047600360003373ffffffffffffffffffffffffffffffffffffffff1673ffffffffffffffffffffffffffffffffffffffff16815260200190815260200160002054925092509250909192565b565b6000543410156101ae57600080fd5b60008160ff16101580156101c6575060058160ff1611155b6101cf57600080fd5b60008260ff161015801561021f575060058160ff16815481106101f5576101f46104c3565b5b90600052602060002090602091828204019190069054906101000a900460ff1660ff168260ff1611155b61022857600080fd5b600660405180606001604052803373ffffffffffffffffffffffffffffffffffffffff1681526020018360ff1681526020018460ff168152509080600181540180825580915050600190039060005260206000200160009091909190915060008201518160000160006101000a81548173ffffffffffffffffffffffffffffffffffffffff021916908373ffffffffffffffffffffffffffffffffffffffff16021790555060208201518160000160146101000a81548160ff021916908360ff16021790555060408201518160000160156101000a81548160ff021916908360ff16021790555050505050565b600080fd5b6000819050919050565b61032d8161031a565b811461033857600080fd5b50565b60008135905061034a81610324565b92915050565b60006020828403121561036657610365610315565b5b60006103748482850161033b565b91505092915050565b600073ffffffffffffffffffffffffffffffffffffffff82169050919050565b60006103a88261037d565b9050919050565b6103b88161039d565b82525050565b600060ff82169050919050565b6103d4816103be565b82525050565b60006060820190506103ef60008301866103af565b6103fc60208301856103cb565b61040960408301846103cb565b949350505050565b61041a8161031a565b82525050565b60006060820190506104356000830186610411565b6104426020830185610411565b61044f6040830184610411565b949350505050565b610460816103be565b811461046b57600080fd5b50565b60008135905061047d81610457565b92915050565b6000806040838503121561049a57610499610315565b5b60006104a88582860161046e565b92505060206104b98582860161046e565b9150509250929050565b7f4e487b7100000000000000000000000000000000000000000000000000000000600052603260045260246000fdfea264697066735822122068e9b5f5e2e1c7b381a9f3e07d3b359a49f5dd66be775e6d9d4a9f3e0213c96964736f6c63430008130033",
  "immutableReferences": {},
  "source": "// SPDX-License-Identifier: MIT\r\npragma solidity ^0.8.19;\r\n\r\ncontract Roulette {\r\n    uint betAmount;\r\n    uint necessaryBalance;\r\n    address payable owner;\r\n    mapping(address => uint256) winnings;\r\n    uint8[] payouts;\r\n    uint8[] numberRange;\r\n\r\n    struct Bet {\r\n        address player;\r\n        uint8 betType;\r\n        uint8 number;\r\n    }\r\n    Bet[] public bets;\r\n\r\n    constructor() payable {\r\n        owner = payable(msg.sender);\r\n        necessaryBalance = 0;\r\n        payouts = [2, 3, 3, 2, 2, 36];\r\n        numberRange = [1, 2, 2, 1, 1, 36];\r\n        betAmount = 1 ether;\r\n    }\r\n\r\n    function getStatus() public view returns (uint, uint, uint) {\r\n        return (\r\n            bets.length, // number of active bets\r\n            address(this).balance, // roulette balance\r\n            winnings[msg.sender] // giocatori vincenti\r\n        );\r\n    }\r\n\r\n    function addEther() public payable {}\r\n\r\n    function bet(uint8 number, uint8 betType) public payable {\r\n        require(msg.value >= betAmount);\r\n        require(betType >= 0 && betType <= 5); // 2\r\n        require(number >= 0 && number <= numberRange[betType]);\r\n        bets.push(Bet({betType: betType, player: msg.sender, number: number}));\r\n        \r\n    }\r\n}",
  "sourcePath": "C:\\Users\\ddefs\\Desktop\\Roulette\\contracts\\Roulette.sol",
  "compiler": {
    "name": "solc",
    "version": "0.8.19+commit.7dd6d404.Emscripten.clang"
  },
  "schemaVersion": "3.4.16",
  "updatedAt": "2024-01-17T14:49:55.184Z",
  "networkType": "ethereum",
  "devdoc": {
    "kind": "dev",
    "methods": {},
    "version": 1
  },
  "userdoc": {
    "kind": "user",
    "methods": {},
    "version": 1
  }
}