{
  "contractName": "Roulette",
  "abi": [
    {
      "inputs": [],
      "stateMutability": "payable",
      "type": "constructor",
      "payable": true
    },
    {
      "anonymous": false,
      "inputs": [
        {
          "indexed": false,
          "internalType": "uint256",
          "name": "number",
          "type": "uint256"
        }
      ],
      "name": "RandomNumber",
      "type": "event"
    },
    {
      "inputs": [
        {
          "internalType": "uint256",
          "name": "",
          "type": "uint256"
        }
      ],
      "name": "bets",
      "outputs": [
        {
          "internalType": "address",
          "name": "player",
          "type": "address"
        },
        {
          "internalType": "uint8",
          "name": "betType",
          "type": "uint8"
        },
        {
          "internalType": "uint8",
          "name": "number",
          "type": "uint8"
        }
      ],
      "stateMutability": "view",
      "type": "function",
      "constant": true
    },
    {
      "inputs": [],
      "name": "getStatus",
      "outputs": [
        {
          "internalType": "uint256",
          "name": "",
          "type": "uint256"
        },
        {
          "internalType": "uint256",
          "name": "",
          "type": "uint256"
        },
        {
          "internalType": "uint256",
          "name": "",
          "type": "uint256"
        },
        {
          "internalType": "uint256",
          "name": "",
          "type": "uint256"
        },
        {
          "internalType": "uint256",
          "name": "",
          "type": "uint256"
        }
      ],
      "stateMutability": "view",
      "type": "function",
      "constant": true
    },
    {
      "inputs": [],
      "name": "addEther",
      "outputs": [],
      "stateMutability": "payable",
      "type": "function",
      "payable": true
    },
    {
      "inputs": [
        {
          "internalType": "uint8",
          "name": "number",
          "type": "uint8"
        },
        {
          "internalType": "uint8",
          "name": "betType",
          "type": "uint8"
        }
      ],
      "name": "bet",
      "outputs": [],
      "stateMutability": "payable",
      "type": "function",
      "payable": true
    },
    {
      "inputs": [],
      "name": "spinWheel",
      "outputs": [],
      "stateMutability": "payable",
      "type": "function",
      "payable": true
    }
  ],
  "bytecode": "0x608060405233600360006101000a81548173ffffffffffffffffffffffffffffffffffffffff021916908373ffffffffffffffffffffffffffffffffffffffff1602179055506000600181905550426002819055506040518060c00160405280600260ff168152602001600360ff168152602001600360ff168152602001600260ff168152602001600260ff168152602001602460ff1681525060069060066100a9929190610122565b506040518060c00160405280600160ff168152602001600260ff168152602001600260ff168152602001600160ff168152602001600160ff168152602001602460ff1681525060079060066100ff929190610122565b50662386f26fc10000600081905550671bc16d674ec800006004819055506101e6565b82805482825590600052602060002090601f016020900481019282156101b85791602002820160005b8382111561018957835183826101000a81548160ff021916908360ff160217905550926020019260010160208160000104928301926001030261014b565b80156101b65782816101000a81549060ff0219169055600101602081600001049283019260010302610189565b505b5090506101c591906101c9565b5090565b5b808211156101e25760008160009055506001016101ca565b5090565b610f33806101f56000396000f3fe60806040526004361061004a5760003560e01c806315ecef921461004f57806322af00fa146100595780634e69d560146100985780638894dd2b146100c7578063d773f46e146100d1575b600080fd5b6100576100ed565b005b34801561006557600080fd5b50610080600480360381019061007b9190610a69565b6106c8565b60405161008f93929190610af3565b60405180910390f35b3480156100a457600080fd5b506100ad610738565b6040516100be959493929190610b39565b60405180910390f35b6100cf6107ae565b005b6100eb60048036038101906100e69190610bb8565b6107b0565b005b6000600880549050116100ff57600080fd5b662386f26fc10000341161011257600080fd5b600254421161012057600080fd5b426002819055506000449050600060014361013b9190610c27565b4090506000600860016008805490506101549190610c27565b8154811061016557610164610c5b565b5b906000526020600020016040518060600160405290816000820160009054906101000a900473ffffffffffffffffffffffffffffffffffffffff1673ffffffffffffffffffffffffffffffffffffffff1673ffffffffffffffffffffffffffffffffffffffff1681526020016000820160149054906101000a900460ff1660ff1660ff1681526020016000820160159054906101000a900460ff1660ff1660ff168152505090506000602542858585602001518660000151876040015160405160200161023796959493929190610d54565b6040516020818303038152906040528051906020012060001c61025a9190610df3565b905060005b600880549050811015610674576000806008838154811061028357610282610c5b565b5b906000526020600020016040518060600160405290816000820160009054906101000a900473ffffffffffffffffffffffffffffffffffffffff1673ffffffffffffffffffffffffffffffffffffffff1673ffffffffffffffffffffffffffffffffffffffff1681526020016000820160149054906101000a900460ff1660ff1660ff1681526020016000820160159054906101000a900460ff1660ff1660ff1681525050905060008403610357576005816020015160ff1614801561035057506000816040015160ff16145b91506105b4565b6005816020015160ff16036103775783816040015160ff161491506105b3565b6004816020015160ff16036103cf576000816040015160ff16036103a85760006002856103a49190610df3565b1491505b6001816040015160ff16036103ca5760016002856103c69190610df3565b1491505b6105b2565b6003816020015160ff1603610411576000816040015160ff16036103f557601284111591505b6001816040015160ff160361040c57601384101591505b6105b1565b6002816020015160ff1603610475576000816040015160ff160361043757600c84111591505b6001816040015160ff160361045a57600c84118015610457575060188411155b91505b6002816040015160ff1603610470576018841191505b6105b0565b6001816020015160ff16036104ef576000816040015160ff16036104a65760016003856104a29190610df3565b1491505b6001816040015160ff16036104c85760026003856104c49190610df3565b1491505b6002816040015160ff16036104ea5760006003856104e69190610df3565b1491505b6105af565b6000816020015160ff16036105ae576000816040015160ff160361055f57600a8411158061052b57506014841015801561052a5750601c8411155b5b1561054757600060028561053f9190610df3565b14915061055a565b60016002856105569190610df3565b1491505b6105ad565b600a8411158061057d57506014841015801561057c5750601c8411155b5b156105995760016002856105919190610df3565b1491506105ac565b60006002856105a89190610df3565b1491505b5b5b5b5b5b5b5b5b811561065f576006816020015160ff16815481106105d5576105d4610c5b565b5b90600052602060002090602091828204019190069054906101000a900460ff1660ff166000546106059190610e24565b60056000836000015173ffffffffffffffffffffffffffffffffffffffff1673ffffffffffffffffffffffffffffffffffffffff16815260200190815260200160002060008282546106579190610e66565b925050819055505b5050808061066c90610e9a565b91505061025f565b506008600061068391906109a7565b60006001819055507fec6cdc8e735e4069f6e89062582f3e5532a8e71373e7ef2962fa916cf2af21f2816040516106ba9190610ee2565b60405180910390a150505050565b600881815481106106d857600080fd5b906000526020600020016000915090508060000160009054906101000a900473ffffffffffffffffffffffffffffffffffffffff16908060000160149054906101000a900460ff16908060000160159054906101000a900460ff16905083565b60008060008060006008805490506000546008805490506107599190610e24565b60025447600560003373ffffffffffffffffffffffffffffffffffffffff1673ffffffffffffffffffffffffffffffffffffffff16815260200190815260200160002054945094509450945094509091929394565b565b60005434146107be57600080fd5b60008160ff16101580156107d6575060058160ff1611155b6107df57600080fd5b60008260ff161015801561082f575060078160ff168154811061080557610804610c5b565b5b90600052602060002090602091828204019190069054906101000a900460ff1660ff168260ff1611155b61083857600080fd5b60003460068360ff168154811061085257610851610c5b565b5b90600052602060002090602091828204019190069054906101000a900460ff1660ff1661087f9190610e24565b90506000816001546108919190610e66565b905047811061089f57600080fd5b81600160008282546108b19190610e66565b92505081905550600860405180606001604052803373ffffffffffffffffffffffffffffffffffffffff1681526020018560ff1681526020018660ff168152509080600181540180825580915050600190039060005260206000200160009091909190915060008201518160000160006101000a81548173ffffffffffffffffffffffffffffffffffffffff021916908373ffffffffffffffffffffffffffffffffffffffff16021790555060208201518160000160146101000a81548160ff021916908360ff16021790555060408201518160000160156101000a81548160ff021916908360ff160217905550505050505050565b50805460008255906000526020600020908101906109c591906109c8565b50565b5b80821115610a2a57600080820160006101000a81549073ffffffffffffffffffffffffffffffffffffffff02191690556000820160146101000a81549060ff02191690556000820160156101000a81549060ff0219169055506001016109c9565b5090565b600080fd5b6000819050919050565b610a4681610a33565b8114610a5157600080fd5b50565b600081359050610a6381610a3d565b92915050565b600060208284031215610a7f57610a7e610a2e565b5b6000610a8d84828501610a54565b91505092915050565b600073ffffffffffffffffffffffffffffffffffffffff82169050919050565b6000610ac182610a96565b9050919050565b610ad181610ab6565b82525050565b600060ff82169050919050565b610aed81610ad7565b82525050565b6000606082019050610b086000830186610ac8565b610b156020830185610ae4565b610b226040830184610ae4565b949350505050565b610b3381610a33565b82525050565b600060a082019050610b4e6000830188610b2a565b610b5b6020830187610b2a565b610b686040830186610b2a565b610b756060830185610b2a565b610b826080830184610b2a565b9695505050505050565b610b9581610ad7565b8114610ba057600080fd5b50565b600081359050610bb281610b8c565b92915050565b60008060408385031215610bcf57610bce610a2e565b5b6000610bdd85828601610ba3565b9250506020610bee85828601610ba3565b9150509250929050565b7f4e487b7100000000000000000000000000000000000000000000000000000000600052601160045260246000fd5b6000610c3282610a33565b9150610c3d83610a33565b9250828203905081811115610c5557610c54610bf8565b5b92915050565b7f4e487b7100000000000000000000000000000000000000000000000000000000600052603260045260246000fd5b6000819050919050565b610ca5610ca082610a33565b610c8a565b82525050565b6000819050919050565b6000819050919050565b610cd0610ccb82610cab565b610cb5565b82525050565b60008160f81b9050919050565b6000610cee82610cd6565b9050919050565b610d06610d0182610ad7565b610ce3565b82525050565b60008160601b9050919050565b6000610d2482610d0c565b9050919050565b6000610d3682610d19565b9050919050565b610d4e610d4982610ab6565b610d2b565b82525050565b6000610d608289610c94565b602082019150610d708288610c94565b602082019150610d808287610cbf565b602082019150610d908286610cf5565b600182019150610da08285610d3d565b601482019150610db08284610cf5565b600182019150819050979650505050505050565b7f4e487b7100000000000000000000000000000000000000000000000000000000600052601260045260246000fd5b6000610dfe82610a33565b9150610e0983610a33565b925082610e1957610e18610dc4565b5b828206905092915050565b6000610e2f82610a33565b9150610e3a83610a33565b9250828202610e4881610a33565b91508282048414831517610e5f57610e5e610bf8565b5b5092915050565b6000610e7182610a33565b9150610e7c83610a33565b9250828201905080821115610e9457610e93610bf8565b5b92915050565b6000610ea582610a33565b91507fffffffffffffffffffffffffffffffffffffffffffffffffffffffffffffffff8203610ed757610ed6610bf8565b5b600182019050919050565b6000602082019050610ef76000830184610b2a565b9291505056fea2646970667358221220c9d348da87a7137b8222b35dab16205e57ba064abaf1899d3c53fc1b62735a4364736f6c63430008130033",
  "immutableReferences": {},
  "source": "// SPDX-License-Identifier: MIT\r\npragma solidity ^0.8.19;\r\n\r\ncontract Roulette {\r\n  \r\n  uint betAmount;\r\n  uint necessaryBalance;\r\n  uint nextRoundTimestamp;\r\n  address payable creator;\r\n  uint256 maxAmountAllowedInTheBank;\r\n  mapping (address => uint256) winnings;\r\n  uint8[] payouts;\r\n  uint8[] numberRange;\r\n  \r\n  /*\r\n    BetTypes are as follow:\r\n      0: color\r\n      1: column\r\n      2: dozen\r\n      3: eighteen\r\n      4: modulus\r\n      5: number\r\n      \r\n    Depending on the BetType, number will be:\r\n      color: 0 for black, 1 for red\r\n      column: 0 for left, 1 for middle, 2 for right\r\n      dozen: 0 for first, 1 for second, 2 for third\r\n      eighteen: 0 for low, 1 for high\r\n      modulus: 0 for even, 1 for odd\r\n      number: number\r\n  */\r\n  \r\n  struct Bet {\r\n    address player;\r\n    uint8 betType;\r\n    uint8 number;\r\n  }\r\n  Bet[] public bets;\r\n  \r\n  constructor() payable {\r\n    creator =payable(msg.sender);\r\n    necessaryBalance = 0;\r\n    nextRoundTimestamp = block.timestamp;\r\n    payouts = [2,3,3,2,2,36];\r\n    numberRange = [1,2,2,1,1,36];\r\n    betAmount = 10000000000000000; /* 0.01 ether */\r\n    maxAmountAllowedInTheBank = 2000000000000000000; /* 2 ether */\r\n  }\r\n\r\n  event RandomNumber(uint256 number);\r\n  \r\n  function getStatus() public view returns(uint, uint, uint, uint, uint) {\r\n    return (\r\n      bets.length,             // number of active bets\r\n      bets.length * betAmount, // value of active bets\r\n      nextRoundTimestamp,      // when can we play again\r\n      address(this).balance,   // roulette balance\r\n      winnings[msg.sender]     // winnings of player\r\n    ); \r\n  }\r\n    \r\n  function addEther() payable public {\r\n\r\n  }\r\n\r\n  function bet(uint8 number, uint8 betType) payable public {\r\n    /* \r\n       A bet is valid when:\r\n       1 - the value of the bet is correct (=betAmount)\r\n       2 - betType is known (between 0 and 5)\r\n       3 - the option betted is valid (don't bet on 37!)\r\n       4 - the bank has sufficient funds to pay the bet\r\n    */\r\n    require(msg.value == betAmount);                               // 1\r\n    require(betType >= 0 && betType <= 5);                         // 2\r\n    require(number >= 0 && number <= numberRange[betType]);        // 3\r\n    uint payoutForThisBet = payouts[betType] * msg.value;\r\n    uint provisionalBalance = necessaryBalance + payoutForThisBet;\r\n    require(provisionalBalance < address(this).balance);           // 4\r\n    /* we are good to go */\r\n    necessaryBalance += payoutForThisBet;\r\n    bets.push(Bet({\r\n      betType: betType,\r\n      player: msg.sender,\r\n      number: number\r\n    }));\r\n  }\r\n\r\n  function spinWheel() public payable{\r\n    /* are there any bets? */\r\n    require(bets.length > 0);\r\n\r\n    require(msg.value > 10000000000000000 wei);  \r\n\r\n    /* are we allowed to spin the wheel? */\r\n    require(block.timestamp > nextRoundTimestamp);\r\n\r\n\r\n    /* next time we are allowed to spin the wheel again */\r\n    nextRoundTimestamp = block.timestamp;\r\n\r\n\r\n    /* calculate 'random' number */\r\n    uint diff = block.difficulty;\r\n\r\n    bytes32 hash = blockhash(block.number-1);\r\n    Bet memory lb = bets[bets.length-1];\r\n    uint number = uint(keccak256(abi.encodePacked(block.timestamp, diff, hash, lb.betType, lb.player, lb.number))) % 37;\r\n    /* check every bet for this number */\r\n    for (uint i = 0; i < bets.length; i++) {\r\n      bool won = false;\r\n      Bet memory b = bets[i];\r\n      if (number == 0) {\r\n        won = (b.betType == 5 && b.number == 0);                   /* bet on 0 */\r\n      } else {\r\n        if (b.betType == 5) { \r\n          won = (b.number == number);                              /* bet on number */\r\n        } else if (b.betType == 4) {\r\n          if (b.number == 0) won = (number % 2 == 0);              /* bet on even */\r\n          if (b.number == 1) won = (number % 2 == 1);              /* bet on odd */\r\n        } else if (b.betType == 3) {            \r\n          if (b.number == 0) won = (number <= 18);                 /* bet on low 18s */\r\n          if (b.number == 1) won = (number >= 19);                 /* bet on high 18s */\r\n        } else if (b.betType == 2) {                               \r\n          if (b.number == 0) won = (number <= 12);                 /* bet on 1st dozen */\r\n          if (b.number == 1) won = (number > 12 && number <= 24);  /* bet on 2nd dozen */\r\n          if (b.number == 2) won = (number > 24);                  /* bet on 3rd dozen */\r\n        } else if (b.betType == 1) {               \r\n          if (b.number == 0) won = (number % 3 == 1);              /* bet on left column */\r\n          if (b.number == 1) won = (number % 3 == 2);              /* bet on middle column */\r\n          if (b.number == 2) won = (number % 3 == 0);              /* bet on right column */\r\n        } else if (b.betType == 0) {\r\n          if (b.number == 0) {                                     /* bet on black */\r\n            if (number <= 10 || (number >= 20 && number <= 28)) {\r\n              won = (number % 2 == 0);\r\n            } else {\r\n              won = (number % 2 == 1);\r\n            }\r\n          } else {                                                 /* bet on red */\r\n            if (number <= 10 || (number >= 20 && number <= 28)) {\r\n              won = (number % 2 == 1);\r\n            } else {\r\n              won = (number % 2 == 0);\r\n            }\r\n          }\r\n        }\r\n      }\r\n      /* if winning bet, add to player winnings balance */\r\n      if (won) {\r\n        winnings[b.player] += betAmount * payouts[b.betType];\r\n      }\r\n    }\r\n    /* delete all bets */\r\n    //bets.length = 0;\r\n    delete bets;\r\n    /* reset necessaryBalance */\r\n    necessaryBalance = 0;\r\n    /* check if to much money in the bank */\r\n    //if (address(this).balance > maxAmountAllowedInTheBank) takeProfits();\r\n    /* returns 'random' number to UI */\r\n    emit RandomNumber(number);\r\n  }\r\n\r\n  /*\r\n\r\n  function cashOut() public {\r\n    address payable player = payable(msg.sender);\r\n    uint256 amount = winnings[player];\r\n    require(amount > 0);\r\n    require(amount <= address(this).balance);\r\n    winnings[player] = 0;\r\n    player.transfer(amount);\r\n  }\r\n  \r\n  function takeProfits() internal {\r\n    uint amount = address(this).balance - maxAmountAllowedInTheBank;\r\n    if (amount > 0) creator.transfer(amount);\r\n  }\r\n  \r\n  function creatorKill() public {\r\n    require(msg.sender == creator);\r\n    \r\n    creator.transfer(address(this).balance);\r\n    //selfdestruct(creator);\r\n  }\r\n  */\r\n \r\n}",
  "sourcePath": "C:\\Users\\ddefs\\Desktop\\Universit\\ETHRoulette\\ETHRoulette\\contracts\\Roulette.sol",
  "compiler": {
    "name": "solc",
    "version": "0.8.19+commit.7dd6d404.Emscripten.clang"
  },
  "schemaVersion": "3.4.16",
  "updatedAt": "2024-01-28T15:51:25.221Z",
  "networkType": "ethereum",
  "devdoc": {
    "kind": "dev",
    "methods": {},
    "version": 1
  },
  "userdoc": {
    "kind": "user",
    "methods": {},
    "version": 1
  }
}