{
  "contractName": "Roulette",
  "abi": [
    {
      "inputs": [],
      "stateMutability": "payable",
      "type": "constructor",
      "payable": true
    },
    {
      "inputs": [
        {
          "internalType": "uint256",
          "name": "",
          "type": "uint256"
        }
      ],
      "name": "bets",
      "outputs": [
        {
          "internalType": "address",
          "name": "player",
          "type": "address"
        },
        {
          "internalType": "uint8",
          "name": "betType",
          "type": "uint8"
        },
        {
          "internalType": "uint8",
          "name": "number",
          "type": "uint8"
        }
      ],
      "stateMutability": "view",
      "type": "function",
      "constant": true
    },
    {
      "inputs": [],
      "name": "getStatus",
      "outputs": [
        {
          "internalType": "uint256",
          "name": "",
          "type": "uint256"
        },
        {
          "internalType": "uint256",
          "name": "",
          "type": "uint256"
        },
        {
          "internalType": "uint256",
          "name": "",
          "type": "uint256"
        }
      ],
      "stateMutability": "view",
      "type": "function",
      "constant": true
    },
    {
      "inputs": [
        {
          "internalType": "uint8",
          "name": "number",
          "type": "uint8"
        },
        {
          "internalType": "uint8",
          "name": "betType",
          "type": "uint8"
        }
      ],
      "name": "bet",
      "outputs": [],
      "stateMutability": "payable",
      "type": "function",
      "payable": true
    }
  ],
  "bytecode": "0x608060405233600260006101000a81548173ffffffffffffffffffffffffffffffffffffffff021916908373ffffffffffffffffffffffffffffffffffffffff16021790555060006001819055506040518060c00160405280600260ff168152602001600360ff168152602001600360ff168152602001600260ff168152602001600260ff168152602001602460ff1681525060049060066100a292919061010d565b506040518060c00160405280600160ff168152602001600260ff168152602001600260ff168152602001600160ff168152602001600160ff168152602001602460ff1681525060059060066100f892919061010d565b50670de0b6b3a76400006000819055506101d1565b82805482825590600052602060002090601f016020900481019282156101a35791602002820160005b8382111561017457835183826101000a81548160ff021916908360ff1602179055509260200192600101602081600001049283019260010302610136565b80156101a15782816101000a81549060ff0219169055600101602081600001049283019260010302610174565b505b5090506101b091906101b4565b5090565b5b808211156101cd5760008160009055506001016101b5565b5090565b610511806101e06000396000f3fe6080604052600436106100345760003560e01c806322af00fa146100395780634e69d56014610078578063d773f46e146100a5575b600080fd5b34801561004557600080fd5b50610060600480360381019061005b9190610339565b6100c1565b60405161006f939291906103c3565b60405180910390f35b34801561008457600080fd5b5061008d610131565b60405161009c93929190610409565b60405180910390f35b6100bf60048036038101906100ba919061046c565b610188565b005b600681815481106100d157600080fd5b906000526020600020016000915090508060000160009054906101000a900473ffffffffffffffffffffffffffffffffffffffff16908060000160149054906101000a900460ff16908060000160159054906101000a900460ff16905083565b600080600060068054905047600360003373ffffffffffffffffffffffffffffffffffffffff1673ffffffffffffffffffffffffffffffffffffffff16815260200190815260200160002054925092509250909192565b60005434101561019757600080fd5b60008160ff16101580156101af575060058160ff1611155b6101b857600080fd5b60008260ff1610158015610208575060058160ff16815481106101de576101dd6104ac565b5b90600052602060002090602091828204019190069054906101000a900460ff1660ff168260ff1611155b61021157600080fd5b600660405180606001604052803373ffffffffffffffffffffffffffffffffffffffff1681526020018360ff1681526020018460ff168152509080600181540180825580915050600190039060005260206000200160009091909190915060008201518160000160006101000a81548173ffffffffffffffffffffffffffffffffffffffff021916908373ffffffffffffffffffffffffffffffffffffffff16021790555060208201518160000160146101000a81548160ff021916908360ff16021790555060408201518160000160156101000a81548160ff021916908360ff16021790555050505050565b600080fd5b6000819050919050565b61031681610303565b811461032157600080fd5b50565b6000813590506103338161030d565b92915050565b60006020828403121561034f5761034e6102fe565b5b600061035d84828501610324565b91505092915050565b600073ffffffffffffffffffffffffffffffffffffffff82169050919050565b600061039182610366565b9050919050565b6103a181610386565b82525050565b600060ff82169050919050565b6103bd816103a7565b82525050565b60006060820190506103d86000830186610398565b6103e560208301856103b4565b6103f260408301846103b4565b949350505050565b61040381610303565b82525050565b600060608201905061041e60008301866103fa565b61042b60208301856103fa565b61043860408301846103fa565b949350505050565b610449816103a7565b811461045457600080fd5b50565b60008135905061046681610440565b92915050565b60008060408385031215610483576104826102fe565b5b600061049185828601610457565b92505060206104a285828601610457565b9150509250929050565b7f4e487b7100000000000000000000000000000000000000000000000000000000600052603260045260246000fdfea2646970667358221220228e4da76c074af89bd553aa17231e50f3b9a3689d2b2fd31ddc265a89ac919164736f6c63430008130033",
  "immutableReferences": {},
  "source": "// SPDX-License-Identifier: MIT\r\npragma solidity ^0.8.19;\r\n\r\ncontract Roulette {\r\n    uint betAmount;\r\n    uint necessaryBalance;\r\n    address payable owner;\r\n    mapping(address => uint256) winnings;\r\n    uint8[] payouts;\r\n    uint8[] numberRange;\r\n\r\n    struct Bet {\r\n        address player;\r\n        uint8 betType;\r\n        uint8 number;\r\n    }\r\n    Bet[] public bets;\r\n\r\n    constructor() payable {\r\n        owner = payable(msg.sender);\r\n        necessaryBalance = 0;\r\n        payouts = [2, 3, 3, 2, 2, 36];\r\n        numberRange = [1, 2, 2, 1, 1, 36];\r\n        betAmount = 1 ether;\r\n    }\r\n\r\n    function getStatus() public view returns (uint, uint, uint) {\r\n        return (\r\n            bets.length, // number of active bets\r\n            address(this).balance, // roulette balance\r\n            winnings[msg.sender] // giocatori vincenti\r\n        );\r\n    }\r\n\r\n   // function addEther() public payable {}\r\n   //cazz\r\n   //okay\r\n\r\n    function bet(uint8 number, uint8 betType) public payable {\r\n        require(msg.value >= betAmount);\r\n        require(betType >= 0 && betType <= 5); // 2\r\n        require(number >= 0 && number <= numberRange[betType]);\r\n        bets.push(Bet({betType: betType, player: msg.sender, number: number}));\r\n        \r\n    }\r\n}",
  "sourcePath": "/Users/mac_marco/ETHRoulette/contracts/Roulette.sol",
  "compiler": {
    "name": "solc",
    "version": "0.8.19+commit.7dd6d404.Emscripten.clang"
  },
  "schemaVersion": "3.4.16",
  "updatedAt": "2024-01-17T16:50:15.304Z",
  "networkType": "ethereum",
  "devdoc": {
    "kind": "dev",
    "methods": {},
    "version": 1
  },
  "userdoc": {
    "kind": "user",
    "methods": {},
    "version": 1
  }
}