{
  "contractName": "Roulette",
  "abi": [
    {
      "inputs": [],
      "stateMutability": "payable",
      "type": "constructor",
      "payable": true
    },
    {
      "anonymous": false,
      "inputs": [
        {
          "indexed": false,
          "internalType": "uint256",
          "name": "number",
          "type": "uint256"
        }
      ],
      "name": "RandomNumber",
      "type": "event"
    },
    {
      "inputs": [
        {
          "internalType": "uint256",
          "name": "",
          "type": "uint256"
        }
      ],
      "name": "bets",
      "outputs": [
        {
          "internalType": "address",
          "name": "player",
          "type": "address"
        },
        {
          "internalType": "uint8",
          "name": "betType",
          "type": "uint8"
        },
        {
          "internalType": "uint8",
          "name": "number",
          "type": "uint8"
        }
      ],
      "stateMutability": "view",
      "type": "function",
      "constant": true
    },
    {
      "inputs": [],
      "name": "getStatus",
      "outputs": [
        {
          "internalType": "uint256",
          "name": "",
          "type": "uint256"
        },
        {
          "internalType": "uint256",
          "name": "",
          "type": "uint256"
        },
        {
          "internalType": "uint256",
          "name": "",
          "type": "uint256"
        },
        {
          "internalType": "uint256",
          "name": "",
          "type": "uint256"
        },
        {
          "internalType": "uint256",
          "name": "",
          "type": "uint256"
        }
      ],
      "stateMutability": "view",
      "type": "function",
      "constant": true
    },
    {
      "inputs": [],
      "name": "addEther",
      "outputs": [],
      "stateMutability": "payable",
      "type": "function",
      "payable": true
    },
    {
      "inputs": [
        {
          "internalType": "uint8",
          "name": "number",
          "type": "uint8"
        },
        {
          "internalType": "uint8",
          "name": "betType",
          "type": "uint8"
        }
      ],
      "name": "bet",
      "outputs": [],
      "stateMutability": "payable",
      "type": "function",
      "payable": true
    },
    {
      "inputs": [],
      "name": "spinWheel",
      "outputs": [
        {
          "internalType": "uint256",
          "name": "",
          "type": "uint256"
        }
      ],
      "stateMutability": "pure",
      "type": "function",
      "constant": true
    },
    {
      "inputs": [],
      "name": "cashOut",
      "outputs": [],
      "stateMutability": "nonpayable",
      "type": "function"
    },
    {
      "inputs": [],
      "name": "creatorKill",
      "outputs": [],
      "stateMutability": "nonpayable",
      "type": "function"
    }
  ],
  "bytecode": "0x608060405233600360006101000a81548173ffffffffffffffffffffffffffffffffffffffff021916908373ffffffffffffffffffffffffffffffffffffffff1602179055506000600181905550426002819055506040518060c00160405280600260ff168152602001600360ff168152602001600360ff168152602001600260ff168152602001600260ff168152602001602460ff1681525060069060066100a9929190610122565b506040518060c00160405280600160ff168152602001600260ff168152602001600260ff168152602001600160ff168152602001600160ff168152602001602460ff1681525060079060066100ff929190610122565b50662386f26fc10000600081905550671bc16d674ec800006004819055506101e6565b82805482825590600052602060002090601f016020900481019282156101b85791602002820160005b8382111561018957835183826101000a81548160ff021916908360ff160217905550926020019260010160208160000104928301926001030261014b565b80156101b65782816101000a81549060ff0219169055600101602081600001049283019260010302610189565b505b5090506101c591906101c9565b5090565b5b808211156101e25760008160009055506001016101ca565b5090565b6108f6806101f56000396000f3fe6080604052600436106100705760003560e01c8063793cd71e1161004e578063793cd71e1461010e5780638894dd2b146101255780638c0e554f1461012f578063d773f46e1461014657610070565b806315ecef921461007557806322af00fa146100a05780634e69d560146100df575b600080fd5b34801561008157600080fd5b5061008a610162565b6040516100979190610620565b60405180910390f35b3480156100ac57600080fd5b506100c760048036038101906100c2919061066c565b610170565b6040516100d6939291906106f6565b60405180910390f35b3480156100eb57600080fd5b506100f46101e0565b60405161010595949392919061072d565b60405180910390f35b34801561011a57600080fd5b50610123610256565b005b61012d610349565b005b34801561013b57600080fd5b5061014461034b565b005b610160600480360381019061015b91906107ac565b610410565b005b600080600c90508091505090565b6008818154811061018057600080fd5b906000526020600020016000915090508060000160009054906101000a900473ffffffffffffffffffffffffffffffffffffffff16908060000160149054906101000a900460ff16908060000160159054906101000a900460ff16905083565b6000806000806000600880549050600054600880549050610201919061081b565b60025447600560003373ffffffffffffffffffffffffffffffffffffffff1673ffffffffffffffffffffffffffffffffffffffff16815260200190815260200160002054945094509450945094509091929394565b60003390506000600560008373ffffffffffffffffffffffffffffffffffffffff1673ffffffffffffffffffffffffffffffffffffffff168152602001908152602001600020549050600081116102ac57600080fd5b478111156102b957600080fd5b6000600560008473ffffffffffffffffffffffffffffffffffffffff1673ffffffffffffffffffffffffffffffffffffffff168152602001908152602001600020819055508173ffffffffffffffffffffffffffffffffffffffff166108fc829081150290604051600060405180830381858888f19350505050158015610344573d6000803e3d6000fd5b505050565b565b600360009054906101000a900473ffffffffffffffffffffffffffffffffffffffff1673ffffffffffffffffffffffffffffffffffffffff163373ffffffffffffffffffffffffffffffffffffffff16146103a557600080fd5b600360009054906101000a900473ffffffffffffffffffffffffffffffffffffffff1673ffffffffffffffffffffffffffffffffffffffff166108fc479081150290604051600060405180830381858888f1935050505015801561040d573d6000803e3d6000fd5b50565b600054341461041e57600080fd5b60008160ff1610158015610436575060058160ff1611155b61043f57600080fd5b60008260ff161015801561048f575060078160ff16815481106104655761046461085d565b5b90600052602060002090602091828204019190069054906101000a900460ff1660ff168260ff1611155b61049857600080fd5b60003460068360ff16815481106104b2576104b161085d565b5b90600052602060002090602091828204019190069054906101000a900460ff1660ff166104df919061081b565b90506000816001546104f1919061088c565b90504781106104ff57600080fd5b8160016000828254610511919061088c565b92505081905550600860405180606001604052803373ffffffffffffffffffffffffffffffffffffffff1681526020018560ff1681526020018660ff168152509080600181540180825580915050600190039060005260206000200160009091909190915060008201518160000160006101000a81548173ffffffffffffffffffffffffffffffffffffffff021916908373ffffffffffffffffffffffffffffffffffffffff16021790555060208201518160000160146101000a81548160ff021916908360ff16021790555060408201518160000160156101000a81548160ff021916908360ff160217905550505050505050565b6000819050919050565b61061a81610607565b82525050565b60006020820190506106356000830184610611565b92915050565b600080fd5b61064981610607565b811461065457600080fd5b50565b60008135905061066681610640565b92915050565b6000602082840312156106825761068161063b565b5b600061069084828501610657565b91505092915050565b600073ffffffffffffffffffffffffffffffffffffffff82169050919050565b60006106c482610699565b9050919050565b6106d4816106b9565b82525050565b600060ff82169050919050565b6106f0816106da565b82525050565b600060608201905061070b60008301866106cb565b61071860208301856106e7565b61072560408301846106e7565b949350505050565b600060a0820190506107426000830188610611565b61074f6020830187610611565b61075c6040830186610611565b6107696060830185610611565b6107766080830184610611565b9695505050505050565b610789816106da565b811461079457600080fd5b50565b6000813590506107a681610780565b92915050565b600080604083850312156107c3576107c261063b565b5b60006107d185828601610797565b92505060206107e285828601610797565b9150509250929050565b7f4e487b7100000000000000000000000000000000000000000000000000000000600052601160045260246000fd5b600061082682610607565b915061083183610607565b925082820261083f81610607565b91508282048414831517610856576108556107ec565b5b5092915050565b7f4e487b7100000000000000000000000000000000000000000000000000000000600052603260045260246000fd5b600061089782610607565b91506108a283610607565b92508282019050808211156108ba576108b96107ec565b5b9291505056fea2646970667358221220a982c0cd0b44bbb3dce2de2edea9ab40cff050a48953a539904642b6bcf3345264736f6c63430008130033",
  "immutableReferences": {},
  "source": "// SPDX-License-Identifier: MIT\r\npragma solidity ^0.8.19;\r\n\r\ncontract Roulette {\r\n  \r\n  uint betAmount;\r\n  uint necessaryBalance;\r\n  uint nextRoundTimestamp;\r\n  address payable creator;\r\n  uint256 maxAmountAllowedInTheBank;\r\n  mapping (address => uint256) winnings;\r\n  uint8[] payouts;\r\n  uint8[] numberRange;\r\n  \r\n  /*\r\n    BetTypes are as follow:\r\n      0: color\r\n      1: column\r\n      2: dozen\r\n      3: eighteen\r\n      4: modulus\r\n      5: number\r\n      \r\n    Depending on the BetType, number will be:\r\n      color: 0 for black, 1 for red\r\n      column: 0 for left, 1 for middle, 2 for right\r\n      dozen: 0 for first, 1 for second, 2 for third\r\n      eighteen: 0 for low, 1 for high\r\n      modulus: 0 for even, 1 for odd\r\n      number: number\r\n  */\r\n  \r\n  struct Bet {\r\n    address player;\r\n    uint8 betType;\r\n    uint8 number;\r\n  }\r\n  Bet[] public bets;\r\n  \r\n  constructor() payable {\r\n    creator =payable(msg.sender);\r\n    necessaryBalance = 0;\r\n    nextRoundTimestamp = block.timestamp;\r\n    payouts = [2,3,3,2,2,36];\r\n    numberRange = [1,2,2,1,1,36];\r\n    betAmount = 10000000000000000; /* 0.01 ether */\r\n    maxAmountAllowedInTheBank = 2000000000000000000; /* 2 ether */\r\n  }\r\n\r\n  event RandomNumber(uint256 number);\r\n  \r\n  function getStatus() public view returns(uint, uint, uint, uint, uint) {\r\n    return (\r\n      bets.length,             // number of active bets\r\n      bets.length * betAmount, // value of active bets\r\n      nextRoundTimestamp,      // when can we play again\r\n      address(this).balance,   // roulette balance\r\n      winnings[msg.sender]     // winnings of player\r\n    ); \r\n  }\r\n    \r\n  function addEther() payable public {}\r\n\r\n  function bet(uint8 number, uint8 betType) payable public {\r\n    /* \r\n       A bet is valid when:\r\n       1 - the value of the bet is correct (=betAmount)\r\n       2 - betType is known (between 0 and 5)\r\n       3 - the option betted is valid (don't bet on 37!)\r\n       4 - the bank has sufficient funds to pay the bet\r\n    */\r\n    require(msg.value == betAmount);                               // 1\r\n    require(betType >= 0 && betType <= 5);                         // 2\r\n    require(number >= 0 && number <= numberRange[betType]);        // 3\r\n    uint payoutForThisBet = payouts[betType] * msg.value;\r\n    uint provisionalBalance = necessaryBalance + payoutForThisBet;\r\n    require(provisionalBalance < address(this).balance);           // 4\r\n    /* we are good to go */\r\n    necessaryBalance += payoutForThisBet;\r\n    bets.push(Bet({\r\n      betType: betType,\r\n      player: msg.sender,\r\n      number: number\r\n    }));\r\n  }\r\n\r\n  function spinWheel() public pure returns (uint){\r\n    \r\n    uint number;\r\n    \r\n    number= 12;\r\n    return number;\r\n  }\r\n  \r\n  function cashOut() public {\r\n    address payable player = payable(msg.sender);\r\n    uint256 amount = winnings[player];\r\n    require(amount > 0);\r\n    require(amount <= address(this).balance);\r\n    winnings[player] = 0;\r\n    player.transfer(amount);\r\n  }\r\n  \r\n  function takeProfits() internal {\r\n    uint amount = address(this).balance - maxAmountAllowedInTheBank;\r\n    if (amount > 0) creator.transfer(amount);\r\n  }\r\n  \r\n  function creatorKill() public {\r\n    require(msg.sender == creator);\r\n    \r\n    creator.transfer(address(this).balance);\r\n    //selfdestruct(creator);\r\n  }\r\n \r\n}",
  "sourcePath": "/Users/mac_marco/ETHRoulette/contracts/Roulette.sol",
  "compiler": {
    "name": "solc",
    "version": "0.8.19+commit.7dd6d404.Emscripten.clang"
  },
  "schemaVersion": "3.4.16",
  "updatedAt": "2024-01-23T16:13:44.794Z",
  "networkType": "ethereum",
  "devdoc": {
    "kind": "dev",
    "methods": {},
    "version": 1
  },
  "userdoc": {
    "kind": "user",
    "methods": {},
    "version": 1
  }
}