{
  "contractName": "Roulette",
  "abi": [
    {
      "inputs": [],
      "stateMutability": "payable",
      "type": "constructor",
      "payable": true
    },
    {
      "anonymous": false,
      "inputs": [
        {
          "indexed": false,
          "internalType": "uint256",
          "name": "number",
          "type": "uint256"
        }
      ],
      "name": "RandomNumber",
      "type": "event"
    },
    {
      "anonymous": false,
      "inputs": [
        {
          "indexed": false,
          "internalType": "string",
          "name": "",
          "type": "string"
        },
        {
          "indexed": false,
          "internalType": "address",
          "name": "",
          "type": "address"
        }
      ],
      "name": "existingPlayer",
      "type": "event"
    },
    {
      "anonymous": false,
      "inputs": [
        {
          "indexed": false,
          "internalType": "string",
          "name": "",
          "type": "string"
        },
        {
          "indexed": false,
          "internalType": "address",
          "name": "",
          "type": "address"
        },
        {
          "indexed": false,
          "internalType": "uint256",
          "name": "",
          "type": "uint256"
        }
      ],
      "name": "newPlayer",
      "type": "event"
    },
    {
      "inputs": [],
      "name": "addEther",
      "outputs": [
        {
          "internalType": "bool",
          "name": "",
          "type": "bool"
        }
      ],
      "stateMutability": "payable",
      "type": "function",
      "payable": true
    },
    {
      "inputs": [
        {
          "internalType": "string",
          "name": "_name",
          "type": "string"
        }
      ],
      "name": "addPlayer",
      "outputs": [
        {
          "internalType": "bool",
          "name": "",
          "type": "bool"
        }
      ],
      "stateMutability": "nonpayable",
      "type": "function"
    },
    {
      "inputs": [
        {
          "internalType": "address",
          "name": "",
          "type": "address"
        }
      ],
      "name": "addToPlayer",
      "outputs": [
        {
          "internalType": "string",
          "name": "username",
          "type": "string"
        },
        {
          "internalType": "uint256",
          "name": "game",
          "type": "uint256"
        },
        {
          "internalType": "uint256",
          "name": "maxWin",
          "type": "uint256"
        },
        {
          "internalType": "uint256",
          "name": "totalCashFlow",
          "type": "uint256"
        },
        {
          "internalType": "uint256",
          "name": "cashInBank",
          "type": "uint256"
        },
        {
          "internalType": "address",
          "name": "addPlayer",
          "type": "address"
        },
        {
          "internalType": "bool",
          "name": "exist",
          "type": "bool"
        }
      ],
      "stateMutability": "view",
      "type": "function",
      "constant": true
    },
    {
      "inputs": [
        {
          "internalType": "uint256",
          "name": "",
          "type": "uint256"
        }
      ],
      "name": "bets",
      "outputs": [
        {
          "internalType": "address",
          "name": "player",
          "type": "address"
        },
        {
          "internalType": "uint8",
          "name": "betType",
          "type": "uint8"
        },
        {
          "internalType": "uint8",
          "name": "number",
          "type": "uint8"
        }
      ],
      "stateMutability": "view",
      "type": "function",
      "constant": true
    },
    {
      "inputs": [],
      "name": "cashOut",
      "outputs": [],
      "stateMutability": "nonpayable",
      "type": "function"
    },
    {
      "inputs": [],
      "name": "getStato",
      "outputs": [
        {
          "internalType": "uint256",
          "name": "",
          "type": "uint256"
        },
        {
          "internalType": "uint256",
          "name": "",
          "type": "uint256"
        }
      ],
      "stateMutability": "view",
      "type": "function",
      "constant": true
    },
    {
      "inputs": [],
      "name": "getStatoUtente",
      "outputs": [
        {
          "internalType": "string",
          "name": "",
          "type": "string"
        },
        {
          "internalType": "uint256",
          "name": "",
          "type": "uint256"
        },
        {
          "internalType": "uint256",
          "name": "",
          "type": "uint256"
        },
        {
          "internalType": "uint256",
          "name": "",
          "type": "uint256"
        },
        {
          "internalType": "uint256",
          "name": "",
          "type": "uint256"
        },
        {
          "internalType": "address",
          "name": "",
          "type": "address"
        }
      ],
      "stateMutability": "view",
      "type": "function",
      "constant": true
    },
    {
      "inputs": [
        {
          "internalType": "address",
          "name": "",
          "type": "address"
        }
      ],
      "name": "indirizzoEsiste",
      "outputs": [
        {
          "internalType": "bool",
          "name": "",
          "type": "bool"
        }
      ],
      "stateMutability": "view",
      "type": "function",
      "constant": true
    },
    {
      "inputs": [
        {
          "internalType": "string",
          "name": "_username",
          "type": "string"
        }
      ],
      "name": "setUsername",
      "outputs": [
        {
          "internalType": "string",
          "name": "",
          "type": "string"
        }
      ],
      "stateMutability": "nonpayable",
      "type": "function"
    },
    {
      "inputs": [],
      "name": "getStatus",
      "outputs": [
        {
          "internalType": "uint256",
          "name": "",
          "type": "uint256"
        },
        {
          "internalType": "uint256",
          "name": "",
          "type": "uint256"
        },
        {
          "internalType": "uint256",
          "name": "",
          "type": "uint256"
        },
        {
          "internalType": "uint256",
          "name": "",
          "type": "uint256"
        }
      ],
      "stateMutability": "view",
      "type": "function",
      "constant": true
    },
    {
      "inputs": [
        {
          "internalType": "uint8",
          "name": "number",
          "type": "uint8"
        },
        {
          "internalType": "uint8",
          "name": "betType",
          "type": "uint8"
        }
      ],
      "name": "bet",
      "outputs": [],
      "stateMutability": "payable",
      "type": "function",
      "payable": true
    },
    {
      "inputs": [],
      "name": "spinWheel",
      "outputs": [],
      "stateMutability": "payable",
      "type": "function",
      "payable": true
    }
  ],
  "bytecode": "0x6080604052670de0b6b3a764000060015530600260006101000a81548173ffffffffffffffffffffffffffffffffffffffff021916908373ffffffffffffffffffffffffffffffffffffffff160217905550336000806101000a81548173ffffffffffffffffffffffffffffffffffffffff021916908373ffffffffffffffffffffffffffffffffffffffff1602179055506000600681905550426007819055506040518060c00160405280600260ff168152602001600360ff168152602001600360ff168152602001600260ff168152602001600260ff168152602001602460ff16815250600a906006620000f792919062000173565b506040518060c00160405280600160ff168152602001600260ff168152602001600260ff168152602001600160ff168152602001600160ff168152602001602460ff16815250600b9060066200014f92919062000173565b50662386f26fc10000600581905550671bc16d674ec8000060088190555062000240565b82805482825590600052602060002090601f016020900481019282156200020e5791602002820160005b83821115620001dd57835183826101000a81548160ff021916908360ff16021790555092602001926001016020816000010492830192600103026200019d565b80156200020c5782816101000a81549060ff0219169055600101602081600001049283019260010302620001dd565b505b5090506200021d919062000221565b5090565b5b808211156200023c57600081600090555060010162000222565b5090565b612afa80620002506000396000f3fe6080604052600436106100a75760003560e01c8063cf108a6b11610064578063cf108a6b1461019b578063d773f46e146101d8578063ed59313a146101f4578063f3bd38fa14610231578063f77e8b831461025d578063fbb83ddb1461029a576100a7565b806315ecef92146100ac57806322af00fa146100b657806347478d52146100f55780634e69d56014610138578063793cd71e146101665780638894dd2b1461017d575b600080fd5b6100b46102ca565b005b3480156100c257600080fd5b506100dd60048036038101906100d891906118d6565b610a66565b6040516100ec93929190611960565b60405180910390f35b34801561010157600080fd5b5061011c600480360381019061011791906119c3565b610ad6565b60405161012f9796959493929190611aaa565b60405180910390f35b34801561014457600080fd5b5061014d610bcd565b60405161015d9493929190611b20565b60405180910390f35b34801561017257600080fd5b5061017b610c3d565b005b610185610deb565b6040516101929190611b65565b60405180910390f35b3480156101a757600080fd5b506101c260048036038101906101bd91906119c3565b610e36565b6040516101cf9190611b65565b60405180910390f35b6101f260048036038101906101ed9190611bac565b610e56565b005b34801561020057600080fd5b5061021b60048036038101906102169190611d21565b611125565b6040516102289190611d6a565b60405180910390f35b34801561023d57600080fd5b50610246611255565b604051610254929190611d8c565b60405180910390f35b34801561026957600080fd5b50610284600480360381019061027f9190611d21565b611277565b6040516102919190611b65565b60405180910390f35b3480156102a657600080fd5b506102af6114da565b6040516102c196959493929190611db5565b60405180910390f35b6000600c8054905011610312576040517f08c379a000000000000000000000000000000000000000000000000000000000815260040161030990611e69565b60405180910390fd5b6007544211610356576040517f08c379a000000000000000000000000000000000000000000000000000000000815260040161034d90611efb565b60405180910390fd5b42600781905550600044905060006001436103719190611f4a565b4090506000600c6001600c8054905061038a9190611f4a565b8154811061039b5761039a611f7e565b5b906000526020600020016040518060600160405290816000820160009054906101000a900473ffffffffffffffffffffffffffffffffffffffff1673ffffffffffffffffffffffffffffffffffffffff1673ffffffffffffffffffffffffffffffffffffffff1681526020016000820160149054906101000a900460ff1660ff1660ff1681526020016000820160159054906101000a900460ff1660ff1660ff168152505090506000602542858585602001518660000151876040015160405160200161046d96959493929190612077565b6040516020818303038152906040528051906020012060001c6104909190612116565b905060005b600c80549050811015610a1257600080600c83815481106104b9576104b8611f7e565b5b906000526020600020016040518060600160405290816000820160009054906101000a900473ffffffffffffffffffffffffffffffffffffffff1673ffffffffffffffffffffffffffffffffffffffff1673ffffffffffffffffffffffffffffffffffffffff1681526020016000820160149054906101000a900460ff1660ff1660ff1681526020016000820160159054906101000a900460ff1660ff1660ff168152505090506000840361058d576005816020015160ff1614801561058657506000816040015160ff16145b91506107ea565b6005816020015160ff16036105ad5783816040015160ff161491506107e9565b6004816020015160ff1603610605576000816040015160ff16036105de5760006002856105da9190612116565b1491505b6001816040015160ff16036106005760016002856105fc9190612116565b1491505b6107e8565b6003816020015160ff1603610647576000816040015160ff160361062b57601284111591505b6001816040015160ff160361064257601384101591505b6107e7565b6002816020015160ff16036106ab576000816040015160ff160361066d57600c84111591505b6001816040015160ff160361069057600c8411801561068d575060188411155b91505b6002816040015160ff16036106a6576018841191505b6107e6565b6001816020015160ff1603610725576000816040015160ff16036106dc5760016003856106d89190612116565b1491505b6001816040015160ff16036106fe5760026003856106fa9190612116565b1491505b6002816040015160ff160361072057600060038561071c9190612116565b1491505b6107e5565b6000816020015160ff16036107e4576000816040015160ff160361079557600a841115806107615750601484101580156107605750601c8411155b5b1561077d5760006002856107759190612116565b149150610790565b600160028561078c9190612116565b1491505b6107e3565b600a841115806107b35750601484101580156107b25750601c8411155b5b156107cf5760016002856107c79190612116565b1491506107e2565b60006002856107de9190612116565b1491505b5b5b5b5b5b5b5b5b811561099e57600a816020015160ff168154811061080b5761080a611f7e565b5b90600052602060002090602091828204019190069054906101000a900460ff1660ff1660055461083b9190612147565b60096000836000015173ffffffffffffffffffffffffffffffffffffffff1673ffffffffffffffffffffffffffffffffffffffff168152602001908152602001600020600082825461088d9190612189565b92505081905550600160036000836000015173ffffffffffffffffffffffffffffffffffffffff1673ffffffffffffffffffffffffffffffffffffffff16815260200190815260200160002060010160008282546108eb9190612189565b92505081905550600a816020015160ff168154811061090d5761090c611f7e565b5b90600052602060002090602091828204019190069054906101000a900460ff1660ff1660055461093d9190612147565b60036000836000015173ffffffffffffffffffffffffffffffffffffffff1673ffffffffffffffffffffffffffffffffffffffff16815260200190815260200160002060040160008282546109929190612189565b925050819055506109fd565b600160036000836000015173ffffffffffffffffffffffffffffffffffffffff1673ffffffffffffffffffffffffffffffffffffffff16815260200190815260200160002060010160008282546109f59190612189565b925050819055505b50508080610a0a906121bd565b915050610495565b50600c6000610a219190611805565b60006006819055507fec6cdc8e735e4069f6e89062582f3e5532a8e71373e7ef2962fa916cf2af21f281604051610a589190612205565b60405180910390a150505050565b600c8181548110610a7657600080fd5b906000526020600020016000915090508060000160009054906101000a900473ffffffffffffffffffffffffffffffffffffffff16908060000160149054906101000a900460ff16908060000160159054906101000a900460ff16905083565b6003602052806000526040600020600091509050806000018054610af99061224f565b80601f0160208091040260200160405190810160405280929190818152602001828054610b259061224f565b8015610b725780601f10610b4757610100808354040283529160200191610b72565b820191906000526020600020905b815481529060010190602001808311610b5557829003601f168201915b5050505050908060010154908060020154908060030154908060040154908060050160009054906101000a900473ffffffffffffffffffffffffffffffffffffffff16908060050160149054906101000a900460ff16905087565b600080600080600c80549050600554600c80549050610bec9190612147565b600754600960003373ffffffffffffffffffffffffffffffffffffffff1673ffffffffffffffffffffffffffffffffffffffff16815260200190815260200160002054935093509350935090919293565b6000600360003373ffffffffffffffffffffffffffffffffffffffff1673ffffffffffffffffffffffffffffffffffffffff1681526020019081526020016000206004015411610cc2576040517f08c379a0000000000000000000000000000000000000000000000000000000008152600401610cb9906122cc565b60405180910390fd5b47600360003373ffffffffffffffffffffffffffffffffffffffff1673ffffffffffffffffffffffffffffffffffffffff168152602001908152602001600020600401541115610d47576040517f08c379a0000000000000000000000000000000000000000000000000000000008152600401610d3e9061235e565b60405180910390fd5b60003390508073ffffffffffffffffffffffffffffffffffffffff166108fc670de0b6b3a7640000600360003373ffffffffffffffffffffffffffffffffffffffff1673ffffffffffffffffffffffffffffffffffffffff16815260200190815260200160002060040154610dbc9190612147565b9081150290604051600060405180830381858888f19350505050158015610de7573d6000803e3d6000fd5b5050565b6000803411610e2f576040517f08c379a0000000000000000000000000000000000000000000000000000000008152600401610e26906123f0565b60405180910390fd5b6001905090565b60046020528060005260406000206000915054906101000a900460ff1681565b6005543414610e9a576040517f08c379a0000000000000000000000000000000000000000000000000000000008152600401610e919061245c565b60405180910390fd5b60008160ff1610158015610eb2575060058160ff1611155b610ef1576040517f08c379a0000000000000000000000000000000000000000000000000000000008152600401610ee8906124ee565b60405180910390fd5b60008260ff1610158015610f415750600b8160ff1681548110610f1757610f16611f7e565b5b90600052602060002090602091828204019190069054906101000a900460ff1660ff168260ff1611155b610f80576040517f08c379a0000000000000000000000000000000000000000000000000000000008152600401610f7790612580565b60405180910390fd5b600034600a8360ff1681548110610f9a57610f99611f7e565b5b90600052602060002090602091828204019190069054906101000a900460ff1660ff16610fc79190612147565b9050600081600654610fd99190612189565b905047811061101d576040517f08c379a000000000000000000000000000000000000000000000000000000000815260040161101490612612565b60405180910390fd5b816006600082825461102f9190612189565b92505081905550600c60405180606001604052803373ffffffffffffffffffffffffffffffffffffffff1681526020018560ff1681526020018660ff168152509080600181540180825580915050600190039060005260206000200160009091909190915060008201518160000160006101000a81548173ffffffffffffffffffffffffffffffffffffffff021916908373ffffffffffffffffffffffffffffffffffffffff16021790555060208201518160000160146101000a81548160ff021916908360ff16021790555060408201518160000160156101000a81548160ff021916908360ff160217905550505050505050565b60603373ffffffffffffffffffffffffffffffffffffffff16600360003373ffffffffffffffffffffffffffffffffffffffff1673ffffffffffffffffffffffffffffffffffffffff16815260200190815260200160002060050160009054906101000a900473ffffffffffffffffffffffffffffffffffffffff1673ffffffffffffffffffffffffffffffffffffffff16146111f7576040517f08c379a00000000000000000000000000000000000000000000000000000000081526004016111ee906126a4565b60405180910390fd5b600082905080600360003373ffffffffffffffffffffffffffffffffffffffff1673ffffffffffffffffffffffffffffffffffffffff168152602001908152602001600020600001908161124b9190612870565b5080915050919050565b600080670de0b6b3a76400004761126c9190612942565b600154915091509091565b6000801515600360003373ffffffffffffffffffffffffffffffffffffffff1673ffffffffffffffffffffffffffffffffffffffff16815260200190815260200160002060050160149054906101000a900460ff1615151461130e576040517f08c379a0000000000000000000000000000000000000000000000000000000008152600401611305906129bf565b60405180910390fd5b6000825111611352576040517f08c379a000000000000000000000000000000000000000000000000000000000815260040161134990612a2b565b60405180910390fd5b600033905060006040518060e00160405280858152602001600081526020016000815260200160008152602001600081526020018373ffffffffffffffffffffffffffffffffffffffff16815260200160011515815250905080600360008473ffffffffffffffffffffffffffffffffffffffff1673ffffffffffffffffffffffffffffffffffffffff16815260200190815260200160002060008201518160000190816114009190612870565b506020820151816001015560408201518160020155606082015181600301556080820151816004015560a08201518160050160006101000a81548173ffffffffffffffffffffffffffffffffffffffff021916908373ffffffffffffffffffffffffffffffffffffffff16021790555060c08201518160050160146101000a81548160ff0219169083151502179055509050507f05a7620959db0b35c22d0875ba544f7330a46562081bb2e33509281902568657848360006040516114c793929190612a86565b60405180910390a1600192505050919050565b606060008060008060003373ffffffffffffffffffffffffffffffffffffffff16600360003373ffffffffffffffffffffffffffffffffffffffff1673ffffffffffffffffffffffffffffffffffffffff16815260200190815260200160002060050160009054906101000a900473ffffffffffffffffffffffffffffffffffffffff1673ffffffffffffffffffffffffffffffffffffffff16146115b4576040517f08c379a00000000000000000000000000000000000000000000000000000000081526004016115ab906126a4565b60405180910390fd5b600360003373ffffffffffffffffffffffffffffffffffffffff1673ffffffffffffffffffffffffffffffffffffffff168152602001908152602001600020600001600360003373ffffffffffffffffffffffffffffffffffffffff1673ffffffffffffffffffffffffffffffffffffffff16815260200190815260200160002060010154600360003373ffffffffffffffffffffffffffffffffffffffff1673ffffffffffffffffffffffffffffffffffffffff16815260200190815260200160002060020154600360003373ffffffffffffffffffffffffffffffffffffffff1673ffffffffffffffffffffffffffffffffffffffff16815260200190815260200160002060030154600360003373ffffffffffffffffffffffffffffffffffffffff1673ffffffffffffffffffffffffffffffffffffffff16815260200190815260200160002060040154600360003373ffffffffffffffffffffffffffffffffffffffff1673ffffffffffffffffffffffffffffffffffffffff16815260200190815260200160002060050160009054906101000a900473ffffffffffffffffffffffffffffffffffffffff168580546117719061224f565b80601f016020809104026020016040519081016040528092919081815260200182805461179d9061224f565b80156117ea5780601f106117bf576101008083540402835291602001916117ea565b820191906000526020600020905b8154815290600101906020018083116117cd57829003601f168201915b50505050509550955095509550955095509550909192939495565b50805460008255906000526020600020908101906118239190611826565b50565b5b8082111561188857600080820160006101000a81549073ffffffffffffffffffffffffffffffffffffffff02191690556000820160146101000a81549060ff02191690556000820160156101000a81549060ff021916905550600101611827565b5090565b6000604051905090565b600080fd5b600080fd5b6000819050919050565b6118b3816118a0565b81146118be57600080fd5b50565b6000813590506118d0816118aa565b92915050565b6000602082840312156118ec576118eb611896565b5b60006118fa848285016118c1565b91505092915050565b600073ffffffffffffffffffffffffffffffffffffffff82169050919050565b600061192e82611903565b9050919050565b61193e81611923565b82525050565b600060ff82169050919050565b61195a81611944565b82525050565b60006060820190506119756000830186611935565b6119826020830185611951565b61198f6040830184611951565b949350505050565b6119a081611923565b81146119ab57600080fd5b50565b6000813590506119bd81611997565b92915050565b6000602082840312156119d9576119d8611896565b5b60006119e7848285016119ae565b91505092915050565b600081519050919050565b600082825260208201905092915050565b60005b83811015611a2a578082015181840152602081019050611a0f565b60008484015250505050565b6000601f19601f8301169050919050565b6000611a52826119f0565b611a5c81856119fb565b9350611a6c818560208601611a0c565b611a7581611a36565b840191505092915050565b611a89816118a0565b82525050565b60008115159050919050565b611aa481611a8f565b82525050565b600060e0820190508181036000830152611ac4818a611a47565b9050611ad36020830189611a80565b611ae06040830188611a80565b611aed6060830187611a80565b611afa6080830186611a80565b611b0760a0830185611935565b611b1460c0830184611a9b565b98975050505050505050565b6000608082019050611b356000830187611a80565b611b426020830186611a80565b611b4f6040830185611a80565b611b5c6060830184611a80565b95945050505050565b6000602082019050611b7a6000830184611a9b565b92915050565b611b8981611944565b8114611b9457600080fd5b50565b600081359050611ba681611b80565b92915050565b60008060408385031215611bc357611bc2611896565b5b6000611bd185828601611b97565b9250506020611be285828601611b97565b9150509250929050565b600080fd5b600080fd5b7f4e487b7100000000000000000000000000000000000000000000000000000000600052604160045260246000fd5b611c2e82611a36565b810181811067ffffffffffffffff82111715611c4d57611c4c611bf6565b5b80604052505050565b6000611c6061188c565b9050611c6c8282611c25565b919050565b600067ffffffffffffffff821115611c8c57611c8b611bf6565b5b611c9582611a36565b9050602081019050919050565b82818337600083830152505050565b6000611cc4611cbf84611c71565b611c56565b905082815260208101848484011115611ce057611cdf611bf1565b5b611ceb848285611ca2565b509392505050565b600082601f830112611d0857611d07611bec565b5b8135611d18848260208601611cb1565b91505092915050565b600060208284031215611d3757611d36611896565b5b600082013567ffffffffffffffff811115611d5557611d5461189b565b5b611d6184828501611cf3565b91505092915050565b60006020820190508181036000830152611d848184611a47565b905092915050565b6000604082019050611da16000830185611a80565b611dae6020830184611a80565b9392505050565b600060c0820190508181036000830152611dcf8189611a47565b9050611dde6020830188611a80565b611deb6040830187611a80565b611df86060830186611a80565b611e056080830185611a80565b611e1260a0830184611935565b979650505050505050565b7f6e6f6e20636920736f6e6f2067696f6361746500000000000000000000000000600082015250565b6000611e536013836119fb565b9150611e5e82611e1d565b602082019050919050565b60006020820190508181036000830152611e8281611e46565b9050919050565b7f6e6f6e2065207061737361746f20616262617374616e7a612074656d706f207060008201527f657220706f74657220726967696f636172650000000000000000000000000000602082015250565b6000611ee56032836119fb565b9150611ef082611e89565b604082019050919050565b60006020820190508181036000830152611f1481611ed8565b9050919050565b7f4e487b7100000000000000000000000000000000000000000000000000000000600052601160045260246000fd5b6000611f55826118a0565b9150611f60836118a0565b9250828203905081811115611f7857611f77611f1b565b5b92915050565b7f4e487b7100000000000000000000000000000000000000000000000000000000600052603260045260246000fd5b6000819050919050565b611fc8611fc3826118a0565b611fad565b82525050565b6000819050919050565b6000819050919050565b611ff3611fee82611fce565b611fd8565b82525050565b60008160f81b9050919050565b600061201182611ff9565b9050919050565b61202961202482611944565b612006565b82525050565b60008160601b9050919050565b60006120478261202f565b9050919050565b60006120598261203c565b9050919050565b61207161206c82611923565b61204e565b82525050565b60006120838289611fb7565b6020820191506120938288611fb7565b6020820191506120a38287611fe2565b6020820191506120b38286612018565b6001820191506120c38285612060565b6014820191506120d38284612018565b600182019150819050979650505050505050565b7f4e487b7100000000000000000000000000000000000000000000000000000000600052601260045260246000fd5b6000612121826118a0565b915061212c836118a0565b92508261213c5761213b6120e7565b5b828206905092915050565b6000612152826118a0565b915061215d836118a0565b925082820261216b816118a0565b9150828204841483151761218257612181611f1b565b5b5092915050565b6000612194826118a0565b915061219f836118a0565b92508282019050808211156121b7576121b6611f1b565b5b92915050565b60006121c8826118a0565b91507fffffffffffffffffffffffffffffffffffffffffffffffffffffffffffffffff82036121fa576121f9611f1b565b5b600182019050919050565b600060208201905061221a6000830184611a80565b92915050565b7f4e487b7100000000000000000000000000000000000000000000000000000000600052602260045260246000fd5b6000600282049050600182168061226757607f821691505b60208210810361227a57612279612220565b5b50919050565b7f6e6f6e2068616920736f6c6469206461207072656c6576617265000000000000600082015250565b60006122b6601a836119fb565b91506122c182612280565b602082019050919050565b600060208201905081810360008301526122e5816122a9565b9050919050565b7f6e6f6e20736920736f6e6f20616262617374616e7a6120666f6e7369206e656c60008201527f20636f6e74726174746f20706572207061676172746900000000000000000000602082015250565b60006123486036836119fb565b9150612353826122ec565b604082019050919050565b600060208201905081810360008301526123778161233b565b9050919050565b7f6e6f6e2070756f69207472617366657269726520756e61207175616e7469746160008201527f2070617269206120300000000000000000000000000000000000000000000000602082015250565b60006123da6029836119fb565b91506123e58261237e565b604082019050919050565b60006020820190508181036000830152612409816123cd565b9050919050565b7f6e6f6e20686169207665727361746f20616262617374616e7a6120666f6e6469600082015250565b60006124466020836119fb565b915061245182612410565b602082019050919050565b6000602082019050818103600083015261247581612439565b9050919050565b7f6e6f6e2068616920696e73657269746f206c61206769757374612067696f636160008201527f7461000000000000000000000000000000000000000000000000000000000000602082015250565b60006124d86022836119fb565b91506124e38261247c565b604082019050919050565b60006020820190508181036000830152612507816124cb565b9050919050565b7f636865206e756d65726f2064692067696f63617461206861692073656c657a6960008201527f6f6e61746f3f0000000000000000000000000000000000000000000000000000602082015250565b600061256a6026836119fb565b91506125758261250e565b604082019050919050565b600060208201905081810360008301526125998161255d565b9050919050565b7f6c612062616e6361206e6f6e20686120616262617374616e7a6120666f6e646960008201527f2064612064617274692073652076696e63657373690000000000000000000000602082015250565b60006125fc6035836119fb565b9150612607826125a0565b604082019050919050565b6000602082019050818103600083015261262b816125ef565b9050919050565b7f4c27696e646972697a7a6f206e6f6e20657369737465206e656c206d6170706960008201527f6e67206f206e6f6e20636f6d62616369616e6f00000000000000000000000000602082015250565b600061268e6033836119fb565b915061269982612632565b604082019050919050565b600060208201905081810360008301526126bd81612681565b9050919050565b60008190508160005260206000209050919050565b60006020601f8301049050919050565b600082821b905092915050565b6000600883026127267fffffffffffffffffffffffffffffffffffffffffffffffffffffffffffffffff826126e9565b61273086836126e9565b95508019841693508086168417925050509392505050565b6000819050919050565b600061276d612768612763846118a0565b612748565b6118a0565b9050919050565b6000819050919050565b61278783612752565b61279b61279382612774565b8484546126f6565b825550505050565b600090565b6127b06127a3565b6127bb81848461277e565b505050565b5b818110156127df576127d46000826127a8565b6001810190506127c1565b5050565b601f821115612824576127f5816126c4565b6127fe846126d9565b8101602085101561280d578190505b612821612819856126d9565b8301826127c0565b50505b505050565b600082821c905092915050565b600061284760001984600802612829565b1980831691505092915050565b60006128608383612836565b9150826002028217905092915050565b612879826119f0565b67ffffffffffffffff81111561289257612891611bf6565b5b61289c825461224f565b6128a78282856127e3565b600060209050601f8311600181146128da57600084156128c8578287015190505b6128d28582612854565b86555061293a565b601f1984166128e8866126c4565b60005b82811015612910578489015182556001820191506020850194506020810190506128eb565b8683101561292d5784890151612929601f891682612836565b8355505b6001600288020188555050505b505050505050565b600061294d826118a0565b9150612958836118a0565b925082612968576129676120e7565b5b828204905092915050565b7f47696f6361746f726520676961207265676973747261746f0000000000000000600082015250565b60006129a96018836119fb565b91506129b482612973565b602082019050919050565b600060208201905081810360008301526129d88161299c565b9050919050565b7f4e6f6d6520696e73657269746f206e6f6e2076616c69646f0000000000000000600082015250565b6000612a156018836119fb565b9150612a20826129df565b602082019050919050565b60006020820190508181036000830152612a4481612a08565b9050919050565b6000819050919050565b6000612a70612a6b612a6684612a4b565b612748565b6118a0565b9050919050565b612a8081612a55565b82525050565b60006060820190508181036000830152612aa08186611a47565b9050612aaf6020830185611935565b612abc6040830184612a77565b94935050505056fea26469706673582212207e656301fe21e4949308a8698dd951ea645db7bf16ec8eaff5246ad83d3a5c2264736f6c63430008130033",
  "immutableReferences": {},
  "source": "// SPDX-License-Identifier: MIT\r\nimport \"./Profile.sol\";\r\npragma solidity ^0.8.19;\r\n\r\n\r\ncontract Roulette is Profile{\r\n  \r\n  uint betAmount;\r\n  uint necessaryBalance;\r\n  uint nextRoundTimestamp;\r\n  uint256 maxAmountAllowedInTheBank;\r\n  mapping (address => uint256) winnings;\r\n  uint8[] payouts;\r\n  uint8[] numberRange;\r\n  \r\n  /*\r\n    BetTypes are as follow:\r\n      0: color\r\n      1: column\r\n      2: dozen\r\n      3: eighteen\r\n      4: modulus\r\n      5: number\r\n      \r\n    Depending on the BetType, number will be:\r\n      color: 0 for black, 1 for red\r\n      column: 0 for left, 1 for middle, 2 for right\r\n      dozen: 0 for first, 1 for second, 2 for third\r\n      eighteen: 0 for low, 1 for high\r\n      modulus: 0 for even, 1 for odd\r\n      number: number\r\n  */\r\n  \r\n  struct Bet {\r\n    address player;\r\n    uint8 betType;\r\n    uint8 number;\r\n  }\r\n  Bet[] public bets;\r\n  \r\n  constructor() payable {\r\n    necessaryBalance = 0;\r\n    nextRoundTimestamp = block.timestamp;\r\n    payouts = [2,3,3,2,2,36];\r\n    numberRange = [1,2,2,1,1,36];\r\n    betAmount = 10000000000000000; /* 0.01 ether */\r\n    maxAmountAllowedInTheBank = 2000000000000000000; /* 2 ether */\r\n  }\r\n\r\n  event RandomNumber(uint256 number);\r\n  \r\n  function getStatus() public view returns(uint, uint, uint, uint) {\r\n    return (\r\n      bets.length,             // number of active bets\r\n      bets.length * betAmount, // value of active bets\r\n      nextRoundTimestamp,      // when can we play again\r\n      winnings[msg.sender]     // winnings of player\r\n    ); \r\n  }\r\n\r\n\r\n  function bet(uint8 number, uint8 betType) payable public {\r\n    /* \r\n       A bet is valid when:\r\n       1 - the value of the bet is correct (=betAmount)\r\n       2 - betType is known (between 0 and 5)\r\n       3 - the option betted is valid (don't bet on 37!)\r\n       4 - the bank has sufficient funds to pay the bet\r\n    */\r\n    require(msg.value == betAmount, \"non hai versato abbastanza fondi\");                               // 1\r\n    require(betType >= 0 && betType <= 5, \"non hai inserito la giusta giocata\");                         // 2\r\n    require(number >= 0 && number <= numberRange[betType], \"che numero di giocata hai selezionato?\");        // 3\r\n    uint payoutForThisBet = payouts[betType] * msg.value;\r\n    uint provisionalBalance = necessaryBalance + payoutForThisBet;\r\n    require(provisionalBalance < address(this).balance, \"la banca non ha abbastanza fondi da darti se vincessi\");           // 4\r\n    /* we are good to go */\r\n    necessaryBalance += payoutForThisBet;\r\n    bets.push(Bet({\r\n      betType: betType,\r\n      player: msg.sender,\r\n      number: number\r\n    }));\r\n  }\r\n\r\n  function spinWheel() public payable{\r\n    /* are there any bets? */\r\n    require(bets.length > 0, \"non ci sono giocate\");\r\n    //require(msg.value > 10000000000000000 wei, \"non sono stati versati abbastanza fondi \");  \r\n    /* are we allowed to spin the wheel? */\r\n    require(block.timestamp > nextRoundTimestamp, \"non e passato abbastanza tempo per poter rigiocare\");\r\n    /* next time we are allowed to spin the wheel again */\r\n    nextRoundTimestamp = block.timestamp;\r\n    /* calculate 'random' number */\r\n    uint diff = block.difficulty;\r\n    bytes32 hash = blockhash(block.number-1);\r\n    Bet memory lb = bets[bets.length-1];\r\n    uint number = uint(keccak256(abi.encodePacked(block.timestamp, diff, hash, lb.betType, lb.player, lb.number))) % 37;\r\n    /* check every bet for this number */\r\n    for (uint i = 0; i < bets.length; i++) {\r\n      bool won = false;\r\n      Bet memory b = bets[i];\r\n      if (number == 0) {\r\n        won = (b.betType == 5 && b.number == 0);                   /* bet on 0 */\r\n      } else {\r\n        if (b.betType == 5) { \r\n          won = (b.number == number);                              /* bet on number */\r\n        } else if (b.betType == 4) {\r\n          if (b.number == 0) won = (number % 2 == 0);              /* bet on even */\r\n          if (b.number == 1) won = (number % 2 == 1);              /* bet on odd */\r\n        } else if (b.betType == 3) {            \r\n          if (b.number == 0) won = (number <= 18);                 /* bet on low 18s */\r\n          if (b.number == 1) won = (number >= 19);                 /* bet on high 18s */\r\n        } else if (b.betType == 2) {                               \r\n          if (b.number == 0) won = (number <= 12);                 /* bet on 1st dozen */\r\n          if (b.number == 1) won = (number > 12 && number <= 24);  /* bet on 2nd dozen */\r\n          if (b.number == 2) won = (number > 24);                  /* bet on 3rd dozen */\r\n        } else if (b.betType == 1) {               \r\n          if (b.number == 0) won = (number % 3 == 1);              /* bet on left column */\r\n          if (b.number == 1) won = (number % 3 == 2);              /* bet on middle column */\r\n          if (b.number == 2) won = (number % 3 == 0);              /* bet on right column */\r\n        } else if (b.betType == 0) {\r\n          if (b.number == 0) {                                     /* bet on black */\r\n            if (number <= 10 || (number >= 20 && number <= 28)) {\r\n              won = (number % 2 == 0);\r\n            } else {\r\n              won = (number % 2 == 1);\r\n            }\r\n          } else {                                                 /* bet on red */\r\n            if (number <= 10 || (number >= 20 && number <= 28)) {\r\n              won = (number % 2 == 1);\r\n            } else {\r\n              won = (number % 2 == 0);\r\n            }\r\n          }\r\n        }\r\n      }\r\n      /* if winning bet, add to player winnings balance */\r\n      if (won) {\r\n        winnings[b.player] += betAmount * payouts[b.betType];\r\n        //aggiorniamo le giocate del giocatore;\r\n        addToPlayer[b.player].game +=1;\r\n        addToPlayer[b.player].cashInBank += betAmount * payouts[b.betType];\r\n      }else{\r\n        addToPlayer[b.player].game +=1;\r\n      }\r\n    }\r\n    /* delete all bets */\r\n    //bets.length = 0;\r\n    delete bets;\r\n\r\n    /* reset necessaryBalance */\r\n    necessaryBalance = 0;\r\n\r\n    /* returns 'random' number to UI */\r\n    emit RandomNumber(number);\r\n  }\r\n\r\n  /*\r\n\r\n  function cashOut() public {\r\n    address payable player = payable(msg.sender);\r\n    uint256 amount = winnings[player];\r\n    require(amount > 0);\r\n    require(amount <= address(this).balance);\r\n    winnings[player] = 0;\r\n    player.transfer(amount);\r\n  }\r\n  \r\n  function takeProfits() internal {\r\n    uint amount = address(this).balance - maxAmountAllowedInTheBank;\r\n    if (amount > 0) creator.transfer(amount);\r\n  }\r\n  \r\n  function creatorKill() public {\r\n    require(msg.sender == creator);\r\n    \r\n    creator.transfer(address(this).balance);\r\n    //selfdestruct(creator);\r\n  }\r\n  */\r\n \r\n}",
  "sourcePath": "/Users/mac_marco/ETHRoulette/contracts/Roulette.sol",
  "compiler": {
    "name": "solc",
    "version": "0.8.19+commit.7dd6d404.Emscripten.clang"
  },
  "schemaVersion": "3.4.16",
  "updatedAt": "2024-01-30T16:09:50.762Z",
  "networkType": "ethereum",
  "devdoc": {
    "kind": "dev",
    "methods": {},
    "version": 1
  },
  "userdoc": {
    "kind": "user",
    "methods": {},
    "version": 1
  }
}