{
  "contractName": "Roulette",
  "abi": [
    {
      "inputs": [],
      "stateMutability": "payable",
      "type": "constructor",
      "payable": true
    },
    {
      "anonymous": false,
      "inputs": [
        {
          "indexed": false,
          "internalType": "uint256",
          "name": "number",
          "type": "uint256"
        }
      ],
      "name": "RandomNumber",
      "type": "event"
    },
    {
      "inputs": [
        {
          "internalType": "uint256",
          "name": "",
          "type": "uint256"
        }
      ],
      "name": "bets",
      "outputs": [
        {
          "internalType": "address",
          "name": "player",
          "type": "address"
        },
        {
          "internalType": "uint8",
          "name": "betType",
          "type": "uint8"
        },
        {
          "internalType": "uint8",
          "name": "number",
          "type": "uint8"
        }
      ],
      "stateMutability": "view",
      "type": "function",
      "constant": true
    },
    {
      "inputs": [],
      "name": "getStatus",
      "outputs": [
        {
          "internalType": "uint256",
          "name": "",
          "type": "uint256"
        },
        {
          "internalType": "uint256",
          "name": "",
          "type": "uint256"
        },
        {
          "internalType": "uint256",
          "name": "",
          "type": "uint256"
        },
        {
          "internalType": "uint256",
          "name": "",
          "type": "uint256"
        },
        {
          "internalType": "uint256",
          "name": "",
          "type": "uint256"
        }
      ],
      "stateMutability": "view",
      "type": "function",
      "constant": true
    },
    {
      "inputs": [],
      "name": "addEther",
      "outputs": [],
      "stateMutability": "payable",
      "type": "function",
      "payable": true
    },
    {
      "inputs": [
        {
          "internalType": "uint8",
          "name": "number",
          "type": "uint8"
        },
        {
          "internalType": "uint8",
          "name": "betType",
          "type": "uint8"
        }
      ],
      "name": "bet",
      "outputs": [],
      "stateMutability": "payable",
      "type": "function",
      "payable": true
    },
    {
      "inputs": [],
      "name": "spinWheel",
      "outputs": [
        {
          "internalType": "uint256",
          "name": "",
          "type": "uint256"
        }
      ],
      "stateMutability": "nonpayable",
      "type": "function"
    },
    {
      "inputs": [],
      "name": "cashOut",
      "outputs": [],
      "stateMutability": "nonpayable",
      "type": "function"
    },
    {
      "inputs": [],
      "name": "creatorKill",
      "outputs": [],
      "stateMutability": "nonpayable",
      "type": "function"
    }
  ],
  "bytecode": "0x608060405233600360006101000a81548173ffffffffffffffffffffffffffffffffffffffff021916908373ffffffffffffffffffffffffffffffffffffffff1602179055506000600181905550426002819055506040518060c00160405280600260ff168152602001600360ff168152602001600360ff168152602001600260ff168152602001600260ff168152602001602460ff168152506006906006620000ab92919062000127565b506040518060c00160405280600160ff168152602001600260ff168152602001600260ff168152602001600160ff168152602001600160ff168152602001602460ff1681525060079060066200010392919062000127565b50662386f26fc10000600081905550671bc16d674ec80000600481905550620001f4565b82805482825590600052602060002090601f01602090048101928215620001c25791602002820160005b838211156200019157835183826101000a81548160ff021916908360ff160217905550926020019260010160208160000104928301926001030262000151565b8015620001c05782816101000a81549060ff021916905560010160208160000104928301926001030262000191565b505b509050620001d19190620001d5565b5090565b5b80821115620001f0576000816000905550600101620001d6565b5090565b6111ed80620002046000396000f3fe6080604052600436106100705760003560e01c8063793cd71e1161004e578063793cd71e1461010e5780638894dd2b146101255780638c0e554f1461012f578063d773f46e1461014657610070565b806315ecef921461007557806322af00fa146100a05780634e69d560146100df575b600080fd5b34801561008157600080fd5b5061008a610162565b6040516100979190610d01565b60405180910390f35b3480156100ac57600080fd5b506100c760048036038101906100c29190610d4d565b610742565b6040516100d693929190610dd7565b60405180910390f35b3480156100eb57600080fd5b506100f46107b2565b604051610105959493929190610e0e565b60405180910390f35b34801561011a57600080fd5b50610123610828565b005b61012d61091b565b005b34801561013b57600080fd5b5061014461091d565b005b610160600480360381019061015b9190610e8d565b6109e2565b005b6000806008805490501161017557600080fd5b600254421161018357600080fd5b426002819055506000449050600060014361019e9190610efc565b4090506000600860016008805490506101b79190610efc565b815481106101c8576101c7610f30565b5b906000526020600020016040518060600160405290816000820160009054906101000a900473ffffffffffffffffffffffffffffffffffffffff1673ffffffffffffffffffffffffffffffffffffffff1673ffffffffffffffffffffffffffffffffffffffff1681526020016000820160149054906101000a900460ff1660ff1660ff1681526020016000820160159054906101000a900460ff1660ff1660ff168152505090506000602542858585602001518660000151876040015160405160200161029a96959493929190611029565b6040516020818303038152906040528051906020012060001c6102bd91906110c8565b905060005b6008805490508110156106d757600080600883815481106102e6576102e5610f30565b5b906000526020600020016040518060600160405290816000820160009054906101000a900473ffffffffffffffffffffffffffffffffffffffff1673ffffffffffffffffffffffffffffffffffffffff1673ffffffffffffffffffffffffffffffffffffffff1681526020016000820160149054906101000a900460ff1660ff1660ff1681526020016000820160159054906101000a900460ff1660ff1660ff16815250509050600084036103ba576005816020015160ff161480156103b357506000816040015160ff16145b9150610617565b6005816020015160ff16036103da5783816040015160ff16149150610616565b6004816020015160ff1603610432576000816040015160ff160361040b57600060028561040791906110c8565b1491505b6001816040015160ff160361042d57600160028561042991906110c8565b1491505b610615565b6003816020015160ff1603610474576000816040015160ff160361045857601284111591505b6001816040015160ff160361046f57601384101591505b610614565b6002816020015160ff16036104d8576000816040015160ff160361049a57600c84111591505b6001816040015160ff16036104bd57600c841180156104ba575060188411155b91505b6002816040015160ff16036104d3576018841191505b610613565b6001816020015160ff1603610552576000816040015160ff160361050957600160038561050591906110c8565b1491505b6001816040015160ff160361052b57600260038561052791906110c8565b1491505b6002816040015160ff160361054d57600060038561054991906110c8565b1491505b610612565b6000816020015160ff1603610611576000816040015160ff16036105c257600a8411158061058e57506014841015801561058d5750601c8411155b5b156105aa5760006002856105a291906110c8565b1491506105bd565b60016002856105b991906110c8565b1491505b610610565b600a841115806105e05750601484101580156105df5750601c8411155b5b156105fc5760016002856105f491906110c8565b14915061060f565b600060028561060b91906110c8565b1491505b5b5b5b5b5b5b5b5b81156106c2576006816020015160ff168154811061063857610637610f30565b5b90600052602060002090602091828204019190069054906101000a900460ff1660ff1660005461066891906110f9565b60056000836000015173ffffffffffffffffffffffffffffffffffffffff1673ffffffffffffffffffffffffffffffffffffffff16815260200190815260200160002060008282546106ba919061113b565b925050819055505b505080806106cf9061116f565b9150506102c2565b50600860006106e69190610c61565b600060018190555060045447111561070157610700610bd9565b5b7fec6cdc8e735e4069f6e89062582f3e5532a8e71373e7ef2962fa916cf2af21f2816040516107309190610d01565b60405180910390a18094505050505090565b6008818154811061075257600080fd5b906000526020600020016000915090508060000160009054906101000a900473ffffffffffffffffffffffffffffffffffffffff16908060000160149054906101000a900460ff16908060000160159054906101000a900460ff16905083565b60008060008060006008805490506000546008805490506107d391906110f9565b60025447600560003373ffffffffffffffffffffffffffffffffffffffff1673ffffffffffffffffffffffffffffffffffffffff16815260200190815260200160002054945094509450945094509091929394565b60003390506000600560008373ffffffffffffffffffffffffffffffffffffffff1673ffffffffffffffffffffffffffffffffffffffff1681526020019081526020016000205490506000811161087e57600080fd5b4781111561088b57600080fd5b6000600560008473ffffffffffffffffffffffffffffffffffffffff1673ffffffffffffffffffffffffffffffffffffffff168152602001908152602001600020819055508173ffffffffffffffffffffffffffffffffffffffff166108fc829081150290604051600060405180830381858888f19350505050158015610916573d6000803e3d6000fd5b505050565b565b600360009054906101000a900473ffffffffffffffffffffffffffffffffffffffff1673ffffffffffffffffffffffffffffffffffffffff163373ffffffffffffffffffffffffffffffffffffffff161461097757600080fd5b600360009054906101000a900473ffffffffffffffffffffffffffffffffffffffff1673ffffffffffffffffffffffffffffffffffffffff166108fc479081150290604051600060405180830381858888f193505050501580156109df573d6000803e3d6000fd5b50565b60005434146109f057600080fd5b60008160ff1610158015610a08575060058160ff1611155b610a1157600080fd5b60008260ff1610158015610a61575060078160ff1681548110610a3757610a36610f30565b5b90600052602060002090602091828204019190069054906101000a900460ff1660ff168260ff1611155b610a6a57600080fd5b60003460068360ff1681548110610a8457610a83610f30565b5b90600052602060002090602091828204019190069054906101000a900460ff1660ff16610ab191906110f9565b9050600081600154610ac3919061113b565b9050478110610ad157600080fd5b8160016000828254610ae3919061113b565b92505081905550600860405180606001604052803373ffffffffffffffffffffffffffffffffffffffff1681526020018560ff1681526020018660ff168152509080600181540180825580915050600190039060005260206000200160009091909190915060008201518160000160006101000a81548173ffffffffffffffffffffffffffffffffffffffff021916908373ffffffffffffffffffffffffffffffffffffffff16021790555060208201518160000160146101000a81548160ff021916908360ff16021790555060408201518160000160156101000a81548160ff021916908360ff160217905550505050505050565b600060045447610be99190610efc565b90506000811115610c5e57600360009054906101000a900473ffffffffffffffffffffffffffffffffffffffff1673ffffffffffffffffffffffffffffffffffffffff166108fc829081150290604051600060405180830381858888f19350505050158015610c5c573d6000803e3d6000fd5b505b50565b5080546000825590600052602060002090810190610c7f9190610c82565b50565b5b80821115610ce457600080820160006101000a81549073ffffffffffffffffffffffffffffffffffffffff02191690556000820160146101000a81549060ff02191690556000820160156101000a81549060ff021916905550600101610c83565b5090565b6000819050919050565b610cfb81610ce8565b82525050565b6000602082019050610d166000830184610cf2565b92915050565b600080fd5b610d2a81610ce8565b8114610d3557600080fd5b50565b600081359050610d4781610d21565b92915050565b600060208284031215610d6357610d62610d1c565b5b6000610d7184828501610d38565b91505092915050565b600073ffffffffffffffffffffffffffffffffffffffff82169050919050565b6000610da582610d7a565b9050919050565b610db581610d9a565b82525050565b600060ff82169050919050565b610dd181610dbb565b82525050565b6000606082019050610dec6000830186610dac565b610df96020830185610dc8565b610e066040830184610dc8565b949350505050565b600060a082019050610e236000830188610cf2565b610e306020830187610cf2565b610e3d6040830186610cf2565b610e4a6060830185610cf2565b610e576080830184610cf2565b9695505050505050565b610e6a81610dbb565b8114610e7557600080fd5b50565b600081359050610e8781610e61565b92915050565b60008060408385031215610ea457610ea3610d1c565b5b6000610eb285828601610e78565b9250506020610ec385828601610e78565b9150509250929050565b7f4e487b7100000000000000000000000000000000000000000000000000000000600052601160045260246000fd5b6000610f0782610ce8565b9150610f1283610ce8565b9250828203905081811115610f2a57610f29610ecd565b5b92915050565b7f4e487b7100000000000000000000000000000000000000000000000000000000600052603260045260246000fd5b6000819050919050565b610f7a610f7582610ce8565b610f5f565b82525050565b6000819050919050565b6000819050919050565b610fa5610fa082610f80565b610f8a565b82525050565b60008160f81b9050919050565b6000610fc382610fab565b9050919050565b610fdb610fd682610dbb565b610fb8565b82525050565b60008160601b9050919050565b6000610ff982610fe1565b9050919050565b600061100b82610fee565b9050919050565b61102361101e82610d9a565b611000565b82525050565b60006110358289610f69565b6020820191506110458288610f69565b6020820191506110558287610f94565b6020820191506110658286610fca565b6001820191506110758285611012565b6014820191506110858284610fca565b600182019150819050979650505050505050565b7f4e487b7100000000000000000000000000000000000000000000000000000000600052601260045260246000fd5b60006110d382610ce8565b91506110de83610ce8565b9250826110ee576110ed611099565b5b828206905092915050565b600061110482610ce8565b915061110f83610ce8565b925082820261111d81610ce8565b9150828204841483151761113457611133610ecd565b5b5092915050565b600061114682610ce8565b915061115183610ce8565b925082820190508082111561116957611168610ecd565b5b92915050565b600061117a82610ce8565b91507fffffffffffffffffffffffffffffffffffffffffffffffffffffffffffffffff82036111ac576111ab610ecd565b5b60018201905091905056fea26469706673582212207ce48f88f469845b337294c33cb94a49f96df64c5e3106c68d3d4fc64c9b441964736f6c63430008130033",
  "immutableReferences": {},
  "source": "// SPDX-License-Identifier: MIT\r\npragma solidity ^0.8.19;\r\n\r\ncontract Roulette {\r\n  \r\n  uint betAmount;\r\n  uint necessaryBalance;\r\n  uint nextRoundTimestamp;\r\n  address payable creator;\r\n  uint256 maxAmountAllowedInTheBank;\r\n  mapping (address => uint256) winnings;\r\n  uint8[] payouts;\r\n  uint8[] numberRange;\r\n  \r\n  /*\r\n    BetTypes are as follow:\r\n      0: color\r\n      1: column\r\n      2: dozen\r\n      3: eighteen\r\n      4: modulus\r\n      5: number\r\n      \r\n    Depending on the BetType, number will be:\r\n      color: 0 for black, 1 for red\r\n      column: 0 for left, 1 for middle, 2 for right\r\n      dozen: 0 for first, 1 for second, 2 for third\r\n      eighteen: 0 for low, 1 for high\r\n      modulus: 0 for even, 1 for odd\r\n      number: number\r\n  */\r\n  \r\n  struct Bet {\r\n    address player;\r\n    uint8 betType;\r\n    uint8 number;\r\n  }\r\n  Bet[] public bets;\r\n  \r\n  constructor() payable {\r\n    creator =payable(msg.sender);\r\n    necessaryBalance = 0;\r\n    nextRoundTimestamp = block.timestamp;\r\n    payouts = [2,3,3,2,2,36];\r\n    numberRange = [1,2,2,1,1,36];\r\n    betAmount = 10000000000000000; /* 0.01 ether */\r\n    maxAmountAllowedInTheBank = 2000000000000000000; /* 2 ether */\r\n  }\r\n\r\n  event RandomNumber(uint256 number);\r\n  \r\n  function getStatus() public view returns(uint, uint, uint, uint, uint) {\r\n    return (\r\n      bets.length,             // number of active bets\r\n      bets.length * betAmount, // value of active bets\r\n      nextRoundTimestamp,      // when can we play again\r\n      address(this).balance,   // roulette balance\r\n      winnings[msg.sender]     // winnings of player\r\n    ); \r\n  }\r\n    \r\n  function addEther() payable public {}\r\n\r\n  function bet(uint8 number, uint8 betType) payable public {\r\n    /* \r\n       A bet is valid when:\r\n       1 - the value of the bet is correct (=betAmount)\r\n       2 - betType is known (between 0 and 5)\r\n       3 - the option betted is valid (don't bet on 37!)\r\n       4 - the bank has sufficient funds to pay the bet\r\n    */\r\n    require(msg.value == betAmount);                               // 1\r\n    require(betType >= 0 && betType <= 5);                         // 2\r\n    require(number >= 0 && number <= numberRange[betType]);        // 3\r\n    uint payoutForThisBet = payouts[betType] * msg.value;\r\n    uint provisionalBalance = necessaryBalance + payoutForThisBet;\r\n    require(provisionalBalance < address(this).balance);           // 4\r\n    /* we are good to go */\r\n    necessaryBalance += payoutForThisBet;\r\n    bets.push(Bet({\r\n      betType: betType,\r\n      player: msg.sender,\r\n      number: number\r\n    }));\r\n  }\r\n\r\n  function spinWheel() public returns (uint){\r\n    /* are there any bets? */\r\n    require(bets.length > 0);\r\n    /* are we allowed to spin the wheel? */\r\n    require(block.timestamp > nextRoundTimestamp);\r\n    /* next time we are allowed to spin the wheel again */\r\n    nextRoundTimestamp = block.timestamp;\r\n    /* calculate 'random' number */\r\n    uint diff = block.difficulty;\r\n    bytes32 hash = blockhash(block.number-1);\r\n    Bet memory lb = bets[bets.length-1];\r\n    uint number = uint(keccak256(abi.encodePacked(block.timestamp, diff, hash, lb.betType, lb.player, lb.number))) % 37;\r\n    /* check every bet for this number */\r\n    for (uint i = 0; i < bets.length; i++) {\r\n      bool won = false;\r\n      Bet memory b = bets[i];\r\n      if (number == 0) {\r\n        won = (b.betType == 5 && b.number == 0);                   /* bet on 0 */\r\n      } else {\r\n        if (b.betType == 5) { \r\n          won = (b.number == number);                              /* bet on number */\r\n        } else if (b.betType == 4) {\r\n          if (b.number == 0) won = (number % 2 == 0);              /* bet on even */\r\n          if (b.number == 1) won = (number % 2 == 1);              /* bet on odd */\r\n        } else if (b.betType == 3) {            \r\n          if (b.number == 0) won = (number <= 18);                 /* bet on low 18s */\r\n          if (b.number == 1) won = (number >= 19);                 /* bet on high 18s */\r\n        } else if (b.betType == 2) {                               \r\n          if (b.number == 0) won = (number <= 12);                 /* bet on 1st dozen */\r\n          if (b.number == 1) won = (number > 12 && number <= 24);  /* bet on 2nd dozen */\r\n          if (b.number == 2) won = (number > 24);                  /* bet on 3rd dozen */\r\n        } else if (b.betType == 1) {               \r\n          if (b.number == 0) won = (number % 3 == 1);              /* bet on left column */\r\n          if (b.number == 1) won = (number % 3 == 2);              /* bet on middle column */\r\n          if (b.number == 2) won = (number % 3 == 0);              /* bet on right column */\r\n        } else if (b.betType == 0) {\r\n          if (b.number == 0) {                                     /* bet on black */\r\n            if (number <= 10 || (number >= 20 && number <= 28)) {\r\n              won = (number % 2 == 0);\r\n            } else {\r\n              won = (number % 2 == 1);\r\n            }\r\n          } else {                                                 /* bet on red */\r\n            if (number <= 10 || (number >= 20 && number <= 28)) {\r\n              won = (number % 2 == 1);\r\n            } else {\r\n              won = (number % 2 == 0);\r\n            }\r\n          }\r\n        }\r\n      }\r\n      /* if winning bet, add to player winnings balance */\r\n      if (won) {\r\n        winnings[b.player] += betAmount * payouts[b.betType];\r\n      }\r\n    }\r\n    /* delete all bets */\r\n    //bets.length = 0;\r\n    delete bets;\r\n    /* reset necessaryBalance */\r\n    necessaryBalance = 0;\r\n    /* check if to much money in the bank */\r\n    if (address(this).balance > maxAmountAllowedInTheBank) takeProfits();\r\n    /* returns 'random' number to UI */\r\n    emit RandomNumber(number);\r\n    return number;\r\n  }\r\n  \r\n  function cashOut() public {\r\n    address payable player = payable(msg.sender);\r\n    uint256 amount = winnings[player];\r\n    require(amount > 0);\r\n    require(amount <= address(this).balance);\r\n    winnings[player] = 0;\r\n    player.transfer(amount);\r\n  }\r\n  \r\n  function takeProfits() internal {\r\n    uint amount = address(this).balance - maxAmountAllowedInTheBank;\r\n    if (amount > 0) creator.transfer(amount);\r\n  }\r\n  \r\n  function creatorKill() public {\r\n    require(msg.sender == creator);\r\n    \r\n    creator.transfer(address(this).balance);\r\n    //selfdestruct(creator);\r\n  }\r\n \r\n}",
  "sourcePath": "/Users/mac_marco/ETHRoulette/contracts/Roulette.sol",
  "compiler": {
    "name": "solc",
    "version": "0.8.19+commit.7dd6d404.Emscripten.clang"
  },
  "schemaVersion": "3.4.16",
  "updatedAt": "2024-01-23T09:45:20.594Z",
  "networkType": "ethereum",
  "devdoc": {
    "kind": "dev",
    "methods": {},
    "version": 1
  },
  "userdoc": {
    "kind": "user",
    "methods": {},
    "version": 1
  }
}